:020000040800F2
:1000000080200020492C0008C1720008352C00080F
:10001000352C0008352C0008352C000800000000A5
:100020000000000000000000000000001D2D00087E
:10003000352C000800000000B92C0008613F0008C2
:10004000AD2E0008AD2E0008AD2E0008AD2E000824
:10005000AD2E0008AD2E0008AD2E0008AD2E000814
:10006000AD2E0008AD2E0008AD2E0008AD2E000804
:10007000AD2E0008AD2E0008AD2E0008AD2E0008F4
:10008000AD2E0008AD2E0008AD2E0008AD2E0008E4
:10009000AD2E0008AD2E0008AD2E0008AD2E0008D4
:1000A000AD2E0008AD2E0008AD2E0008AD2E0008C4
:1000B000AD2E0008AD2E0008AD2E0008AD2E0008B4
:1000C000AD2E0008AD2E0008AD2E0008AD2E0008A4
:1000D000AD2E0008AD2E0008AD2E0008AD2E000894
:1000E000AD2E0008AD2E0008AD2E0008AD2E000884
:1000F000AD2E0008AD2E0008AD2E0008AD2E000874
:10010000AD2E0008AD2E0008AD2E0008AD2E000863
:10011000AD2E0008AD2E0008AD2E0008AD2E000853
:10012000AD2E0008AD2E0008AD2E0008AD2E000843
:10013000AD2E0008AD2E0008AD2E0008AD2E000833
:10014000AD2E0008AD2E0008AD2E0008AD2E000823
:10015000AD2E0008AD2E0008AD2E0008AD2E000813
:10016000AD2E0008AD2E0008AD2E0008AD2E000803
:10017000AD2E0008AD2E0008AD2E0008AD2E0008F3
:08018000AD2E0008AD2E0008B1
:100188007BB972B90029BEBF00204FF0004106E0DC
:1001980008BF00281CBF6FF000414FF0FF3000F08F
:1001A80057B8ADF1080C6DE904CE002909DB002B26
:1001B8001ADB00F069F8DDF804E0DDE9022304B099
:1001C8007047404261EB4101002B1BDB00F05CF8FB
:1001D800DDF804E0DDE9022304B0404261EB4101AF
:1001E800524263EB43037047524263EB430300F010
:1001F8004BF8DDF804E0DDE9022304B0404261EB8E
:1002080041017047524263EB430300F03DF8DDF8CB
:1002180004E0DDE9022304B0524263EB4303704774
:1002280053B94AB9002908BF00281CBF4FF0FF3155
:100238004FF0FF3000F00CB8ADF1080C6DE904CEBA
:1002480000F022F8DDF804E0DDE9022304B070478D
:10025800704700BF10F8012B11F8013B012A28BF95
:100268009A42F7D0D01A7047034611F8012B03F8C9
:10027800012B002AF9D17047034613F8012B002AF5
:10028800FBD1181A013870472DE9F04786468C468D
:100298000846089E154674461946002B40F0C28051
:1002A8008542B2FA82F245D94AB1C2F1200300FA76
:1002B80002FC2EFA03F3954043EA0C0C94404FEAF3
:1002C800154EA8B2BCFBFEF8230C0EFB18CC08FB9D
:1002D80000F943EA0C43994528D9EB1808F1FF3790
:1002E80004D2994502D9A8F102072B44A3EB0903CC
:1002F800A4B2B3FBFEFC0EFB1C330CFB00F044EA7B
:100308000344A04214D92C190CF1FF3304D2A042A3
:1003180002D9ACF102032C44241A43EA07401EB167
:10032800D440002334607360BDE8F0874746DDE7BA
:100338006346F1E792BB431B01214FEA154EAFB26A
:10034800B3FBFEFC200C0EFB1C330CFB07F840EA49
:100358000343984562D9EB180CF1FF3004D2984555
:1003680002D9ACF102002B44A3EB0803A4B2B3FBFF
:10037800FEFC0EFB1C330CFB07F744EA0344A742C0
:100388004ED92C190CF1FF3304D2A74202D9ACF193
:1003980002032C44E41B43EA0040C0E7C2F12003F7
:1003A80020FA03F1954090402EFA03F303434FEAF5
:1003B800154EAFB2B1FBFEFC0EFB1C10190C0CFB6A
:1003C80007F841EA0041884504FA02F422D969187D
:1003D8000CF1FF3004D2884502D9ACF1020029445F
:1003E800A1EB08019BB2B1FBFEFC0EFB1C110CFB40
:1003F80007F743EA01439F420ED9EB180CF1FF318E
:1004080004D29F4202D9ACF102012B44DB1B41EA22
:10041800004192E76046E3E76146F7E76046A3E7F5
:100428006346B7E7834206D916B9002108467BE739
:10043800C6E900E0F9E7B3FA83F78FB9834201D33D
:10044800724508D8BEEB020460EB030301209C460A
:100458001EB9002168E73846FAE7C6E9004CF8E714
:10046800C7F1200CBB4022FA0CF41C432EFA0CF105
:1004780020FA0CF3B84001434FEA14490EFA07F585
:10048800B3FBF9F81FFA84FE09FB18300B0C08FBC4
:100498000EFA43EA00439A4502FA07F240D9E318F4
:1004A80008F1FF3004D29A4502D9A8F1020023448A
:1004B800A3EB0A0389B2B3FBF9F809FB183308FB6D
:1004C8000EFE41EA03418E452CD9611808F1FF332D
:1004D80004D28E4502D9A8F10203214443EA004020
:1004E800A0FB0298A1EB0E014145CE46434602D33C
:1004F80006D14D4504D2B9EB020E68EB040301386E
:10050800002EA6D0B5EB0E0261EB030101FA0CFC3C
:1005180022FA07F34CEA0303F940C6E9003198E7E9
:100528004046C5E74346D9E72DE9F047044688B079
:100538008846174607F0C8FD0A220023FFF770FE19
:10054800B8F1010F06460D4607D102460B46204674
:10055800274905F0E4FF002011E07F682548394667
:10056800FFF778FE70B124483946FFF773FE48B1AB
:10057800204622493A4605F0EEFF6FF0040008B025
:10058800BDE8F0873046294617A3D3E90023FFF7D3
:10059800F7FD06460D4610461946194A0023FFF78F
:1005A800EFFD80460F46104619464EF6602200239E
:1005B800FFF7E6FD82468946104619464FF47A72DF
:1005C8000023FFF7DDFDCDE902A9CDE90623CDE93A
:1005D8000401CDE900870B4932462B46204605F039
:1005E8009EFFB8E7AFF30080005C2605000000001E
:1005F8005094000861940008649400086D94000801
:1006080080EE36008594000810B5002204460E21BD
:10061800044805F07EFC2046034905F080FF0020D1
:1006280010BD00BF7C8700089E93000810B501220A
:1006380004460E21044805F06CFC2046034905F0E9
:100648006EFF002010BD00BF7C870008AA93000839
:1006580010B50C4C204607F0ACFB20B9BDE81040A3
:10066800094805F0D1BC2269A168136823F48043C6
:1006780013600B6820464FF4C022BDE810400E21DD
:10068800184700BF7C870008B5930008014B1B681A
:10069800184700BF00000020014B1860704700BFDA
:1006A8000000002030B585B004460D461022002118
:1006B800684607F09FFE02238DF802302A46044B55
:1006C80001932146684605F0C7F905B030BD00BF63
:1006D8009506000880B505460E461746984604F06C
:1006E80031FC034607F04EFFDFF81890044649F83E
:1006F8000030424630463946A84754F8090002F00F
:10070800C1FA00BF08000000034A536823F002033F
:1007180053600020704700BF002004E0EFF3118011
:10072800102383F31288BFF36F8F094B1A683AB905
:10073800084A116841F4807111601168C905FCD537
:100748001A6801321A6080F31188BFF36F8F7047FF
:100758008805002000700040EFF31180102383F318
:100768001288BFF36F8F0C4B1A684AB90B4B1A7873
:100778000AB901221A7080F31188BFF36F8F70478E
:10078800012A01BF06490A6822F480720A601A68C1
:10079800013A1A60EFE700BF88050020540A0020DC
:1007A80000700040084B1A6842F400721A601A6818
:1007B80042F480621A601A6842F480721A60034B2D
:1007C800034A1A60704700BF0020024098000020CA
:1007D80000093D00014B036000207047FC8C0008B5
:1007E80010B5044603F082FC03490246204605F092
:1007F80096FE002010BD00BFFB93000837B51346D6
:1008080000220192054601AA58680A2101F0B2FBAC
:10081800019C4CB920EAE0700A2180FB010107F035
:10082800C5FB204603B030BD22460349284605F0E3
:1008380092FE019CF5E700BF2794000808B5034A1B
:10084800034905F06CFE002008BD00BF179500089D
:100858002195000807B500230090694604488DF8E3
:10086800043004F0CBFC9DF8040003B05DF804FBF1
:100878004F61000810B5044603F01AFC0749024608
:10088800204605F04CFE2046054905F048FE05487F
:10089800214604F0CDFC002010BD00BF6395000880
:1008A80082950008B108000870B58EB004460D4660
:1008B800D0F89C6007F0CEFA034607F063FE214AA1
:1008C80021491058214A002B18BF1A460092204A85
:1008D8002346844218BF0A4628461E4905F01FFED3
:1008E800D4E90A23CDE90023284694F90E30227B67
:1008F800194905F014FE06A92022204603F00AFF34
:10090800636E16490246284605F009FE05A92046E9
:1009180007F0AEFA024628B11149284605F0FFFD56
:100928000EB070BD059B6422F11A4A430091B2FBD8
:10093800F6F20C49CDE901622846324605F0EFFD92
:10094800EEE700BF08000000489E00088C950008EC
:100958005EA600088F9500089B950008C7950008BB
:10096800DE9500080B960008F0B5002591B0044606
:10097800294608AF1C2209A807F03CFD134E1A228D
:100988002021384607F036FD2146114804F050FC76
:1009980007AA4FF40061304607F05EFA079A0097FD
:1009A800C2F5006164234B43DB0A05934FF40063EF
:1009B800CDE90313CDE90132204606492B46A6F1BD
:1009C800400205F0ACFD284611B0F0BD0013002030
:1009D800E10900085C96000870B50446D0F89C60F0
:1009E80088B00D4607A907F043FA024628B10F4917
:1009F800284605F094FD08B070BD204607F02AFA95
:100A0800079B0096F11ACDE90131094B64224A434C
:100A1800002818BF0346B2FBF6F20649CDE9036287
:100A28002846224605F07BFDE5E700BFDE95000875
:100A38008C950008A596000838B51346054610227F
:100A48005868002104F0A2FF0446FFF703FF38B9F5
:100A58000E492246284605F07EFD6FF0150038BD88
:100A680007F090FD0A4B1B589C4204D109492846BF
:100A780005F071FDF1E7204604F020F82846064904
:100A8800224605F04CFD0020E9E700BF0997000861
:100A980008000000249700084C97000838B5134652
:100AA800054610225868002104F070FF0446FFF73D
:100AB800D1FE38B90E492246284605F04CFD6FF0A4
:100AC800150038BD07F05EFD0A4B1B589C4204D147
:100AD8000949284605F03FFDF1E7204604F00CF9E6
:100AE80028460649224605F01AFD0020E9E700BF1E
:100AF80009970008080000008B970008B1970008C4
:100B080038B51346054610225868002104F03EFF08
:100B18000446FFF79FFE38B90E492246284605F0DD
:100B28001AFD6FF0150038BD07F02CFD0A4B1B5855
:100B38009C4204D10949284605F00DFDF1E72046FD
:100B480002F0A0F828460649224605F0E8FC0020F5
:100B5800E9E700BF0997000808000000EC970008C3
:100B6800119800082DE9F04F87B00446684603F055
:100B780073FB009F284ADFF8A4A0DFF8A4B0242361
:100B880003FB00770821204605F0BCFC009DBD4210
:100B980003D3002007B0BDE8F08F2B680BB11A789B
:100BA80032B92B461F4A142101A804F0C5FE01AB37
:100BB80052460821204605F0A5FC284607F0F9F81A
:100BC800194B1A4A002808BF5B460821204605F041
:100BD80099FC2B6AA3B11E6896B1336883B1144A95
:100BE8000821204605F08EFCB1464FF00008336816
:100BF800104A434506D8104A0821204605F082FCD1
:100C08002435C4E759F8043F0821204605F07AFC4A
:100C180008F10108EBE700BF58980008679800083A
:100C28004F9800086298000849980008DB9E000861
:100C38006C98000868980008409600082DE9F04173
:100C480014468846074610226068002104F09EFE7C
:100C5800B8F1020F064607D8254A2023082138464E
:100C680005F050FC336816E00A220021A06804F061
:100C78008DFEC5B21E4A2B460821384605F042FCB7
:100C8800B8F1030F1AD1102D0CD0202DEAD0082D61
:100C98000BD13378DBB2174A0821384605F032FC0D
:100CA800002009E033889BB2F5E73846124A08214C
:100CB80005F028FC6FF01500BDE8F081E06810220F
:100CC800002104F063FE0D4A034604460821384615
:100CD80005F018FC102D06D0202D07D0082DE4D1E2
:100CE800E4B23470DCE7A4B23480D9E73460D7E7E3
:100CF800AD980008D8980008C2980008E99800083C
:100D08002DE9F04F87B000230193524BDFF848A13B
:100D180091460122074688461A6002F06FFA4FF0A2
:100D2800FF3520262C4649465246404602F08AFAAC
:100D3800411C06D16A1C41D14849384605F00BFCD4
:100D480017E073281AD0772828D0612811D1DFF846
:100D580010B101AADBF80000102101F00BF9019B8A
:100D68000546002BDFD0DBF800203E49384605F069
:100D7800F2FB6FF0150007B0BDE8F08FDFF8E0B0C8
:100D880001AADBF80000002101F0F4F8019B0446F9
:100D9800002BC8D0DBF800203349E7E7DFF8C0B004
:100DA80001AADBF80000002101F0E4F8019B0646E7
:100DB800002BB8D0DBF800202C49D7E7631C01D101
:100DC8002B49BAE75FFA86F8C6F3C406002C3FD071
:100DD80002AB29461A46A6EB050C0CE0B8F1100F39
:100DE8001DD0B8F1200F20D0B8F1080F2AD108780B
:100DF800187031443344A64203D80CEB0100102884
:100E0800ECD9102CA14628BF4FF0100929464B46B3
:100E1800384600F087FF1035A4EB0904D6E70888A8
:100E280080B21870000A5870E3E7086818704FEA33
:100E3800102E83F801E04FEA104E000E83F802E00E
:100E4800D870D6E70B4A0821384605F05BFB90E7D7
:100E5800204690E760000020379900083E99000876
:100E6800E8080020FD980008109900082399000858
:100E78005B990008C298000870B50F4E0446337895
:100E88000D4671B123B1BDE870400C4905F063BB54
:100E9800012333700A49204605F041FB01233370D2
:100EA80004E083F001033370002BF3D12946204678
:100EB800BDE8704005F093BB550A002075990008FD
:100EC800B099000870B504463B480378182B02D146
:100ED8000B78112B31D0013A0B468D18AB4225D136
:100EE8008B5C0A780370A2F13003092B334C04D9C8
:100EF80022F02003413B052B04D823683049CA540B
:100F0800013323602368022B33D110222C4800219F
:100F180004F03CFD2B4A136803F8010B13602A4ABE
:100F28001368013313600023236022E013F8016B78
:100F3800182ED3D11E78112ED0D1234D23492A68DB
:100F4800204605F0ECFA20460021FFF795FF204BDC
:100F5800187870B91F4A2B681168042B0ADC08B18D
:100F680011602B6013F003010BD1126813681BBAD0
:100F7800136070BD086800BA41F8040B043B0120F7
:100F8800EBE75B4203F0030358BF5942022904D13F
:100F9800126813885BBA9BB2EAE70329E9D11068A3
:100FA80002681104C2F3074301F47F010B4302F402
:100FB8007F4213430360DCE7560A00208C050020BB
:100FC800580A00209805002090050020DA990008AA
:100FD800570A0020940500202DE9F84F0C462B49AC
:100FE800DFF8AC80DFF8AC90DFF8ACB000230B6022
:100FF8002A4988F8003006460B601546012C2F4612
:1010080055F804AF1ED902224946504607F017FA90
:1010180080B99AF80220003A18BF01229244204968
:101028000222504607F00BFA30B9012388F8003045
:10103800013CE3E70022F1E749465046FFF70AF989
:10104800A8B9043700221146786804F09FFC154BB4
:10105800002211461860786804F098FC124B134976
:1010680018603046FFF708FF0020BDE8F88F9AF8AF
:1010780000202D2AE6D19AF80120002AE2D0524613
:101088005946304605F04BFAD2E700BF8C050020E0
:10109800570A0020F4990008FA99000890050020E2
:1010A800F79900089805002094050020CD0E000847
:1010B80013B5094806F07DFE58B1084A064912687A
:1010C800074800240094012300F092FE204602B055
:1010D80010BD6FF01200FAE7E8870008A48D000839
:1010E800388B000810B54468C4E90012A360426850
:1010F8001346402153F8404B53625163002302F1D9
:101108003801C2E90413C2E90A33C2E906330821E7
:1011180013631162C2F8B830A36823B19B6C13B192
:10112800044920469847A3689B6A0BB12046984714
:10113800002010BD1562000810B5816804461831FA
:1011480001F0AAF9A168034A20461831BDE8104009
:1011580001F03AB9759B000838B58368D3F878323E
:10116800DB0704461AD4406803685B68984705465D
:1011780020B9E06805F0C7FFA3681D75A3685B6C1C
:1011880013B1294620469847A36807F0FBF90022C7
:10119800C3F82023034B185801F074FD6FF00F05B6
:1011A800ECE700BF08000000014905F0F9B800BFEE
:1011B80040960008F7B504468068D0F878325A0798
:1011C8000D4605D5002105F013F9E06805F06DFF1F
:1011D800E368DB6873B9002D3BD0A66806F15607B3
:1011E800384605F0EAF8002835D0394606F5AB70E0
:1011F800FFF73AF8A268E0680DF10603563229466F
:1012080005F056FF58B9A06800F5AB715630FFF7E6
:101218002BF8A068563005F0D0F8ADF80600204647
:1012280005F0D0FCA368D3F874329B0603D50B49AC
:10123800606905F0B5F8204600F002FFA268BDF825
:101248000630A2F85230A2682046A2F8503005F0C5
:101258001EFC03B0F0BD86F85601CBE7988C000859
:101268002DE9F04FA7B004465422002111A807F039
:10127800C1F80023CDE90533A3682046563302930D
:1012880005F0A7FC204605F0EBFB10B96069FFF7F5
:101298008BFFA06814220021183007F0ABF8204615
:1012A80005F084FBA168E068B1F8502056310026AB
:1012B80005F035FF204605F0C4FF4FF0FF37B24672
:1012C80003960DF14408B3463546B146DDE90532CB
:1012D800012A6DD0132B6ED85FBBBBF1000F0AD06B
:1012E800204605F0CFFFA2681423563211A90DEB52
:1012F800030005F0DAF9B9F1000F0CD099F81130B4
:10130800FE2B08D1059B26AA02EB830252F8542C27
:101318000AB101330593A068059D436A002B40F08C
:10132800B680CEB1C3699E422DD00D9600F1180546
:1013380024E0029A0223414606A805F0B6F9069968
:10134800D8F804200292034631B101290AD148B1E4
:101358006D4A204605F0EFFC6FF00705284627B0D8
:10136800BDE8F08F059B002B34D0D8F8000001F0C1
:10137800C5F898B166B1A5680D9618350CAE0FCEB4
:101388000FC533682B602046FFF7D6FE0125E5E739
:101398005E4A0121204605F0CEFCDDE7059BCBB176
:1013A800D8F800202946204601F04AFA022809D137
:1013B800059B132B91D9069B022B8ED1544B554A72
:1013C8000121C6E7032805D0059B013305934FF09B
:1013D800010B7BE7039B33B9D8F8001007AA4846EE
:1013E80005F05AFA054608F10408013F9DB3EB6879
:1013F800BBF1000F08D0F3B1204605F0EAFB204608
:1014080005F045FB444AC4E7ABB1A368DDF814A076
:10141800AE4603F1180CBEE80F00ACE80F00DEF88A
:101428000030CCF80030AB682BB96B7CFE2B04BFC6
:101438002F7C07F1FF37D5F804C0BCF1000F08D0A6
:10144800AE46BEE80F000CAE0FC6DEF800303360C3
:101458006646A94603E0059B53B101230393069B07
:1014680017B9022B7FF432AF059B013305932DE7A3
:10147800A368DB6A13B1DB68002BEED1274B00931E
:10148800274A119B0121204605F055FCE5E790F815
:101498002830A5EB0A05BBB190F829104FF6FF726A
:1014A800FF2918BF0A469D4202D313449D420BD917
:1014B80083691C4A0121204605F03DFC2046FFF7C0
:1014C8003BFE6FF0150549E7012104F086FFA0688F
:1014D80000F5437004F0A5FFA36811AA294602EBA2
:1014E8008A025B6A204698470546A0684FF0FF329B
:1014F8004FF0FF3300F5437004F03AFFA068002175
:1015080004F06BFF2AE700BF839B0008979B000845
:10151800F89B000881940008B59B0008E49B00082C
:10152800089F00081C9C000810B5836802221A75E1
:1015380083689B6C0446BBB904F0F1FE8368D3F85A
:101548007832DB040BD50321084B094A05F0F3FB7D
:10155800A0686FF4805100F51E7004F0FAFE204672
:10156800BDE8104000F0F2BE10BD00BF379C000877
:10157800699800082DE9F04F04468068B1B0012150
:1015880000F51E7004F0D6FEA3681B7D022B20D147
:1015980000230993A36860689E6C03681D6909AB02
:1015A8000EB310221BA9A847099B93B1A06801217B
:1015B80004F013FF099A1BA92046B047A068002130
:1015C80004F00BFFA3689B6C002BE3D12046FFF7C8
:1015D800ABFFA0686FF0010100F51E7031B0BDE8E7
:1015E800F04F04F0B6BE01220DF12301A847099B74
:1015F800002BEED09DF923209DF82330A068002A07
:10160800C8DB427D032A00F2F482DFE812F004000E
:1016180075028C02F2020D2B67D00A2B43D0B0F86A
:101628007822092B6FF3CA02A0F8782272D029D841
:10163800002B00F00381082BA06800F0E981024626
:10164800D2F87412890740F1F980013B162B00F299
:10165800F580DFE813F0B702FA01FE01F601B102E6
:101668001002F300F300F300F30014021802F30071
:101678002D02F3003202F300F300F300F30034020A
:10168800F30049021B2BA06841D07F2B00F0CC81CE
:10169800A3F120015E290246D2D8012104F0A8FE58
:1016A8009DF82310B8E0D0F87822C2F3C7022AB117
:1016B800D0F87822C2F3C7020A2AC0D1B0F878223B
:1016C80063F3CA02A0F87822A568B5F85010C1B92A
:1016D800284604F08DFEE06805F0E7FC6069FFF736
:1016E80063FD2046FFF720FF54E7D0F87822C2F3C5
:1016F800C702002AE2D0D0F87822C2F3C7020D2A26
:10170800DBE72046FFF7ACFDC5F82403E9E7012332
:10171800437593E0A068D0F874329B0740F18E803F
:10172800012104F065FEA068B0F85030FF2B00F0EE
:101738008580B0F8522000F1560100F5AB7006F034
:1017480031FEA368B3F852201344002583F856519C
:10175800A2681BA9142302F5AB720BA804F0A5FF1D
:101768000B9914296AD830AB03EB810343F8545C16
:10177800A368B3F85220002A52D0134493F8553086
:10178800202B02D0093B042B4AD800294BD1002535
:101798000A950A9B30AA02EB8303002653F854AC3F
:1017A800504604F00AFEB3468146B046374616AAAC
:1017B8003946284600F0A4FB0346002842D1012EF2
:1017C80068D10A9B30AA02EB830353F8540C04F047
:1017D800F4FDA268064618324146284600F090FB00
:1017E8000568284604F0E9FD864205D0821B92B2BE
:1017F800A919204605F0E6FAA068B0F8523003446B
:1018080093F85630202B34D0093B042B31D9D0F82B
:101818007432DF0732D42021204600F05FFD0DE04E
:101828000129B4D9013900200CAB009301900AAB0F
:101838001BAA05F05CF805460028AAD1606904F0E7
:10184800D4FEA7E61B6803934A465146184606F09D
:10185800F6FD60B9039B1846FEF70EFD584538BFE4
:1018680058461FFA80FB002E08BFB84601360137DC
:101878009DE70121204605F03EF9DFE7002104F04D
:10188800C1FD2021204600F029FDA068012104F0B7
:10189800B9FDD3E70490D1D90A9A30AB03EB8202A1
:1018A800C14652F8543C0393184604F086FDA268DA
:1018B800049B0590A2F840300496A2684946183265
:1018C800284600F01DFB039BD0F800A009F1010990
:1018D8004BB1BAF1000F06D0059A1946504606F0EA
:1018E800AEFD0028E9D1A168BAF1000F4ED1A1F8E8
:1018F80040A0049B013B0493DFD16069FFF754FCCF
:10190800204600F023FD0A9B30AA02EB830308F16E
:10191800010A53F8540C04F050FD414611AA8146BF
:10192800284600F0EDFA0746A0683968FF2200F55E
:10193800AB7006F096FD3B6803934FF6FF77B84609
:1019480016AA514628460AF1010B00F0D9FA0028D8
:1019580052D0A168036801F25511002211F801EF75
:10196800985C704503D110B101324245F6D1B9F106
:10197800000F01D04A4507DBBA4206F1FF36A8BF7F
:101988003A46012E97B237D0DA46D9E79A480691F7
:1019980004F013FD069907914A8F00EB0B07BFB2BD
:1019A800121A504692FBF7F292B2069204F005FD25
:1019B8000799069A3F1AB1F8400000F1010CA1F806
:1019C80040C0B0FBF2F102FB110080B2BFB260B9B7
:1019D800894B8A4ACDF800A00621204605F0ABF9CC
:1019E8003946204600F016FB83E7854A5346062110
:1019F800204605F0A0F9F3E7002F3FF41FAF039945
:101A0800A7EB090292B24944204605F0DBF915E735
:101A1800D0F874329E077FF511AF012104F0E8FC7D
:101A2800204605F0F0F909E7D0F874329D077FF5F4
:101A380005AF012104F0DCFCA368D3F87432180761
:101A4800EED4204605F0C0F9F8E6204605F0CAF8BD
:101A5800F4E6204605F0BDF8204605F001F810B977
:101A68006069FFF7A1FBA068012104F0C1FC2046D2
:101A7800FFF75AFDE2E6204605F0BDF8DEE620460F
:101A880005F0C4F8DAE6D2F874329F0603D55D494A
:101A9800606904F085FCA368D3F874329E0603D508
:101AA8005949606904F07CFC204600F04FFCC5E60B
:101AB80000212046FFF77EFBC0E60121F9E720461A
:101AC80005F080F8204604F02AFC0121A06804F003
:101AD8008FFCA368D3F874329D067FF5AFAE4B49EF
:101AE800606904F05DFCA9E6204600F023FBA068CD
:101AF800012104F07DFCA1E65B2B01D1022307E65E
:101B0800D0F87422900706D5622B08D14FF0FF3128
:101B1800204605F019F8A36800225A758EE6662B50
:101B2800F9D10121F4E700224275A268D2F87412B3
:101B380089077FF52FAD313B1B2B3FF67FAE01A107
:101B480051F823F0C91B0008D51B0008E91B000841
:101B5800BD1B00084518000845180008451800086E
:101B680045180008451800084518000845180008D9
:101B780045180008451800084518000845180008C9
:101B880045180008C31A0008B91A00087F1A000887
:101B9800531A000845180008C11B0008451800081A
:101BA800CD1B00084518000845180008451800080E
:101BB800D91B000803235375204605F00AF83DE6B3
:101BC80003235375204604F0FDFF37E603235375BE
:101BD800A068D0F8741201F0010181F0010156E605
:101BE80003235375A368D3F874329B077FF526AE99
:101BF80027E700238CE500BF479E00087B9C000870
:101C0800699800089D8C0008A28C0008988C000830
:101C1800F8B504468068154600F51E70002935D0D1
:101C28004FF4804104F086FBA368DD6460680368B4
:101C380000219B68984700284AD1204604F0F3FB0E
:101C4800002845D1234E244FA06800F52F704FF08F
:101C5800FF324FF0FF33032103F090FC0546A068E4
:101C6800CDB14FF4FA72002300F5437004F080FB05
:101C780070BB20462B46194A012105F05CF8A06884
:101C8800BDE8F84000F5437004F0CBBB6FF4804129
:101C980004F05FFBC8E74FF0FF334FF0FF3200F569
:101CA800437004F065FB32460221204604F062FBD3
:101CB80020463A46294604F05DFB606803685B6984
:101CC80003B19847A06800F5437004F0AAFBBBE78E
:101CD800F8BD00BF611100087D150008819C00084F
:101CE80010B50B49044604F01AFC2046094904F0D3
:101CF80016FC2046084904F012FC2046074904F067
:101D08000EFC2046064A002100F05EFB002010BDB4
:101D1800989C0008D69C0008359D0008899D0008FD
:101D2800239E0008F8B517461E460A462949044668
:101D380004F0F5FB3EB33A782749204604F0EFFB60
:101D480001256A0703D12549204604F0E8FBAE4285
:101D58001ED97A5D2049204604F0E1FB0135102D9B
:101D6800EFD11F49204604F0DAFBB6B91B492046DB
:101D780004F0D5FB0125AE422B4610D81749204662
:101D880004F0CDFB15E01749204604F0C8FB0125F7
:101D98001449204604F0C3FBE0E700252B46FA5C13
:101DA8001149A2F120035F2B28BF2E22204604F000
:101DB800B6FB0135102D06D06B07DCD1074920464C
:101DC80004F0ADFBD7E720460849BDE8F84004F029
:101DD800A6BB00BF399E0008409E0008489E000828
:101DE8004A9E0008469E00086C9E00084C9E00080B
:101DF8002DE9F043044680688846D0F8201389B05E
:101E080015461F46002960D14FF44A7206F0F2FACF
:101E1800E06805F0FCF9A06800F5437006F00DF8DD
:101E28004FF42F794FF41F76A068304406F088FAF3
:101E3800A0680022831901214844103606F052FA9E
:101E4800B6F52F7F09F11409EED1A36900261E60AB
:101E5800A068022100F51E7004F06CFAA3685022F5
:101E68005A87A36818221A872168204604F081FB44
:101E7800A368174A66F38205C3F87452606803685A
:101E880041461D682346A8470546D0B9A3680122E4
:101E98001A75D4E9090100220023CDE906230E238F
:101EA8000393109B0495CDE901730094094B4FF4FB
:101EB800006202F0EDFCA368C3F82003216A02F077
:101EC80019FC284609B0BDE8F0836FF07705F8E7FC
:101ED800CF630008191C000810B5044613460A46CB
:101EE8000146064801F048F923691B7923B12046C9
:101EF800BDE8104004F079BB10BD00BF0B660008B8
:101F080038B50B46154648B91449154A521AB3EB69
:101F1800920F05D251F82350284638BD84680CB971
:101F28000025F9E70F4A94420AD30F4A944207D290
:101F380018462268294690472B68002BECD1EFE71A
:101F48000A4A944202D30A4A944205D324681422C6
:101F58005343E518E358F0E70133F8E7648B0008CA
:101F6800948B0008988C0008988C0008948B0008C3
:101F7800988C0008F7B503782D2B0446164605D132
:101F88006FF015033360002003B0F0BD06F0FAFAD5
:101F98000B4F00230546C3510A46204601A903F00A
:101FA800F5FCEB59222B02D16FF02103EAE7002B55
:101FB800E6D1019BA342E3D01B78002BE4D0DFE7F6
:101FC8000C0000008368D3F874329B0603D50249DD
:101FD800406904F026BD7047A88C0008014904F048
:101FE80020BD00BF409600080A1E0DDC0ED042231B
:101FF8008168D1F87412890608D5002A0449406915
:10200800B8BF524204F00DBD4123F1E7704700BF4D
:10201800689E00080A1E0DDC0ED044238168D1F8A2
:102028007412890608D5002A04494069B8BF52428B
:1020380004F0F7BC4323F1E7704700BF689E00082F
:102048002DE9F0478568DFF86890044605F15600E9
:10205800FEF712F9002395F83C7086B29846A268FC
:10206800558FED1BB54209DB002E1FDD5633606925
:102078001049BDE8F0471A4404F0D3BC1D442A4473
:10208800563392F856A082F85680A26860691A44BE
:10209800494604F0C6FCA3682B4483F856A0A368FD
:1020A8005B8FDB1BF61A00272B46D8E7BDE8F087C5
:1020B800819400086998000808290A4617D8836897
:1020C80093F83E10914212D083F83E208368082A84
:1020D800D3F8743205D0990609D50549406904F04A
:1020E800A0BC9B0603D50349406904F09ABC70471D
:1020F8006F9E0008AD8C000838B50D460978044677
:10210800FFF7DAFF6A78072A11D8A36893F83F1017
:1021180091420CD083F83F20A368D3F874329B0611
:1021280005D560690249BDE8384004F07ABC38BD7D
:10213800789E0008F8B58368B3F850200446002A52
:1021480055D0B3F85210002951D0553103F1560536
:102158000B441846A84206D3014611F80169202EFF
:102168003CD0A8423CD286B29DB2AB1B9BB2591C54
:10217800471CD21A0144384606F022F9A268B2F880
:102188005030711B13FA81F3A2F85030A368B3F8EA
:1021980050201344002283F8562009B2204604F048
:1021A800AAFCA368D3F874329A0603D5104960696B
:1021B80004F037FC3B460F4A0821204604F0BBFDDB
:1021C8002046FFF7FFFEA368D3F874329B060ED5AE
:1021D80060690949BDE8F84004F023BC0846B9E73E
:1021E800014611F80169202EBDD00846B9E7F8BDAF
:1021F800B28C000869980008B68C00082DE9F84FE1
:1022080004460F4690460AB1FFF7DCFEA668D6F8EA
:102218007432B6F852505B0724D505F156003044A5
:10222800FEF72AF82A4E0546B5B9A368B3F8502038
:10223800A3F85220A06804F001FC30B1B8F1000FF7
:1022480000D017B16069FFF7C9FE7942204609B28C
:10225800BDE8F84F04F04FBC6069314604F0E1FB7B
:10226800013DE1E73046FEF707F8B6F85090738F66
:1022780019FA80F915FA80F0B0FBF3F2B9FBF3F321
:102288009A42AA461BD0134DA3684845CDDA5A8F07
:10229800B0FBF2F302FB1303461C13B96069FFF7A6
:1022A8009DFEA3685344204693F856300AF1010B6B
:1022B8002A46082104F03FFDDA463046E4E7563561
:1022C800054A73190821204604F035FDADE700BF23
:1022D8005EA600086C9E00086998000813B583681C
:1022E8008DF80710D3F874220446D00725D5B3F823
:1022F8005210B3F850208A421FD0481CA3F852004D
:102308000B449DF8072083F85620A368D3F874126D
:10231800890710D5D3F8743260690B4913F0040F9C
:1023280018BF2A2204F07DFB204604F099FB10B167
:102338006069FFF753FE02B010BD01220DF10701DD
:10234800204604F005FDF6E76C9E000810B504462B
:102358008368094A022104F0EEFCA368D3F87432BA
:102368009B0707D52046FFF76BFE2046BDE81040C7
:1023780004F09CBB10BD00BF69980008014904F037
:102388006ABD00BF40960008F8B50F46516804467C
:1023980015461E4611B11A4604F06AFDAB6883B1B2
:1023A80031462046FFF736FE2046064A3B460821BE
:1023B80004F0C1FCA968F21D2046BDE8F84004F00D
:1023C80057BDF8BD819E00082DE9F04F0F4600214A
:1023D80089B0044616460D4603AA384601F101089D
:1023E800FFF78EFDA8B98DB126B1324608212046E7
:1023F80004F0A1FCDFF89090DFF890B0002103AA68
:10240800384601F1010AFFF77BFD60B909B0BDE864
:10241800F08F006810B1FDF72FFF80B2854238BFFA
:1024280005464146D8E7D0F80080B8F1000F0FD034
:1024380098F8003063B14668154ACDE900584B4614
:102448000821204604F077FC26B96069FFF796FF5B
:102458005146D4E74B465A460821204604F06BFC07
:10246800AB1DB2079BB209D131680A4A914205D126
:10247800324641462046FFF787FFE9E71A463146CC
:10248800204604F0F5FCE3E7A69E0008939E0008AA
:102498008C9E0008C40BD286F7B50F6805460E4619
:1024A800EFB13846FDF7E8FE84B2114B00930821DE
:1024B8003B46104A284604F03EFC7168E31C9BB278
:1024C80079B18A070DD108680B4A904209D10A46AA
:1024D8003168284603B0BDE8F040FFF755BF3C46D9
:1024E800E3E71A46284603B0BDE8F04004F0C0BC54
:1024F800A29E00087C9C0008C40BD28610B5074930
:102508000446FDF7A7FE38B105492046FDF7A2FEAF
:10251800B0FA80F0400910BD0120FCE7989E000841
:102528009B9E000810B58368D3F874329B06044656
:1025380003D50649406904F00BFDA36850225A8769
:10254800A36818221A87002010BD00BFBA8C0008A3
:1025580008B5836902491A6803F0E1FF002008BD45
:10256800A99E00082DE9F3410D490E4C0E4EDFF8E7
:102578003C80054603F0D3FF0022B44202F1010774
:1025880003D3002002B0BDE8F081236A0093A3685A
:1025980092B24146284603F0C2FF2C343A46ECE793
:1025A800B99E0008388B0008648B0008D19E00088B
:1025B80008B5024903F0DDFF002008BD4196000878
:1025C80073B50E4E04460025A268E0680DF10603B7
:1025D80002F5AB72012104F06BFDBDF80600A3689B
:1025E80040B12A4603F5AB733146204603F097FF06
:1025F8000135E9E783F8560102B070BDE29E000894
:1026080010B5044603F0E3FF03490246204603F0F1
:1026180086FF002010BD00BFF0990008022907B509
:102628000BD15368009312680B4B0C4903F093FFCE
:102638006FF0150003B05DF804FB8368084AD3F80F
:102648007432084913F0020F074B18BF1A4603F0FB
:1026580066FF0020EEE700BFF09E0008059F000817
:10266800EC9E00080E9F0008E193000810B58368EF
:10267800D3F874329A06044603D50749406904F032
:1026880067FCA368D3F874329B0603D503496069D5
:1026980004F05EFC002010BDC18C0008C68C000848
:1026A800F0B5012985B004460AD053680093126832
:1026B8005D4B5E4903F04FFF6FF0150005B0F0BDAC
:1026C8008368D3F87432990603D55949406904F0F0
:1026D8003FFC6FF0F9012046FFF786FCFA212046FF
:1026E800FFF798FCA06800254FF48072294600F592
:1026F800AB708DF80B5005F07DFE4E49606904F013
:1027080027FC606903F071FF4FF47A76606803680C
:1027180001221F690DF10B0103ABB847039BEBB90D
:10272800013E4FF47A70B6B205F034FB002EEDD1BD
:10273800A368D3F874329B0603D53F49606904F057
:1027480007FCA3683D4950225A87A36818222046EF
:102758001A8703F0F2FE6FF00700AFE79DF80B2031
:10276800A3681B2A53D093F856111B29CED1522A9D
:102778004DD15A19002382F85631A66896F8572188
:102788005B2A2BD106F25710022510F8011F2A46A2
:102798003B2905F10105ADB223D1FF2AC8D002F5C6
:1027A800AB7216FA82F1002211F8010F18BB86F8F5
:1027B8005601FA2AA16828BFFA224A87FA2BA2688A
:1027C80028BFFA231387A368D3F874329A0603D56F
:1027D8001949606904F0BCFB00206FE786F85631A0
:1027E800A6E703EB8303303901EB4301B5F5807F9E
:1027F8008BB2CAD19CE7013502EB8202ADB2303808
:1028080000EB4200B5F5807F82B2CDD190E72B4432
:102818000135ADB2092D83F856217FF677AFA3684D
:10282800002283F8562183E7F09E0008059F0008E0
:10283800CC8C0008599F0008D08C00081F9F000806
:102848002DE9F04F074689B01546894621B1104653
:1028580004F0E3FC00285BD1032455E05C463CE02F
:1028680029460AF5AB7005F018FE0646002854D034
:10287800FDF702FD82B2601C01323146304405F09A
:102888009FFD22465946304605F08CFD4FF0200347
:102898003355BAF8543001331C44AAF8544008F1AF
:1028A8000108002401994B1C03AA48460193FFF72D
:1028B80027FB0646E8B131680022284604F072FE7C
:1028C8000028EFD1D6F800B0D7F808A0BBF1000F68
:1028D800C4D05846FDF7D0FC84B2BAF8543023442B
:1028E800FF2BBDDD0E4A2B460321384604F023FAA0
:1028F8000124B8F1000F07D0B8682A4600F1540146
:1029080000F5AB7003F0A1FF204609B0BDE8F08FD9
:102918004FF0000841460224C5E70224E9E700BF5A
:1029280021A4000830BFFFF7FDBF00BF2DE9F0412B
:102938000B4EDFF8308006EB0807CC1B0546324605
:102948000949204605F02EFDA01942460021083C01
:1029580005F050FDC5F8A84007F10800BDE8F08172
:102968000000000008000000988C0008054B5A6918
:102978009B689A421FBF044A536843F080535360D0
:10298800704700BF1C0A002000ED00E070B5264B20
:1029980015469A6A12F0100F9A6A14BF112410246F
:1029A80012F0080F9A6A18BF1224920706460AD531
:1029B800586B9A6A140634D519B19A6A22F08002C3
:1029C8009A62132401E06FF01500174B9A6A12F00F
:1029D800010F9A6A18BF142412F0200F9A6A18BFC0
:1029E8001524D20602D49B6A9B070AD50E4B5B6856
:1029F800190506D5314600F00BFA10B180F30988A5
:102A08000224094B9A6A920642BF5A6A22F400527B
:102A18005A629A6A42F0FF029A6200232B7020469B
:102A280070BD6FF01500CCE700ED00E0134B9A6A1B
:102A380012F0007F9A6A14BF1E201D2012F0807FBA
:102A48009A6A18BF1F2012F4002F9A6A18BF212013
:102A580012F4802F9A6A18BF222012F4003F9A6A53
:102A680018BF232012F4803F9A6A6FEA02426FEA85
:102A780012429A6218BF2420704700BF00ED00E0A0
:102A880010B5194B0246986A9C6A10F4805F14BF0F
:102A98001720162014F4006F9C6A18BF1820A4058C
:102AA80009D5986B986A000404D51AB19A6A22F479
:102AB80000429A6219200C4B9A6A12F4806F9A6A43
:102AC80018BF1A20D2050CD49B6A13F4005F18BFF4
:102AD8001C20054A936A43F47F43936200230B70DA
:102AE80010BD1B20F5E700BF00ED00E0F0B5484B36
:102AF8005B688BB00446C3F30803002585F311888F
:102B0800BFF36F8F02F07F40B0F17F4F11D102F019
:102B18000C0008280DD010074CBF0C4601250022D8
:102B2800033B8DF80720032B05D8DFE803F0246367
:102B380067602C46F3E700239DF80720CAB902AE68
:102B480004F1200720686168324603C20834BC4299
:102B58001646F7D1099A002D54D0C2F3080121B9BD
:102B68006FEA52226FEA4222099202A9184604F03B
:102B780099FB0BB0F0BD264BDA6A9107DBD4DA6A11
:102B8800002AD8DBDA6A5200D5D55A69A16942F41D
:102B980080725A61BFF34F8FBFF36F8F5A6931F854
:102BA800021C22F480725A61BFF34F8FBFF36F8FFC
:102BB8004DF6027291420AD09A6AD2B24AB10DF128
:102BC800070201212046FFF7E1FE0346B4E7236828
:102BD800B2E79A6A12F47F4F05D00DF10701012080
:102BE800FFF74EFFF1E79B6AB3F5803FA3D3FFF7EA
:102BF8001DFFEAE70DF107020021E3E70DF10701E8
:102C08000020EDE722F4FF7222F00102ACE700BFDA
:102C180000ED00E0044B5A6942F010025A615A690B
:102C280022F008025A61704700ED00E0EFF30880D7
:102C3800EFF3098101B57246FFF758FF01BD00BFE8
:102C48000E4880F30888102080F311880C484FF054
:102C5800AA014FF4046205F0D9F809484FF4046159
:102C6800401880F30988EFF314800221084380F3A9
:102C78001488BFF36F8F00F093F8000080200020C5
:102C8800C0120020084B9B6883420BD1EFF30583E9
:102C980043B1064B5A6842F080525A605A6A22F48D
:102CA80000425A6202F054B91C0A002000ED00E00C
:102CB80015498A684FF030001044EFF3098C80E81A
:102CC800F01F102080F31288BFF36F8F0F4F4FF063
:102CD80000664A698A603E60D2F8A8000C4C206001
:102CE800D2F8AC000023C2F8AC3080F3118804B5E8
:102CF800104600F0F5F8BDE8044002F1300090E815
:102D0800F01F8CF3098870471C0A002004ED00E0CE
:102D1800C80800201EF0040F0CBFEFF30880EFF383
:102D28000980816911F8021C0229FFD001B5724699
:102D380004F0BEFA01BD00BF40B2002807DB044A18
:102D48004109012300F01F00834042F821307047F9
:102D580000E100E040B20028A8BF00F1604001F1A6
:102D68000101B8BF064B4FEA0111ACBF00F5614045
:102D780000F00F00C9B2B4BF195480F800137047AF
:102D880014ED00E0044B054A23F07F039360BFF382
:102D98004F8FBFF36F8F70470000000800ED00E011
:102DA80008B5FFF7EFFF0B4AD2F8883023F4700319
:102DB800C2F88830EFF3148323F0040383F31488F4
:102DC800BFF36F8F01F0E4FA02F056FA00F05EF8F4
:102DD80001F026FB00ED00E042F8203C009B42F8A1
:102DE8001C3C0A49019B42F8183C029B42F8143CDF
:102DF80021F001014FF0807342F8043C42F8081CAE
:102E08000023203A0265C0F8AC307047DD060008A0
:102E18000A4A0346906878B113F1160FD0F8980063
:102E280005D0A0F140029A4205D8834203D28142DC
:102E380028BF002070470020704700BF1C0A0020F0
:102E480008B515460C4A0D4B9060D0F8A8201A60BA
:102E58000E4600F045F82C4686F309880020044BFE
:102E680098472046002100220023024C20470000FA
:102E7800D7720008DD0600081C0A0020C8080020D8
:102E8800014B10221A61704700ED00E0044800234E
:102E98001021C2180133522B82F80013F9D1704760
:102EA80000E100E008B5EFF30583064A103B02EBAA
:102EB800C30152F8330049688847BDE80840FFF766
:102EC80055BD00BF0C880008024B034A0348012186
:102ED80000F078B80080012000000020B0900008C1
:102EE800D0F89820054B403A1A60054A4021C3E9BA
:102EF80001121846012100F06FB800BFCC0800206D
:102F080000000B15084AC2F898000B6823F01F034D
:102F1800034343F01003C2F89C308B6843F001036D
:102F2800C2F8A030704700BF00ED00E02DE9F04383
:102F3800DFF8608085B00E461F4604464FF0000952
:102F4800B14523DA6068D8B13FB1411E08421BD1B0
:102F58001F2819D92368194216D12368019304F050
:102F6800CAF9A36803430393D8F89050C5F307251B
:102F7800D0B2013DA84207D801A9FFF7C3FF421C00
:102F880009F101090C34DBE76FF01502104605B0B2
:102F9800BDE8F08300ED00E0044B0522C3F894205F
:102FA800BFF34F8FBFF36F8F704700BF00ED00E096
:102FB800BFF35F8F024B0022C3F89420704700BF15
:102FC80000ED00E010B5034C01232278FFF7AEFFB7
:102FD800207010BD780A002008B50B4A002312782B
:102FE800FFF7A4FF10F1160F07D0084A0021D2F806
:102FF8009030C3F30723984200DB08BDC2F898005D
:10300800C2F8A0100130F2E7780A002000ED00E0D5
:103018002DE9F043534B544CD3F890302568C3F353
:1030280007239D4285B000F29A80FFF7C1FF002078
:103038000C2685421AD14D4C4D4F25706846FDF738
:10304800C9FBDFF82081DFF82C9106460025AE4247
:1030580013D1237843490020D1F89020C2F30722E6
:10306800934276DBFFF798FF002042E0616806FB99
:103078000011FFF747FF0130DBE7009800EB05116F
:103088004FEA051CCB683B40B3F5000F48D00AD87F
:10309800B3F5001F30D0B3F5800F36D0B3F5801FDD
:1030A80010D00135D3E7B3F1807F42D0B3F1007F70
:1030B800F7D150F80C3088684A6804F01CF940F4DD
:1030C800802009E050F80C3088684A6804F013F949
:1030D80040F0885040F43020CDE901230390D8F81F
:1030E80090302078C3F30723013B98422AD96FF028
:1030F800150005B0BDE8F08350F80C3088684A68C0
:1031080004F0F9F840EA0900E6E750F80C3088685E
:103118004A6804F0F0F840F0C06040F40030DBE7A3
:1031280050F80C3088684A6804F0E5F840F082707E
:10313800D2E750F80C3088684A6804F0DCF840F0B0
:103148008870C9E701A9FFF7DDFE237801332370F2
:10315800A7E7C1F89830C1F8A00001337CE74FF029
:10316800FF30C6E700ED00E0BC900008780A0020B8
:103178000000F0FF00000811F0B587B007460E46C2
:1031880014460021102268461D4605F033F9022333
:103198008DF802302A46054B019321466846CDE951
:1031A800047602F059FC07B0F0BD00BF1F73000899
:1031B80008B5024B1B689847002008BDD8080020B6
:1031C800034B044A1860937843F0020393707047E6
:1031D800D80800203800002008B50649064821F024
:1031E8000701C1F1005202F5C03202F0CEFE002004
:1031F80008BD00BF07270020DC08002008B500F044
:10320800B7F80A4941610A490122C0E900220A6067
:1032180008490A60084A00231360084A03611360DA
:10322800C0E90233064A136008BD00BF4196000892
:103238006400002060000020F0080020EC08002056
:10324800E80800202DE9F04107460E46154600F033
:103258008FF8C36804461BB943691A78002A41D11C
:103268000023E3606368BB4256F8232008DB324B37
:103278006361204600F062F84FF0FF30BDE8F0814E
:10328800511C616192F80080B8F12D0FEFD1911CAB
:1032980061615178A1602D2904D192786AB901330E
:1032A8006360E4E749B9244B63614146284605F069
:1032B800B9F80028DDD0C4F80880D4F8088028467A
:1032C800414605F0AFF8B8F13A0F636900D070B91C
:1032D8001B7813B9636801336360204600F02EF849
:1032E8003F20CBE75A1C42611B788360E5E74278B0
:1032F8003A2A0BD0002222611B7813B96368013384
:103308006360204600F01AF8A068B7E7187862688A
:10331800094928B901329742626004DD56F8223023
:10332800C4E90431EAE761612D783A2D2046D5D108
:1033380000F004F82846A1E741960008074B026808
:103348001A60074B42681A60064B82681A60064B7F
:10335800C2681A60054B02691A6070476400002051
:1033680060000020F0080020EC080020E808002099
:1033780000487047480000202DE9F0410F4E104FDB
:10338800054600244FF001082A781319DBB208FA21
:1033980003F0736930EA030309D152FA84F37061C8
:1033A80057F833201AB107EBC303596890476A7876
:1033B8000134E3B29A42E7D2BDE8F081000401404B
:1033C800F4080020044B184400230133994200F804
:1033D800012BFADC704700BFB000002007B50622B9
:1033E80001210020FFF7EEFF002211460620FFF71B
:1033F800B1FC012108460722FFF7E4FF002211462D
:103408000720FFF7A7FC082201210220FFF7DAFFB7
:10341800002211460820FFF79DFC09220121032004
:10342800FFF7D0FF002211460920FFF793FC0A227C
:1034380001210420FFF7C6FF002211460A20FFF7EA
:1034480089FC052108461722FFF7BCFF0022114618
:103458001720FFF77FFC282206210A20FFF7B2FF7A
:10346800002211462820FFF775FC01230748602237
:10347800CDE9002383681B6823B16946984703B0E8
:103488005DF804FB6FF05700F9E700BF38860008C5
:10349800034660B1B0FA80F2C2F11F02D2B2054908
:1034A8008856054A11680B431360FFF745BCFF2295
:1034B800F5E700BFB000002000040140024A13688D
:1034C80023EA00031360704700040140032921D850
:1034D800DFE801F0020C10190F4B9A6822EA00028B
:1034E8009A60DA6822EA0002DA6070470A4B9A6842
:1034F8000243F5E7084BDA680243DA609A6822EA81
:1035080000029A607047044B9A6802439A60DA682E
:103518001043D860704700BF0004014030B5B0B117
:10352800B0FA80F3C3F11F03DBB20B4850F8334005
:103538008C4204D100EBC3056D68954205D044B9AF
:1035480040F8331000EBC3004260002030BDFF2379
:10355800EBE76FF00F00F9E7F408002060B1B0FA6C
:1035680080F3C3F11F03DBB2044A002142F8331091
:1035780002EBC30251607047FF23F5E7F40800200F
:1035880000F00302043292000F23934043EA9000B4
:1035980000F003030233064A52F82320030C02EA20
:1035A800104093FAA3F3B3FA83F3D840704700BFEF
:1035B80000000140024B1868C0F38020704700BF2C
:1035C8000010024038B50888314B1446C0F30B028E
:1035D800072A1B680D4602D00A2A20D812B96FF0B4
:1035E80085002CE0501E0928F9D801A252F820F0D5
:1035F8003B36000885360008213600087136000879
:10360800E735000875360008E73500084936000830
:1036180059360008653600084FF4FA4309E002F607
:10362800B870C0F30B001828D9D81A4AC240D2077C
:10363800D5D523602A68B2F5805F22D2002038BD34
:1036480000F0F0F8142343430722B3FBF2F3F0E74A
:1036580000F0E8F8142343435B08EAE700F0E2F8D7
:10366800142343439B08E4E70B4BE2E70B4B0C4A5C
:103678001B68C3F3031352F82330DAE74FF400430F
:10368800D7E7C2F313320132B3FBF2F32360D5E775
:1036980098000020110111010024F40000100240DC
:1036A80004930008F8B55B4F5B4C00F0D1F838463E
:1036B80004F026F800F02EFDA368584AC3F303135C
:1036C8001578D35C47FA05F520FA03F6AE4202D224
:1036D800284600F06DFDFFF76DFF012807D023682D
:1036E80043F480732360FFF765FF0128FBD123684B
:1036F80043F008032360236823F0F00343F0B0038A
:103708002360236843F004032360636823F47F4342
:10371800636023689A0706D4236843F00103236093
:1037280023689B07FCD5D4F8943043F00103C4F810
:103738009430D4F894309807FBD5FCF7EFFFD4F811
:10374800903043F00103C4F89030D4F890309907D2
:10375800FBD5FDF701F8A36803F00C030C2B1AD175
:10376800FFF728FF012807D0236843F480732360FC
:10377800FFF720FF0128FBD1A36823F0030343F0E0
:103788000103A360A36803F00C03042BFAD1A36818
:1037980023F0F003A360236823F080732360236879
:1037A8009A01FCD4E36823F40033E360E36843F44C
:1037B8008033E360E36823F4C003E360E36843F421
:1037C8008013E36000F032F8236843F080732360CD
:1037D80023689B01FCD5A36823F0F003A360A368CA
:1037E80043F00303A360A36803F00C030C2BFAD186
:1037F800AE4202D3284600F0DBFC094B1F60A368E9
:1038080023F4E063A360A36823F46053A36000205B
:10381800F8BD00BF00B4C40400100240B6A50008FB
:1038280098000020004870470024F400054B064922
:10383800DA681140054A0A43DA60DA6842F08072B1
:10384800DA607047001002408C80FFF90214000211
:10385800064B9A6D42F080529A659B6D82B003F0D8
:1038680080530193019B02B0704700BF00100240D3
:1038780008B5074804F09DFA38B10648FFF7A0FCE0
:103888000448FCF709FF002008BD6FF01200FBE7B1
:10389800E8870008A13800080A2838B5074D04460B
:1038A80004D1AB680D215B6828469847AB6803488C
:1038B8005B68E1B29847204638BD00BFE88700083A
:1038C8002DE9F843D0F80480D0F81090D8F8080013
:1038D80017460D461E4603F068FEB7F5001F04465E
:1038E80016D12846D8F80840FFF74AFE84420CD182
:1038F800294603F05AFE0446FFF7E0FD2046FFF78D
:103908002DFE00212046FFF7E1FD0020BDE8F883E9
:10391800B7F5800F20D0B6F1806F19D0B6F1C06F1F
:1039280018D0B6F1007F1AD1022610494A4620461F
:10393800FFF7F4FDB0B9D8F80810284603F038FEB0
:1039480020463146FFF7C2FD2046FFF7A1FDDCE720
:103958000126EAE70326E8E76FF08500D6E76FF06F
:103968001500D3E76FF00F00D0E700BF8779000894
:1039780038B50369044658600C4D284604F019FA16
:1039880088B10B4A536843F400735360AB686168AD
:103998001B680C3123B12846984700EAE07038BD0F
:1039A8006FF05700F9E76FF01200F8E73886000863
:1039B800007000402DE9F0471E4F044600EBC10699
:1039C8000025B44201D1002014E02068C30600F0AD
:1039D8001F0911D4656845F02005C0F3481AC0F3E3
:1039E8004420102823D857F82080B8F1000F0DD1B3
:1039F8006FF01200BDE8F087B9F1100F04D0B9F1EB
:103A0800110FEAD16568E8E73025E6E7404604F09B
:103A1800D0F90028ECD04B462A460AF00F01404660
:103A280003F0C3FF002804F10804CADAE2E76FF0E4
:103A38001500DFE7F491000843681B6803F10802EA
:103A480052E8002F42F0010203F1080040E800218B
:103A58000029F3D10F4A93420FD0A2F57442934242
:103A68000BD002F58062934207D002F58062934240
:103A780003D002F58062934203D15A6842F04002B3
:103A88005A6053E8002F42F4807243E8002100296D
:103A9800F7D170470038014043681B6803F10802FA
:103AA80052E8002F22F0010203F1080040E800214B
:103AB8000029F3D10F4A93420FD0A2F574429342E2
:103AC8000BD002F58062934207D002F580629342E0
:103AD80003D002F58062934203D15A6822F0400273
:103AE8005A6053E8002F22F4807243E8002100292D
:103AF800F7D1704700380140F8B503690C465D6896
:103B080023794168012B16D09F1E7E427E41B60262
:103B18006279022A9CBF454F37F81270A27988BF94
:103B28004FF40057022A09D0042A2FD0003B18BFAF
:103B380001231B0306E04FF4C066E9E7B3FA83F3F9
:103B48005B091B07E2790968012A14BF4FF0000CD2
:103B58004FF4407CA5421CD10A6822F0805222F41E
:103B6800B05232431A430A604B6823F440533B4334
:103B78004B6043681A68936823F4407343EA0C0364
:103B880093602968BDE8F84003F06FBF4FF4805395
:103B9800D8E7D1F800E00EF4C06E76451FBFD1F823
:103BA80000E02EF4C06E4EEA06060E6041680E680C
:103BB800716801F440518F421FBF716821F4405170
:103BC8003943716041680E68316801F010218B42F9
:103BD8001FBF316821F010210B4333604368196817
:103BE8008B6803F440739C451FBF8B6823F44073B4
:103BF80043EA0C038B6043681B689968490405D540
:103C0800032A09D09A6822F4804204E0032A03D1E7
:103C18009A6842F480429A6021682B68994203D0DE
:103C280003F023FF23682B60F8BD00BF98930008BA
:103C38002DE9F3410469476806465148206004F0BD
:103C4800B8F820B96FF0120002B0BDE8F081206822
:103C5800F96883681B68002B00F08C80984700285F
:103C6800F2DB386A01AA002103F0B4FE0028EBDB7E
:103C7800019B002219791868FFF79CFE0028E3DBF6
:103C8800756833692C68D3F80480236823F001032E
:103C98002360686804F08DF80028D3D0D5E90101C5
:103CA8008368DB6803B1984754E8003F43F00C038E
:103CB80044E80032002AF7D141463046FFF71CFF9E
:103CC8002B7D1BB1A36843F00803A3606B7D1BB178
:103CD800636843F400436360AB7D1BB1636843F4DE
:103CE80080336360EB7D1BB1636843F4003363602A
:103CF8002B7E83B3234B9C4213D0A3F574439C4281
:103D08000FD003F580639C420BD003F580639C427F
:103D180007D003F580639C4203D003F540539C42CF
:103D28002BD173681A68936843F4804393602368BF
:103D38006A7E23F0787343EA425323602368AA7E9D
:103D480023F4F81343EA02432360EB7E1BB1A36814
:103D580043F40043A360236843F001032360E3694D
:103D68009A02FCD5E3695B02FCD530467B6A98472A
:103D7800002069E76FF0570066E76FF0150063E70A
:103D88003886000800380140F8B5436891F805E026
:103D98001C680369024608795D688B7901280E461C
:103DA8001CD1BEF1020F68D9022B1F464FF4C06127
:103DB8004FF4005C79D0042B72D020B1C31E012BC4
:103DC80070D94FF48050BCF5805F78D0BCF5405F67
:103DD80077D0BCF1000F1CD101231BE002280AD1C7
:103DE800BEF1020F55D9022B1F464FF480610BD04C
:103DF8004FF4005CDFE7BEF1020F4DD9022B1F46DE
:103E08004CD1002857D00021C31E012B4AD90020CD
:103E180002270323734545D103F042FEB84241D13E
:103E2800F379C3B1012B4ED1284B9C4213D0A3F593
:103E380074439C420FD003F580639C420BD003F57A
:103E480080639C4207D003F580639C4203D003F54E
:103E580040539C4226D1236823F001032360314656
:103E68001046FFF749FE236843F00103236096E8F4
:103E7800030085E803000020F8BD4FF4C061144F2B
:103E8800022B37F81EC01F4695D170B94FF08050ED
:103E980099E74FF48061F2E70021F0E70021A7E7F6
:103EA80000288ED06FF08500E6E7C31E012BF9D9F4
:103EB8000227002087E701464FF08050A9E700233A
:103EC800A8E70223A6E7032BAED0EBE700380140B2
:103ED8009893000810B54FF0E0230F499C691A69C0
:103EE80008689B690D4902F4803234B993B90346D6
:103EF8004AB90A681044C01A10BD002B08BF03460F
:103F08000AB9A342F5D90A6802440A604FF0E022D0
:103F18001269EEE70446F3E7180A0020140A0020A5
:103F28000A4B102283F82320094B4FF4FA521A60E7
:103F3800084B002018604FF0E02341F63F725A61A9
:103F480098611A6942F007021A61704700ED00E0B3
:103F5800180A0020140A0020684620F007018D4640
:103F680019B5FFF7B7FF114B1149D3E900420868AB
:103F7800001942F10002C3E900020E4A00230B6057
:103F8800D2E900414FF4FA53001BB0FBF3F043436E
:103F98001B1941F10001C2E9003101F047FAFEF7AF
:103FA800E5FCBDE819408546704700BF6002002067
:103FB800140A0020580200202DE9F041DFF8DC80C7
:103FC80099B1421C0BD14FF0E022136923F0010391
:103FD80013614FF07F43C8F80030BDE8F081D8F88E
:103FE8000060012807DC00270BE0431CD8F80060BC
:103FF800F7D14FF4036040F631039842A8BF184642
:10400800471EEFF31185102383F31288BFF36F8FD8
:10401800FFF760FF224C4FF0E0239969D4E90023B1
:10402800801843F10003C4E900031E4B00221A6004
:104038001D4B1A68831A2ED44FF4FA5C0CFB073315
:1040480003F5F9531F33B3FBFCF7131A0CFB0733C3
:10405800B3F5806F154A38BF4FF48063934228BF89
:1040680013464FF0E022C8F80030013B90695361D5
:10407800002393618142A1EB0003D4E9001238BF09
:104088009B195B1842F10002C4E9003285F31188DC
:10409800BFF36F8FA1E74FF48063E2E7180A0020AF
:1040A80060020020140A00205802002000DCFF00F3
:1040B80038B5EFF31185102383F31288BFF36F8FA0
:1040C800084B1C68084B1B68E41AFFF703FF85F3CD
:1040D8001188BFF36F8F4FF4FA532044B0FBF3F00D
:1040E80038BD00BF600200205802002038B5EFF349
:1040F8001185102383F31288BFF36F8F044B1C685C
:10410800FFF7E8FE85F31188BFF36F8F204438BDB1
:1041180060020020224B9A68D96812F00C0205D080
:104128000C2A15D101F00301012918D119681D487D
:10413800090755BFD3F894101968C1F30321C1F3D7
:10414800031150F8210012B10C2A09D00020704741
:10415800042A22D0082A144818BF002070470020DB
:10416800DA6802F00302022A15D00F49032A08BFB1
:104178000846D968DA68C2F306224243D868C0F311
:104188004160C1F30211013001314000B2FBF1F28C
:10419800B2FBF0F070470548EBE70448704700BFF2
:1041A800001002400493000800127A000024F40072
:1041B8001F4B421E9A4201D9012070471D4B1B68B4
:1041C80003F4C063B3F5007F0FD11B4B98421AD894
:1041D8001A4B984227D81A4B984226D8194B98421E
:1041E80094BF00230123002011E0174B98420CD8FC
:1041F800A3F5F403A3F59053984214D8134B9842AF
:1042080013D8134BEBE70423EDE7002301201149F2
:104218000A6822F007021A430A600A6802F00702D5
:104228009342C9D170470323DDE70223DBE700BFD0
:10423800FFB3C404007000400090D003006CDC029F
:104248000048E8010024F40080BA8C01001BB70084
:10425800808D5B0000200240034A044B02609B1AD9
:104268002420B3FBF0F07047388600080C8800085B
:1042780038B5EFF31185102383F31288BFF36F8FDE
:10428800064B9C6803F0A8FD85F31188BFF36F8F78
:104298002046BDE83840FEF7F5BC00BF1C0A0020E8
:1042A80038B50A4B53F82040013053F82050A54246
:1042B80000D838BD606830B1037FDB0701D403F054
:1042C8008EFD0834F3E723689847FAE7349300082B
:1042D80070B52A4B2A4C2B4D012286B003201A7048
:1042E800FFF7DEFF01F0CAF90420FFF7D9FF2646E1
:1042F800AE4204F1300410D300F030FD204C224EC1
:10430800AC4226D300F03EFDFCF7A2F91F4A137B0E
:1043180023F00103137306B070BD54F80C3C0593E9
:1043280054F8103C049354F8143C039354F8183C84
:10433800029354F81C3C019354F8203C009354E930
:104348000A2354E90C0100F027FA54F8303C5E6562
:10435800CDE7D4E90A23B3F1FF3F08BFB2F1FF3F2D
:1043680005D052EA0301206803D100F0C7FD3034BC
:10437800C6E73146183000F0C9FFF8E7790A00208F
:104388009C8A00089C8A0008717F0008200300208E
:1043980008B50348034A0021121A03F037FD08BD87
:1043A800E00000207C0A002070B5174E174D184910
:1043B80086B0B82303FB0066164B059301220F2332
:1043C800CDE903320023CDE90133142303FB005563
:1043D80004464FF4C07000FB04110F4B00954FF4D6
:1043E800A072304600F0D8F9737B0C4AEE6023F0D7
:1043F800040373734FF4046304FB033313442C74F2
:104408006B6006B070BD00BF680200201C0A002067
:10441800001B0020C6A500081D7E0008C012002051
:10442800BFB50020FFF73CFF294B83F30888294CD0
:10443800294F636943F4007363610025F02384F80E
:104448002230E57725766576A57684F82050636A6C
:1044580043F4E0236362FEF7DDFBFEF711FD4FF046
:10446800FF33A362E362FEF7D3FDFEF72DFD1B4881
:104478001B4C00F039FA03F09BFCFCF793F9012080
:10448800FFF70EFF0220FFF70BFF00F0AFFC154B04
:1044980015495C61154B05930123CDE903534FF48E
:1044A80080623B46CDE901550095204600F074F93D
:1044B800627B064622F004022046627303F017FD71
:1044C8002846FFF771FF3A4631462046FEF7B8FC0A
:1044D800001B002000ED00E0D9420008D8030020AE
:1044E800200300201C0A0020801C0020CBA5000807
:1044F8002DE9F341044617461E46EFF311881023B1
:1045080083F31288BFF36F8FC368334A7BB1806827
:104518009168884219D057EA060318D188F31188A0
:10452800BFF36F8F6FF00F0002B0BDE8F0819168A4
:1045380091F90E1021610133E3609368A36088F359
:104548001188BFF36F8F0020EEE72169F2E791F938
:104558000E1090F90E309942A8BF19466FF07E02EE
:104568009142B8BF11468B422DDD03F05EFC054633
:10457800CDE9007619482246414600F017FB00288D
:10458800E1D0EFF31186102383F31288BFF36F8F06
:10459800A068D0B1236821699C420AD04BB193F935
:1045A8000E309942A8BF19466FF07E039942B8BFF2
:1045B800194603F03AFC40B10848314600F08AFB3E
:1045C8006FF00A00B0E70025D2E7002DF4D186F39A
:1045D8001188BFF36F8FF3E71C0A00207A0A0020C6
:1045E800F8B583680546002B40D0234A9268934269
:1045F8003FD1C368012B03D9013BC3600020F8BD3C
:10460800EFF31187102383F31288BFF36F8F0169CB
:10461800806803F00AFC2C68A54207D10023C5E98D
:10462800023387F31188BFF36F8FE7E7002CF5D0CB
:10463800D4E9003213605A60637B002623F002033A
:104648006373C4E90066A66004F1180003F010FD66
:10465800AC6094F90E302B612046C4F8B06003F0CA
:1046680046FC0648394600F035FBC7E76FF01500F1
:10467800C5E74FF0FF30C2E71C0A00207A0A002085
:1046880070B5EFF31186102383F31288BFF36F8F91
:104698000468A0421BD0D4B1D4E9003213605A6038
:1046A800637B002523F00203C4E900556373A5600A
:1046B80004F1180003F0DCFCC4F8B050204603F005
:1046C80016FC31460A48BDE8704000F003BBD0E94B
:1046D80002329A4218BF013383600221103003F07E
:1046E80010FE0028EDD186F31188BFF36F8F70BDDF
:1046F8007A0A002010B5044608B9054B9C681F22A9
:1047080004F1780003F0ADFE002084F8970010BD96
:104718001C0A00202DE9F84F0C46A1B39AB390F873
:104728000D90DFF86880571E0846B9F1000F25D0B4
:10473800DFF85CA00025B8F804B019EA0B0F19D00F
:10474800B8F80630D8F800107E1B9E4228BF1E46D7
:10475800324603F027FE2E4439EA0B0904EB060023
:104768000CD0BD1B012D28BF01252A46514603F058
:1047780019FE354408F108086019DCE700230370C6
:104788002046BDE8F88F0348FBE700BF4C930008BC
:10479800D0A50008419600082DE9F04FD51D85B039
:1047A80025F0070504461F467F3500F15803C0E988
:1047B800163325F03F05129B237300200E46119BEC
:1047C800DDF838B0DDF84C80A06004213F2DC4E945
:1047D80006006173A373E07306F1400AA5F140096E
:1047E80005D880F31188BFF36F8F084602DF4A4669
:1047F8003544AA21504603F0FDFD29462046FEF720
:1048080095F80730109B20F00700C4E926A9C4F8E2
:10481800A00002930F9B2D1ACDE900B32A463B4610
:1048280031462046FEF7D8FA0F9BE3664FF00009A1
:10483800109BC4F85490C4E9197B2367EFF31182E5
:10484800102181F31288BFF36F8F104E316A6167B0
:10485800346282F31188BFF36F8FB8F1000F11D063
:104868001F22414604F1780003F0FBFD84F897907D
:10487800B3680BB1D3F8A430C4F8A430284605B007
:10488800BDE8F08F84F87880F2E700BF1C0A0020AA
:10489800F0B587B000250595109D04950F9D0395EB
:1048A8000E9D0295DDE912760D9D01950C9D0095F2
:1048B8000446FFF771FFB6F1FF3F08BFB7F1FF3FAE
:1048C80005D056EA070305D1204600F017FB20461D
:1048D80007B0F0BD3A46334604F11800014900F02C
:1048E80015FDF4E7717F000840F20113838100236E
:1048F800C0E92633C0F8A430014B9860704700BF68
:104908001C0A00200A4A93686FF00A01C3F8B01025
:104918000849C3F8AC004B6843F080534B60002350
:1049280083F31188BFF36F8F9368D3F8B000704793
:104938001C0A002000ED00E070B590F90D20437BC3
:10494800002A36DBD90634D11B4C63F07F0322469C
:10495800437352F8183FE169934207D1C0E9002137
:104968000860E06111E09942F8D01B68002BF5D08F
:1049780090F90E5093F90E60B542F4D0AE42F2DDD4
:104988005968C0E9003108605860A569954200D0AF
:1049980005B9E568A3685A7BD20604D1DA897F2A6B
:1049A80001D9AA6932B1AB4202D0284600F0B0FB67
:1049B800656170BD6361FCE71C0A002038B590F999
:1049C8000D20437B002A014604DA03F07F0343737A
:1049D80003F053FA0D4D2A46AB6852F8184F94422B
:1049E80000D004B9EC688B4207D05A7BD20604D1B8
:1049F800DA897F2A01D9A2692AB1A34202D02046C6
:104A080000F086FB23466B6138BD00BF1C0A0020FE
:104A1800B3F1FF3F08BFB2F1FF3F03D0024918309E
:104A280000F074BC704700BF717F000870B590F942
:104A38000D20437B002A014604DA03F07F03437309
:104A480003F01BFA4B7B1C4C63F07F0322464B732D
:104A580052F8183FE069934207D1C1E9002001608C
:104A6800E16111E09842F8D01B68002BF5D091F96C
:104A78000E5093F90E60B542F4D0AE42F2DD58689C
:104A8800C1E9003001605960A569A368954200D06A
:104A980005B9E5688B4207D05A7BD20604D1DA897A
:104AA8007F2A01D9AA692AB1AB4202D0284600F070
:104AB8002FFB2B46636170BD1C0A0020F8B5394CEA
:104AC800A2688242074624D1EFF305830BBBEFF3BC
:104AD8001186102383F31288BFF36F8F537B03F083
:104AE8007F0343F01003537303F0C7F9234653F8C9
:104AF800185F9D4200D005B9E568A3689D4202D0C1
:104B0800284600F005FB65613046BDE8F840FFF730
:104B1800F9BEEFF31185102383F31288BFF36F8F6B
:104B28007B7BD90604D585F31188BFF36F8FF8BD59
:104B3800D90943F0100219D17A73A6691A4B9E421B
:104B480000D006B9E668A368B34202D0304600F048
:104B5800DFFAA36866619F42E5D1EFF30583002B76
:104B6800E1D13A7BD2070AD42846CEE703F07F0387
:104B780043F010037B73384603F07FF9DDE785F3D4
:104B88001188BFF36F8F83F31188BFF36F8F0423EE
:104B9800184602DFEFF31180102383F31288BFF366
:104BA8006F8FB2E71C0A0020340A0020F8B50E4BBC
:104BB8000C4611460D4A98681060DDE90667EFF368
:104BC8001182102282F31288BFF36F8F9D682846E6
:104BD80003F065F9284632463B46FFF719FF2046A1
:104BE800BDE8F840FFF78EBE1C0A0020400A0020EE
:104BF800F8B50446EFF31187102383F31288BFF347
:104C08006F8F437B03F01F02002A0CBF012600268A
:104C180049B239D103F07F03437303F02EF92C4DC9
:104C2800437B817363F07F032A46437352F8183F2E
:104C3800934227D1E869C4E900200460EC610FE0E1
:104C48009842F8D01B68002BF5D093F90EC0614547
:104C5800F6D08C45F4DD5968C4E900310C605C601D
:104C6800AC69944200D004B9EC68AB689C4202D0AD
:104C7800204600F04DFA6C6187F31188BFF36F8FFF
:104C88003046F8BDE869DEE79B071ED5856803F066
:104C9800F4F881732B689D4209D16B68C4E900530D
:104CA8001C606C60E8E76A689342F6D01B68002BCA
:104CB800F3D093F90E209142F5D08A42F3DD5A6879
:104CC800C4E9003214605C60D6E78173D4E700BFA2
:104CD8001C0A002049B9EFF3058030B9054B5A6921
:104CE8009B689A4201D0FFF70DBE81F31188BFF38C
:104CF8006F8F70471C0A002010B5EFF31184102243
:104D080082F31288BFF36F8F427BD10604D484F3F9
:104D18001188BFF36F8F10BD22F010024273FFF7A6
:104D28000BFE21460248BDE81040FFF7D3BF00BF85
:104D38007A0A0020034648B9EFF3058232B9064AD9
:104D480051699268914201D0FFF7DCBD83F3118865
:104D5800BFF36F8F704700BF1C0A0020EFF311816B
:104D6800102383F31288BFF36F8F054B9A68D37BA8
:104D7800013BD37381F31188BFF36F8F704700BF76
:104D88001C0A002070B5EFF31186102383F31288F4
:104D9800BFF36F8F144DAB68DA7B0132DA732A46A2
:104DA80052F8184F944200D004B9EC685A7BD206E6
:104DB80004D1DA897F2A01D9A2692AB1A34202D093
:104DC800204600F0A5F923466B6186F31188BFF3EE
:104DD8006F8FEFF31180102383F31288BFF36F8F67
:104DE800BDE87040FFF7A6BF1C0A0020024B03F184
:104DF8001802C3E9062270471C0A002070B5EFF3B9
:104E08001186102383F31288BFF36F8F1B4CA168A0
:104E1800E0690B68814214BF1A46002249680B609A
:104E28005960A368E1692AB9154AC3E900210B60F2
:104E3800E3610CE093F90E0092F90E50A84218D0E5
:104E4800854216DD5168C3E900210B605360A569EE
:104E58000B4B9D4200D005B9E568A3689D4202D07E
:104E6800284600F055F965613046BDE87040FFF707
:104E780049BD8A42D8D01268D5E700BF1C0A002075
:104E8800340A0020F8B550EA010306460C4603D15F
:104E9800FFF7B4FF0020F8BDEFF31187102383F369
:104EA8001288BFF36F8F124D124BA8681860FFF776
:104EB80085FDA868104923463246183000F026FAC6
:104EC800AA68537B43F00403537304463846FFF73C
:104ED80019FDAB68D3E90A23B3F1004F08BF002AD4
:104EE800D8D103F0EDF8201A20EAE070D3E700BF2C
:104EF8001C0A0020400A0020717F000838B50446CB
:104F0800EFF31185102383F31288BFF36F8F437B70
:104F18005B070FD5183003F0ABF8637B23F004036D
:104F280020466373FFF708FD29460548BDE8384069
:104F3800FFF7D0BE85F31188BFF36F8F38BD00BF70
:104F48007A0A0020014B9868704700BF1C0A0020AD
:104F58002DE9F8430446077BEFF31185102383F30B
:104F68001288BFF36F8F437B190705D585F3118826
:104F7800BFF36F8FBDE8F883D90943F008025DD10C
:104F88004273A36813B1204602F07FFF04F11800B2
:104F980003F06EF8A66D04F15808B04511D04FF033
:104FA800000976B1304602F070FF06F1180003F0F0
:104FB8005FF8C6F8B0903046FFF7BEFCA66DB04566
:104FC800EFD1DFF8C080D8F808309C423ED1EFF32B
:104FD8000589B9F1000918BF4FF00109D8F8186020
:104FE800294A964200D00EB9D8F80C60B34202D0D4
:104FF800304600F08DF82046C8F8146000F0E0F85C
:10500800B9F1000F02D02148FFF76EFCD8F808303C
:105018009C4231D1EFF3058373BB227BD20718D4AE
:105028002846FFF76FFCFB07A4D5002383F31188FC
:10503800BFF36F8F0423184602DF9BE703F07F035B
:1050480043F00803437302F018FF9AE74FF0000992
:10505800C4E785F31188BFF36F8F83F31188BFF31B
:105068006F8F0423184602DFEFF31180102383F3B8
:105078001288BFF36F8FD4E785F31188BFF36F8F62
:10508800D1E700BF1C0A0020340A0020D803002002
:10509800D3B5DDE90667089CCDE90067FFF786FD13
:1050A8001CB1034B9B681B69236002B0D0BD00BFD5
:1050B8001C0A0020044BC01A044BC0105843044B70
:1050C80001221A54704700BF90040020ABAAAAAA74
:1050D8007A0A0020C3897F2B12D80A4B1B6863B158
:1050E800094B90F90E201B689A4209DB437BDB06CB
:1050F80006D1064BC31A18BF012303F001007047FD
:105108000023FAE79C000020440A002068020020DF
:1051180070B50E4B0E4C1E7C06EB460304EBC30425
:105128000546204602F0A4FF0A4B002228469A555D
:10513800FFF7D0FF48B1084B08491A68013A2046E2
:10514800D317BDE8704000F0E1B870BD1C0A00201C
:10515800900400207A0A00209C000020BD5000081E
:1051680038B5EFF31185102383F31288BFF36F8FDF
:10517800104B114A9C681068A04206D1FFF7C8FF7F
:1051880085F31188BFF36F8F38BD00211B7C116038
:105198000A4AD35C002BF3D02046FFF79BFF002878
:1051A800EED0637BDB0602D12046FFF73FFC2046AA
:1051B800E4E700BF1C0A0020400A00207A0A002009
:1051C800EFF31181102383F31288BFF36F8F0A4A1C
:1051D800136A834207D15B6F136281F31188BFF3AF
:1051E8006F8F70471346002BF7D05A6F8242F9D160
:1051F800426F5A67F1E700BF1C0A0020F8B5054660
:105208000E46EFF31187102383F31288BFF36F8FD5
:10521800064B1C6A24B987F31188BFF36F8FF8BD5A
:1052280020463146A847646FF4E700BF1C0A0020F7
:10523800F8B506460F46EFF31183102282F3128861
:10524800BFF36F8F0B490C6A154624B983F3118895
:10525800BFF36F8FF8BD83F31188BFF36F8F3946A3
:105268002046B047EFF3118385F31288BFF36F8FA1
:10527800646FEAE71C0A00200748084A084908B58D
:10528800121A02F0C5FD0748074A0849BDE8084058
:10529800121A02F0BDBD00BF00000020DC00002093
:1052A80060A60008000000200000002060A600089A
:1052B800024B1868984208BF00207047A0000020E1
:1052C800034B1B680BB9FEF7F3BE0020704700BF05
:1052D800480A002030B570B10B4B5B6898420AD081
:1052E800036843B1D3E90421D0E90445121941EB1D
:1052F8000501C3E90421D0E9003213605A60002394
:10530800C0E9003330BD00BFA0000020B3F1FF3F6B
:1053180008BFB2F1FF3F2DE9F84F044699461546FC
:105328001F467AD08160EFF31188102383F3128827
:10533800BFF36F8FB9F1000FDFF8E4A020DBFFF7B0
:10534800BFFFDAE90027013549F100092D1849EBBB
:10535800E073C4E90453AD18064643EB07074FF062
:105368000109FFF7A5FFDFF8BCE0DEF804A003465B
:10537800EBB9C4E900EACAF80040CEF8044028E0D6
:10538800DAE900126FF001035B1A4FF0FF3161EBAD
:1053980002025B1B62EB0902012B72F10001BCBF28
:1053A80001230022C0E904324FF00009D9E7D3E90C
:1053B800041CD4E904208A4270EB0C0B24DA891A05
:1053C8005A686CEB0000C3E90410C4E900321460A9
:1053D8005C60FFF76DFF84420ED1134B1B685BB90D
:1053E800B9F1000F02D1FFF76BFF0646304602F015
:1053F80028FE0021FEF7E0FD88F31188BFF36F8FC8
:1054080028463946BDE8F88F521A60EB0C009A45D9
:10541800C4E90420ADD01B68AAE700252F46EFE7B2
:10542800A8040020A0000020480A00202DE9F04729
:10543800EFF31185102383F31288BFF36F8FDFF822
:10544800A490DFF8A480C9F80000FFF731FF002618
:105458000027D9F80030D8E900ECD91750B1D0E9C5
:105468000442A34271EB020A1CDAE41A62EB01025D
:10547800C0E9044213EB0E034FF000044CEB0101AA
:105488002046C8E90031C9F8004002F0DAFD21469B
:10549800FEF792FD85F31188BFF36F8FBDE8F047E3
:1054A800FFF75EBE14EB0E024CEBE473C0E9046731
:1054B800C8E90023FFF70EFF85F31188BFF36F8F4C
:1054C80083689847EFF31185102383F31288BFF39D
:1054D8006F8FD9F800301B1BC9F80030FFF7E8FEC2
:1054E800B7E700BF480A0020A804002010B5EFF372
:1054F8001184102383F31288BFF36F8FFFF7E0FE48
:10550800054A0346D2E90001181841EBE37184F318
:105518001188BFF36F8F10BDA8040020F0B51423C5
:10552800154E03FB01000024102701B9F0BD10F847
:10553800073C40F80C4C03F03F03102BA0F1140C6F
:105548000CD826FA03F3DB0708D550F8143C2BB126
:1055580050F8105C2B605D6040E9054482F31188C7
:10556800BFF36F8FEFF3118287F31288BFF36F8F4A
:1055780001396046D9E700BF160101002DE9F74F50
:105588001D46274B9F68012387F8603087F86130F4
:1055980052EA050316460CBF0123002307F16002F7
:1055A800804602F0D9FD8146EFF3118B4FF0100AC7
:1055B8008AF31288BFF36F8F97F860404CB90146A1
:1055C8005A464046FFF7AAFF8BF31188BFF36F8F47
:1055D8000BE0002387F8603056EA050309D18BF306
:1055E8001188BFF36F8F6FF00A04204603B0BDE83F
:1055F800F08FCDE900650B4A0B485946FFF7D6FAFC
:105608000446EFF311858AF31288BFF36F8F2A4699
:1056180049464046FFF782FF85F31188D6E700BF69
:105628001C0A0020A80000207B0A002038B5034689
:10563800EFF31185102282F31288BFF36F8FC160D8
:10564800012181600068834206D185F31188BFF388
:105658006F8F0024204638BDD0E9003213605A60AD
:105668000023C0E9003302F0FAFD29460446024847
:10567800FFF730FBEEE700BF7B0A0020014800F08F
:10568800C3BC00BF0BA6000807B5074B009307492A
:1056980007484FF0FF334FF4806200F00DF9002007
:1056A80003B05DF804FB00BF8C930008C020002005
:1056B800B00400202DE9FF414F4E04461027EFF3B8
:1056C800118887F31288BFF36F8FD4F8BC50F5B9EF
:1056D800022104F1D40002F040FE002868D004F151
:1056E800CC0500220121284602F088FC0028F8D1C8
:1056F800002302934FF0FF324FF0FF33CDE9002330
:10570800414604F1C4023D48FFF7C2FCD7E7D4F88C
:10571800C0202B68C4F8BC30954208BFC4F8C0301C
:10572800D4F8D43043F00203C4F8D430EB6823F043
:10573800040343F00103EB606B6888F31188BFF33F
:105748006F8F28469847EFF3118887F31288BFF3C5
:105758006F8FEB68D80623F0010236D4EA60EB6855
:105768009A0716D5306823F00203EB6088B1036806
:10577800002170B14268954235D1036869BB7268EF
:105788003360824200D17360002340F8083BFEF783
:1057980077FFD4F8D43023F00203C4F8D43088F368
:1057A8001188BFF36F8FDB0589D4FFF727FB86E7E6
:1057B800D4F8D430D9069BD5C4F8D40088F311881E
:1057C800BFF36F8F04B0BDE8F08123F01103EB60E5
:1057D80005F11000FEF754FFC1E70B6073688342C0
:1057E80008BF7160D0E723B11A680146184613460E
:1057F800BFE71A46F9E700BF4C0A00207B0A0020E1
:10580800F8B5C3689A0704460F46C3F340062ED47A
:105818005B071CD40B680BB983680B60E368DD0772
:1058280044BFA3683B603D684CBF02260126002D9B
:105838003CD0204B9A68D5F8B8309A420AD0D5F8AF
:10584800D430D807C3F3800214D46FF012060023B3
:105858003B6025E002F0F8FAD5F8D4300028F0D102
:10586800D907C3F3C002F0D552B15B0708D46FF073
:105878000F06ECE7002AFAD1C3F3C003002BF6D1D8
:1058880000232360D5F8C03063B9C5E92F44284602
:1058980002F06EFDE36843F00403E3603B68A36035
:1058A8003046F8BD1C60C5F8C040F0E76FF015063B
:1058B800CDE700BF1C0A0020F0B589B004460020DF
:1058C800C4E92F000E9D04F1C400C4E9310004F1BD
:1058D800CC00C4E9330055B32879002840F2011000
:1058E80008BF0120C4F8D40000204FF0FF364FF065
:1058F800FF37CDE90330CDE90100CDE906670D4B4F
:1059080000942046FEF7C4FF55B1296811B120461E
:10591800FEF7F0FE6B791BB1237B43F00103237381
:105928002046FFF7EBFAC4F8B84009B0F0BD0120F3
:10593800D8E700BFBD5600080CB430B58BB004469C
:105948000D462022002102A802F054FD02238DF802
:105958000A30002D0C4B0393069412DB01D06B1E0A
:105968001C440FAA0E99079402A8019200F074F83B
:1059780015B1069B00221A700BB0BDE8304002B08A
:1059880070470024EDE700BF7D850008242AF0B5A4
:10599800044601D8012A40D102F0F4FD2D4B16220D
:1059A8001A5001B10C600020F0BD2F463D4615F895
:1059B800010B2028F9D0A0F10906042E0346F4D9DA
:1059C8002B282CD02D282CD101267B78BD1C302BE0
:1059D8002DD1287840F02000782824D132F010000A
:1059E80021D16B782C46102202350020392B82BF3A
:1059F80003F1FF3343F02003263B303B9A421AD988
:105A0800A0FB02040CB9C01801D346F002062F46C9
:105A18002C4617F8013B3D46E8E70746C6E700264F
:105A2800D3E70026D3E7002A08BF0822DDE7002ACB
:105A380008BF0A22D9E701B10C60F20748BF40420B
:105A4800B307B1D502F09EFD024B22221A504FF047
:105A5800FF30A9E70C0000002DE9F04F8DB0436836
:105A68000293837815469A07804640F10D810024F9
:105A78000E78002E00F00A81252E0BD04B1C0393C4
:105A88000134029B4146304698470028C0F2F68010
:105A98000399EDE74E788B1C252E0393F0D0002751
:105AA800B946BB46BBF11F0F38D8A6F12003102B0F
:105AB8000AD8DFE803F02A09093009090921090988
:105AC8000928092D09091F00A6F13003092B33D92C
