:020000040800F2
:1000000040630020A15D0008154A01088D5D0008CD
:100010008D5D00088D5D00088D5D0008000000000A
:10002000000000000000000000000000755E0008F5
:100030008D5D000800000000115E0008D9BC0008BA
:1000400005600008056000080560000805600008FC
:1000500005600008056000080560000805600008EC
:1000600005600008056000080560000805600008DC
:1000700005600008056000080560000805600008CC
:1000800005600008056000080560000805600008BC
:1000900005600008056000080560000805600008AC
:1000A000056000080560000805600008056000089C
:1000B000056000080560000805600008056000088C
:1000C000056000080560000805600008056000087C
:1000D000056000080560000805600008056000086C
:1000E000056000080560000805600008056000085C
:1000F000056000080560000805600008056000084C
:10010000056000080560000805600008056000083B
:10011000056000080560000805600008056000082B
:10012000056000080560000805600008056000081B
:10013000056000080560000805600008056000080B
:1001400005600008056000080560000805600008FB
:1001500005600008056000080560000805600008EB
:1001600005600008056000080560000805600008DB
:1001700005600008056000080560000805600008CB
:0801800005600008056000089D
:1001880081F0004102E000BF83F0004330B54FEA40
:1001980041044FEA430594EA050F08BF90EA020FAD
:1001A8001FBF54EA000C55EA020C7FEA645C7FEA40
:1001B800655C00F0E2804FEA5454D4EB5555B8BF63
:1001C8006D420CDD2C4480EA020281EA030382EAD4
:1001D800000083EA010180EA020281EA0303362D66
:1001E80088BF30BD11F0004F4FEA01314FF4801C39
:1001F8004CEA113102D0404261EB410113F0004F4B
:100208004FEA03334CEA133302D0524263EB430301
:1002180094EA050F00F0A780A4F10104D5F1200E9F
:100228000DDB02FA0EFC22FA05F2801841F10001FA
:1002380003FA0EF2801843FA05F359410EE0A5F1CE
:1002480020050EF1200E012A03FA0EFC28BF4CF0FF
:10025800020C43FA05F3C01851EBE37101F00045B5
:1002680007D54FF0000EDCF1000C7EEB00006EEBC2
:100278000101B1F5801F1BD3B1F5001F0CD349084C
:100288005FEA30004FEA3C0C04F101044FEA4452A3
:1002980012F5800F80F09A80BCF1004F08BF5FEA2A
:1002A800500C50F1000041EB045141EA050130BD0A
:1002B8005FEA4C0C404141EB0101013C28BFB1F51C
:1002C800801FE9D291F0000F04BF01460020B1FA67
:1002D80081F308BF2033A3F10B03B3F120020CDA3A
:1002E8000C3208DD02F1140CC2F10C0201FA0CF018
:1002F80021FA02F10CE002F11402D8BFC2F1200C7D
:1003080001FA02F120FA0CFCDCBF41EA0C01904032
:10031800E41AA2BF01EB0451294330BD6FEA04047B
:100328001F3C1CDA0C340EDC04F11404C4F1200266
:1003380020FA04F001FA02F340EA030021FA04F378
:1003480045EA030130BDC4F10C04C4F1200220FACF
:1003580002F001FA04F340EA0300294630BD21FA0D
:1003680004F0294630BD94F0000F83F4801306BFD3
:1003780081F480110134013D4EE77FEA645C18BFC7
:100388007FEA655C29D094EA050F08BF90EA020F5E
:1003980005D054EA000C04BF1946104630BD91EA56
:1003A800030F1EBF0021002030BD5FEA545C05D159
:1003B8004000494128BF41F0004130BD14F5800498
:1003C8003CBF01F5801130BD01F0004545F0FE410C
:1003D80041F470014FF0000030BD7FEA645C1ABF41
:1003E800194610467FEA655C1CBF0B46024650EA78
:1003F800013406BF52EA033591EA030F41F40021A4
:1004080030BD00BF90F0000F04BF0021704730B529
:100418004FF4806404F132044FF000054FF00001FE
:1004280050E700BF90F0000F04BF0021704730B5BF
:100438004FF4806404F1320410F0004548BF404294
:100448004FF000013EE700BF42004FEAE2014FEAE9
:1004580031014FEA02701FBF12F07F4393F07F4FC4
:1004680081F06051704732F07F4208BF704793F0C7
:100478007F4F04BF41F40021704730B54FF46074DA
:1004880001F0004521F000411CE700BF50EA0102DD
:1004980008BF704730B54FF000050AE050EA010286
:1004A80008BF704730B511F0004502D5404261EBF6
:1004B80041014FF4806404F132045FEA915C3FF437
:1004C800D8AE4FF003025FEADC0C18BF03325FEAD4
:1004D800DC0C18BF033202EBDC02C2F1200300FA85
:1004E80003FC20FA02F001FA03FE40EA0E0021FAAA
:1004F80002F11444BDE600BF70B54FF0FF0C4CF498
:10050800E06C1CEA11541DBF1CEA135594EA0C0F49
:1005180095EA0C0F00F0DEF82C4481EA030621EA84
:100528004C5123EA4C5350EA013518BF52EA0335BF
:1005380041F4801143F4801338D0A0FB02CE4FF071
:100548000005E1FB02E506F00042E0FB03E54FF0A1
:100558000006E1FB03569CF0000F18BF4EF0010E99
:10056800A4F1FF04B6F5007F64F5407404D25FEA95
:100578004E0E6D4146EB060642EAC62141EA555148
:100588004FEAC52040EA5E504FEACE2EB4F1FD0C8A
:1005980088BFBCF5E06F1ED8BEF1004F08BF5FEA08
:1005A800500E50F1000041EB045170BD06F00046BA
:1005B80046EA010140EA020081EA0301B4EB5C0467
:1005C800C2BFD4EB0C0541EA045170BD41F480115F
:1005D8004FF0000E013C00F3AB8014F1360FDEBF84
:1005E800002001F0004170BDC4F10004203C35DA60
:1005F8000C341BDC04F11404C4F1200500FA05F3E3
:1006080020FA04F001FA05F240EA020001F0004283
:1006180021F0004110EBD37021FA04F642EB0601F9
:100628005EEA430E08BF20EAD37070BDC4F10C0423
:10063800C4F1200500FA04F320FA05F001FA04F2E7
:1006480040EA020001F0004110EBD37041F10001D3
:100658005EEA430E08BF20EAD37070BDC4F12005DE
:1006680000FA05F24EEA020E20FA04F301FA05F246
:1006780043EA020321FA04F001F0004121FA04F2EE
:1006880020EA020000EBD3705EEA430E08BF20EABE
:10069800D37070BD94F0000F0FD101F000464000F8
:1006A80041EB010111F4801F08BF013CF7D041EA7A
:1006B800060195F0000F18BF704703F0004652007E
:1006C80043EB030313F4801F08BF013DF7D043EA4F
:1006D8000603704794EA0C0F0CEA135518BF95EA05
:1006E8000C0F0CD050EA410618BF52EA4306D1D18C
:1006F80081EA030101F000414FF0000070BD50EAAB
:10070800410606BF1046194652EA430619D094EA34
:100718000C0F02D150EA013613D195EA0C0F05D11E
:1007280052EA03361CBF104619460AD181EA030172
:1007380001F0004141F0FE4141F470014FF000002A
:1007480070BD41F0FE4141F4780170BD70B54FF0C5
:10075800FF0C4CF4E06C1CEA11541DBF1CEA135545
:1007680094EA0C0F95EA0C0F00F0A7F8A4EB050427
:1007780081EA030E52EA03354FEA013100F088801E
:100788004FEA03334FF0805545EA131343EA1263E7
:100798004FEA022245EA111545EA10654FEA00269C
:1007A8000EF000419D4208BF964244F1FD0404F555
:1007B800407402D25B084FEA3202B61A65EB0305B1
:1007C8005B084FEA32024FF480104FF4002CB6EB6E
:1007D800020E75EB030E22BFB61A754640EA0C00EE
:1007E8005B084FEA3202B6EB020E75EB030E22BF2E
:1007F800B61A754640EA5C005B084FEA3202B6EB6F
:10080800020E75EB030E22BFB61A754640EA9C002D
:100818005B084FEA3202B6EB020E75EB030E22BFFD
:10082800B61A754640EADC0055EA060E18D04FEABB
:10083800051545EA16754FEA06164FEAC30343EA5B
:1008480052734FEAC2025FEA1C1CC0D111F4801F28
:100858000BD141EA00014FF000004FF0004CB6E721
:1008680011F4801F04BF01430020B4F1FD0C88BFC0
:10087800BCF5E06F3FF6AFAEB5EB030C04BFB6EBCB
:10088800020C5FEA500C50F1000041EB045170BDBE
:100898000EF0004E4EEA113114EB5C04C2BFD4EBEB
:1008A8000C0541EA045170BD41F480114FF0000E6F
:1008B800013C90E645EA060E8DE60CEA135594EAEB
:1008C8000C0F08BF95EA0C0F3FF43BAF94EA0C0FEE
:1008D8000AD150EA01347FF434AF95EA0C0F7FF463
:1008E80025AF104619462CE795EA0C0F06D152EAB7
:1008F80003353FF4FDAE1046194622E750EA41069B
:1009080018BF52EA43067FF4C5AE50EA41047FF4AB
:100918000DAF52EA43057FF4EBAE12E780F00040DA
:1009280002E000BF81F0004142001FBF5FEA4103BF
:1009380092EA030F7FEA226C7FEA236C6AD04FEABF
:100948001262D2EB1363C1BFD21841404840414004
:10095800B8BF5B42192B88BF704710F0004F40F4B6
:10096800000020F07F4018BF404211F0004F41F4D2
:10097800000121F07F4118BF494292EA030F3FD09E
:10098800A2F1010241FA03FC10EB0C00C3F12003B1
:1009980001FA03F100F0004302D5494260EB400040
:1009A800B0F5000F13D3B0F1807F06D340084FEAAB
:1009B800310102F10102FE2A51D2B1F1004F40EBA0
:1009C800C25008BF20F0010040EA03007047490008
:1009D80040EB0000013A28BFB0F5000FEDD2B0FAA5
:1009E80080FCACF1080CB2EB0C0200FA0CF0AABFC8
:1009F80000EBC25052421843BCBFD0401843704766
:100A080092F0000F81F4000106BF80F4000001326B
:100A1800013BB5E74FEA41037FEA226C18BF7FEA42
:100A2800236C21D092EA030F04D092F0000F08BF84
:100A38000846704790EA010F1CBF0020704712F06B
:100A48007F4F04D1400028BF40F00040704712F1AA
:100A580000723CBF00F50000704700F0004343F00F
:100A6800FE4040F4000070477FEA226216BF084645
:100A78007FEA23630146420206BF5FEA412390EA08
:100A8800010F40F4800070474FF0000304E000BFFE
:100A980010F0004348BF40425FEA000C08BF7047AF
:100AA80043F0964301464FF000001CE050EA010273
:100AB80008BF70474FF000030AE000BF50EA010288
:100AC80008BF704711F0004302D5404261EB410175
:100AD8005FEA010C02BF84460146002043F0B6439A
:100AE80008BFA3F18053A3F50003BCFA8CF2083ABF
:100AF800A3EBC25310DB01FA02FC634400FA02FCC8
:100B0800C2F12002BCF1004F20FA02F243EB0200CE
:100B180008BF20F00100704702F1200201FA02FC30
:100B2800C2F1200250EA4C0021FA02F243EB020023
:100B380008BF20EADC7070474FF0FF0C1CEAD05267
:100B48001EBF1CEAD15392EA0C0F93EA0C0F6FD028
:100B58001A4480EA010C400218BF5FEA41211ED006
:100B68004FF0006343EA501043EA5111A0FB0131F2
:100B78000CF00040B1F5000F3EBF490041EAD371C7
:100B88005B0040EA010062F17F02FD2A1DD8B3F143
:100B9800004F40EBC25008BF20F00100704790F0B2
:100BA800000F0CF0004C08BF49024CEA502040EA04
:100BB80051207F3AC2BFD2F1FF0340EAC2507047CA
:100BC80040F400004FF00003013A5DDC12F1190F08
:100BD800DCBF00F000407047C2F10002410021FA7A
:100BE80002F1C2F1200200FA02FC5FEA310040F192
:100BF800000053EA4C0308BF20EADC70704792F00B
:100C0800000F00F0004C02BF400010F4000F013A42
:100C1800F9D040EA0C0093F0000F01F0004C02BF3D
:100C2800490011F4000F013BF9D041EA0C018FE7AC
:100C38000CEAD15392EA0C0F18BF93EA0C0F0AD0B2
:100C480030F0004C18BF31F0004CD8D180EA0100D8
:100C580000F00040704790F0000F17BF90F0004F71
:100C6800084691F0000F91F0004F14D092EA0C0F53
:100C780001D142020FD193EA0C0F03D14B0218BFE6
:100C8800084608D180EA010000F0004040F0FE402C
:100C980040F40000704740F0FE4040F440007047C8
:100CA8004FF0FF0C1CEAD0521EBF1CEAD15392EA47
:100CB8000C0F93EA0C0F69D0A2EB030280EA010C37
:100CC80049024FEA402037D04FF0805343EA1111D0
:100CD80043EA10130CF000408B4238BF5B0042F12E
:100CE8007D024FF4000C8B4224BF5B1A40EA0C00D3
:100CF800B3EB510F24BFA3EB510340EA5C00B3EB05
:100D0800910F24BFA3EB910340EA9C00B3EBD10FF2
:100D180024BFA3EBD10340EADC001B0118BF5FEA44
:100D28001C1CE0D1FD2A3FF650AF8B4240EBC2506D
:100D380008BF20F0010070470CF0004C4CEA50202E
:100D48007F32C2BFD2F1FF0340EAC250704740F47D
:100D580000004FF00003013A37E792F0000F00F06F
:100D6800004C02BF400010F4000F013AF9D040EAED
:100D78000C0093F0000F01F0004C02BF490011F481
:100D8800000F013BF9D041EA0C0195E70CEAD15379
:100D980092EA0C0F08D142027FF47DAF93EA0C0F60
:100DA8007FF470AF084676E793EA0C0F04D14B0244
:100DB8003FF44CAF08466EE730F0004C18BF31F0F6
:100DC800004CCAD130F000427FF45CAF31F00043F0
:100DD8007FF43CAF5FE700BF4FF0FF3C06E000BF89
:100DE8004FF0010C02E000BF4FF0010C4DF804CDAC
:100DF8004FEA40024FEA41037FEA226C18BF7FEABC
:100E0800236C11D001B052EA530C18BF90EA010FBD
:100E180058BFB2EB030088BFC81738BF6FEAE1704C
:100E280018BF40F0010070477FEA226C02D15FEAE8
:100E3800402C05D17FEA236CE4D15FEA412CE1D054
:100E48005DF8040B704700BF844608466146FFE71B
:100E58000FB5FFF7C9FF002848BF10F1000F0FBDFD
:100E68004DF808EDFFF7F4FF0CBF012000205DF8F6
:100E780008FB00BF4DF808EDFFF7EAFF34BF01207B
:100E880000205DF808FB00BF4DF808EDFFF7E0FF14
:100E980094BF012000205DF808FB00BF4DF808ED65
:100EA800FFF7D2FF94BF012000205DF808FB00BFC8
:100EB8004DF808EDFFF7C8FF34BF012000205DF8AA
:100EC80008FB00BF4FEA4002B2F1FE4F0FD34FF0CC
:100ED8009E03B3EB12620DD94FEA002343F000439F
:100EE80010F0004F23FA02F018BF404270474FF04D
:100EF8000000704712F1610F01D1420205D110F0D4
:100F0800004008BF6FF0004070474FF00000704786
:100F18007BB972B90029BEBF00204FF0004106E03E
:100F280008BF00281CBF6FF000414FF0FF3000F0F1
:100F380077B8ADF1080C6DE904CE002909DB002B68
:100F48001ADB00F0CFF8DDF804E0DDE9022304B095
:100F58007047404261EB4101002B1BDB00F0C2F8F7
:100F6800DDF804E0DDE9022304B0404261EB410111
:100F7800524263EB43037047524263EB430300F072
:100F8800B1F8DDF804E0DDE9022304B0404261EB8A
:100F980041017047524263EB430300F0A3F8DDF8C8
:100FA80004E0DDE9022304B0524263EB43037047D7
:100FB80053B94AB9002908BF00281CBF4FF0FF31B8
:100FC8004FF0FF3000F02CB8ADF1080C6DE904CEFD
:100FD80000F088F8DDF804E0DDE9022304B070478A
:100FE800D0B5FFF731FA0C4B002206460F46FFF743
:100FF80083FA00F017F80446FFF704FA074B0022BB
:10100800FFF77AFA02460B4630463946FFF7BCF836
:1010180000F008F82146D0BD0000F03D0000F04186
:10102800704700BF4A0011D212F5001211D20DD537
:101038006FF47873B3EB62520ED44FEAC12343F0D6
:10104800004343EA505323FA02F070474FF0000080
:10105800704750EA013002D14FF0FF3070474FF02F
:101068000000704710F8012B11F8013B012A28BF36
:101078009A42F7D0D01A7047034611F8012B03F8AB
:10108800012B002AF9D17047034613F8012B002AD7
:10109800FBD1181A01387047430803F05533C01ABA
:1010A80000F03333800800F03330184400EB1010A0
:1010B8004FF0013300F00F305843000E704710B561
:1010C80000210446FFF7D6FE20B92046BDE81040AF
:1010D800FFF786BF04F10040FFF782FF404261EB53
:1010E800410110BD2DE9F04786468C460846089E0A
:1010F800154674461946002B40F0C2808542B2FA64
:1011080082F245D94AB1C2F1200300FA02FC2EFA54
:1011180003F3954043EA0C0C94404FEA154EA8B2ED
:10112800BCFBFEF8230C0EFB18CC08FB00F943EAC5
:101138000C43994528D9EB1808F1FF3704D2994593
:1011480002D9A8F102072B44A3EB0903A4B2B3FB0D
:10115800FEFC0EFB1C330CFB00F044EA0344A042E7
:1011680014D92C190CF1FF3304D2A04202D9ACF1E6
:1011780002032C44241A43EA07401EB1D44000233A
:1011880034607360BDE8F0874746DDE76346F1E702
:1011980092BB431B01214FEA154EAFB2B3FBFEFCD5
:1011A800200C0EFB1C330CFB07F840EA0343984560
:1011B80062D9EB180CF1FF3004D2984502D9ACF192
:1011C80002002B44A3EB0803A4B2B3FBFEFC0EFB06
:1011D8001C330CFB07F744EA0344A7424ED92C19E9
:1011E8000CF1FF3304D2A74202D9ACF102032C441C
:1011F800E41B43EA0040C0E7C2F1200320FA03F1F0
:10120800954090402EFA03F303434FEA154EAFB2D0
:10121800B1FBFEFC0EFB1C10190C0CFB07F841EA95
:101228000041884504FA02F422D969180CF1FF300C
:1012380004D2884502D9ACF102002944A1EB080187
:101248009BB2B1FBFEFC0EFB1C110CFB07F743EA3B
:1012580001439F420ED9EB180CF1FF3104D29F4293
:1012680002D9ACF102012B44DB1B41EA004192E7B1
:101278006046E3E76146F7E76046A3E76346B7E7FA
:10128800834206D916B9002108467BE7C6E900E083
:10129800F9E7B3FA83F78FB9834201D3724508D8C7
:1012A800BEEB020460EB030301209C461EB900213B
:1012B80068E73846FAE7C6E9004CF8E7C7F1200CBA
:1012C800BB4022FA0CF41C432EFA0CF120FA0CF362
:1012D800B84001434FEA14490EFA07F5B3FBF9F891
:1012E8001FFA84FE09FB18300B0C08FB0EFA43EAC0
:1012F80000439A4502FA07F240D9E31808F1FF3093
:1013080004D29A4502D9A8F102002344A3EB0A03A8
:1013180089B2B3FBF9F809FB183308FB0EFE41EA62
:1013280003418E452CD9611808F1FF3304D28E454C
:1013380002D9A8F10203214443EA0040A0FB029825
:10134800A1EB0E014145CE46434602D306D14D4599
:1013580004D2B9EB020E68EB04030138002EA6D0C4
:10136800B5EB0E0261EB030101FA0CFC22FA07F35C
:101378004CEA0303F940C6E9003198E74046C5E75F
:101388004346D9E7000000002DE9F04F8BB0064630
:1013980004AF8846464C204618F0B9FE28B94FF0ED
:1013A800FF301C37BD46BDE8F08FA5684021EB68CB
:1013B800204698470028F2DB0D212B6907F1080227
:1013C800204698470028EADB10212B6907F1100214
:1013D800204698470028E2DBF868DFF8D8B0FFF726
:1013E80021F831A3D3E90023FFF7B0F90446B86820
:1013F8000D46FFF717F802460B4620462946FEF72A
:10140800C5FEC7E900017869FFF70CF826A3D3E900
:101418000023FFF79BF9044638690D46FFF702F8E9
:101428000B46024629462046FEF7B0FEDBF80030A0
:1014380003F00703022B04460D4628D9E94688B075
:1014480004AAD7E900011C4B53614FF0040AC2E912
:10145800060142F810AF00234FF40351584601F03B
:10146800D9FCDBF8003003F00703022BCD460ED978
:1014780088B004AA114B5361C2E9064542F810AF7F
:1014880000234FF40351584601F0C4FCCD46CDE982
:101498000245D7E900340A4ACDE9003441463046CE
:1014A8000FF0D2FF7DE700BF0000000080842E41CE
:1014B800B8B20108E00A002038CD01084CCD010877
:1014C8005ECD0108000000002DE9F04FA3B00646EC
:1014D8000CAF88468C4C204618F019FE28B94FF0FE
:1014E800FF305C37BD46BDE8F08FA5684021EB684A
:1014F800204698470028F2DB0321EB6820469847EE
:1015080007F12801002000F03DFB07F13001012020
:1015180000F038FB07F13801022000F033FB072107
:10152800EB68DFF8E8B12046984707F1400104204E
:1015380000F028FB07F14801052000F023FB07F124
:101548005001062000F01EFBF86AFEF76BFF6CA343
:10155800D3E90023FFF7FAF80446B86A0D46FEF708
:1015680061FF02460B4620462946FEF70FFEC7E9F3
:101578000001786BFEF756FF61A3D3E90023FFF75C
:10158800E5F80446386B0D46FEF74CFF02460B465D
:1015980020462946FEF7FAFDC7E90201F86BFEF777
:1015A80041FF57A3D3E90023FFF7D0F80446B86BEF
:1015B8000D46FEF737FF02460B4620462946FEF742
:1015C800E5FDC7E90401786CFEF72CFF4CA3D3E9CD
:1015D8000023FFF7BBF80446386C0D46FEF722FFE0
:1015E80002460B4620462946FEF7D0FDC7E906010C
:1015F800F86CFEF717FF42A3D3E90023FFF7A6F81C
:101608000446B86C0D46FEF70DFF02460B46204611
:101618002946FEF7BBFDC7E90801786DFEF702FF12
:1016280037A3D3E90023FFF791F80446386D0D4638
:10163800FEF7F8FE0B46024629462046FEF7A6FDB1
:10164800DBF8003003F00703022B04460D463AD9B5
:10165800E9464A468CB0D7E90001C9E90601D7E94D
:101668000201C9E90801D7E90401294BC9F8143076
:101678004FF0080AC9E90A0142F810AF002344F202
:10168800C001584601F0C6FBDBF8003003F0070341
:10169800022BCD4617D98CB04A46D7E90601C9E9CD
:1016A8000601D7E908011B4BC9F81430C9E908013C
:1016B800C9E90A4542F810AF002344F2C001584670
:1016C80001F0A8FBCD46CDE90A45D7E90834CDE9B4
:1016D8000834D7E90634CDE90634D7E90434CDE92E
:1016E8000434D7E90234CDE90234D7E900340A4A90
:1016F800CDE90034414630460FF0A6FEF1E600BFC2
:101708000000000080842E4124B30108F40A002060
:10171800ACCD0108C8CD0108E4CD010800000000E7
:101728002DE9F04385B0064602AF8846284C20468E
:1017380018F0EDFC28B94FF0FF300C37BD46BDE876
:10174800F083A5684021EB68204698470028F2DB23
:101758000E212B693A46204698470028EBDB78682B
:10176800FEF760FE18A3D3E90023FEF7EFFF044657
:1017780038680D46FEF756FE0B46024629462046B7
:10178800FEF704FD04461348036803F00703022B21
:101798000D460FD9E94688B002AA0F4B53610423BE
:1017A800C2E9064542F8103F00234FF4035101F007
:1017B80031FBCD46CDE90045084A414630460FF099
:1017C80043FEBAE7AFF300800000000080842E419A
:1017D80000B30108100B0020D4CE0108E7CE0108A1
:1017E8002DE9F047044688B08846174618F039FFB7
:1017F8000A220023FFF7DCFBB8F1010F06460D466D
:1018080007D102460B462046274912F0AFF80020C0
:1018180011E07F6825483946FFF724FC70B1244859
:101828003946FFF71FFC48B1204622493A4612F0D4
:10183800B9F86FF0040008B0BDE8F08730462946D3
:1018480017A3D3E90023FFF763FB06460D461046AE
:101858001946194A0023FFF75BFB80460F461046DE
:1018680019464EF660220023FFF752FB824689464E
:10187800104619464FF47A720023FFF749FBCDE969
:1018880002A9CDE90623CDE90401CDE900870B497A
:1018980032462B46204612F069F8B8E7AFF30080CD
:1018A800005C2605000000007ED101088FD10108E8
:1018B80092D101089BD1010880EE3600B3D101080E
:1018C80070B5144606460846FFF7E2F82146FFF7CA
:1018D80033F9FFF7F4FB0E4D80FB05450AA3D3E966
:1018E800002320462946FFF713FB0A4A30600023ED
:1018F80020462946FFF70CFB064A0023FFF708FBA2
:10190800726070BDAFF300800010A5D4E80000003D
:101918003AA3950040420F0070B5144606460846A3
:10192800FFF7B6F82146FFF707F91349134DFFF7FC
:10193800B7F9FFF7C4FB80FB05450BA3D3E90023E8
:1019480020462946FFF7E4FA09A3D3E900233060CB
:1019580029462046FFF7DCFA094A0023FFF7D8FAA0
:10196800726070BDAFF3008000209BF35E10000032
:1019780080A812010000000000002041D8EF2F00CD
:1019880040420F0000000000032970B504460D46D0
:1019980005D0072951D0BDE8704008F07FBF002A64
:1019A80038D0072A40F0A68058681A68584BC117E3
:1019B800C2FB0301012871F100033BDB554BC01842
:1019C80041F100014EA3D3E90023FFF7A1FA022851
:1019D80026690ED010280ED004280ED0082829D148
:1019E8002946204614F08BFC002808DA6FF0040022
:1019F80070BD0025F4E70125F2E70225F0E7464B24
:101A080033F815103D20A1FB0001FFF757F8F060EF
:101A18000020EDE71988414B33F8020B814206D1CB
:101A2800D1B2204608F04CFF0028F1DADEE7013297
:101A38000C2AF1D16FF01500DAE7002A4BD0072AFB
:101A480058D15A681D683248D11713460A46C5FB53
:101A58000032B425A3FB0501012B05FB021172F12D
:101A6800000228DB2E4BC01827A3D3E9002341F13D
:101A78000001FFF74DFAFA2825D0B0F5FA7F24D0F7
:101A8800B0F57A7F23D0B0F5FA6F22D07D28D1D176
:101A9800042529462046266914F041FC0028A5DBC8
:101AA800204B33F8151041F21710A1FB0001FFF786
:101AB80005F8F061ACE71C4BC01861F1000112A3F6
:101AC800D3E90023D5E70025E3E70125E1E702256F
:101AD800DFE70325DDE71988104B33F8020B814255
:101AE80004D1D1B2204608F0BDFE9DE701320C2A90
:101AF800F3D19FE76FF085007AE700BFAFF300806E
:101B08003AA3950000000000D8EF2F000000000065
:101B180040420F009DD14A0012CD01081ACD01089C
:101B2800ECF7170008CD01081408E8FFB0B500AFBE
:101B3800104C204618F0EBFA0346C8B90E48026864
:101B4800520711D021686C4688B06A460B4DC2E92D
:101B580005514FF400719183094942F8101F4FF461
:101B6800E25101F057F9A5464FF0FF30BD46B0BD30
:101B78000020FBE7B8B20108E00A002086CD010882
:101B88000300000110B403460A46034881680C6943
:101B98001946234610BC184724B3010808B508485D
:101BA80018F0B5FA50B9074803685B0703D0064A2E
:101BB800012111F054FC4FF0FF3008BD0020FCE774
:101BC80024B30108F40A002016CE010810B5124CFF
:101BD800C4B04FF4807104A8FFF776FC002815DD27
:101BE80000233222214601A8CDE901338DF80C30BB
:101BF80004F036FD50B904A8FFF746FA04A90246D6
:101C080001A804F0FBFD01A804F0BCFD002149F681
:101C1800404018F087FCDCE730CE0108B0B500AFD3
:101C2800044605F063F8034617480268BBB902F09A
:101C38000702022A11D9E1686C4688B06A46134D3A
:101C4800C2E905514FF400719183114942F8101F00
:101C58004FF4E65101F0DEF8A546BD46B0BD520787
:101C6800FBD0E1686C468AB06A460A4DD3614FF4EE
:101C780000731384084BC2E9055142F8103F002352
:101C88004FF41151E6E700BF040B002042CE0108D3
:101C98000300000150CE01080400000110B5124CE9
:101CA800A4B0802104A8FFF76FFB002815DD0023EE
:101CB8003222214601A8CDE901338DF80C3004F019
:101CC800CFFC50B904A8FFF7DFF904A9024601A820
:101CD80004F094FD01A804F055FD002144F62060AD
:101CE80018F020FCDDE700BF68CE010810B5124CE3
:101CF800A4B0802104A8FFF713FD002815DD0023F8
:101D08003222214601A8CDE901338DF80C3004F0C8
:101D1800A7FC50B904A8FFF7B7F904A9024601A81F
:101D280004F06CFD01A804F02DFD002147F23050AD
:101D380018F0F8FBDDE700BF7ECE0108F0B52548B6
:101D4800036803F00703022B89B003D9224A032151
:101D580011F085FBFFF7EAFE00F058F8FFF71EFFC9
:101D68001E48FFF75BFF1E48FFF758FF1D48FFF7A7
:101D780055FF0026002700240525CDE90667CDE993
:101D88000354CDE90144184B184900944FF40062FC
:101D980017480EF087FB174B17490094CDE90667E3
:101DA800CDE90354CDE901444FF4006213480EF025
:101DB80079FB134B13490094CDE90667CDE9035429
:101DC800CDE901444FF400620F480EF06BFB20464A
:101DD80009B0F0BD040B002096CE010800010020D8
:101DE800DC000020B8000020A51C0008C035002039
:101DF800200D0020F51C0008802D0020680C002014
:101E0800D51B000840250020B00B0020B0B500AF5E
:101E1800104C204618F07BF90346C8B90E480268F2
:101E2800520711D021686C4688B06A460B4DC2E94A
:101E380005514FF400719183094942F8101F4FF47E
:101E4800E25100F0E7FFA5464FF0FF30BD46B0BDB8
:101E58000020FBE700B30108100B002086CD010825
:101E6800030000012DE9F04F91B08407009302F0C0
:101E780004030293C2F3C20303F10103DDF868808F
:101E8800039205460E46059340F0BA81041D30B111
:101E9800072909D86FF01B0011B0BDE8F08F01F0D9
:101EA80007063444C6F10806009B4FF00009591E86
:101EB8004FF0040A4FF0FF330193CDF810904F46CE
:101EC800CB4653460DB1009A22600598002800F3CE
:101ED800E8809848009A824203D397488242C0F02B
:101EE800E080039AA4EB050E92074FEA9E0000F1EA
:101EF80003810F2F00F2B180002D00F0058107F15A
:101F080040020DEB020C019A0CF8200C0CF8102C76
:101F1800049801300490E7E07A285DD84B280ED861
:101F2800472859D829282DD8252852D054D82028D0
:101F38007AD02338D0F1000B4BEB000B74E04C380F
:101F48002E2849D8DFE800F07048484848484848F3
:101F5800484848484B484848484848484859484BE2
:101F68004B595959704B6D487048184B184848825E
:101F78007F4B48484B487F0000204FF0000B4FF044
:101F8800040A38E02A38C0B2012202FA00F010EA46
:101F98000E0F49D110F0625C2FD110EA020B43D02A
:101FA8006046013C5444B4FBFAF40AFB04F4002DE7
:101FB80061D0A3EB050CA444B4453FF66BAF0028F1
:101FC80068D1042B47D158F8043B23600434042318
:101FD8002AE0019A013A01924FF0000B24E011F82F
:101FE800010C6C2834D111F8023C00206C2B83467C
:101FF800C5D14FF0080A5346D3E708F1070828F07F
:1020080007080734F8E802AB24F0070435B106984E
:102018002044B0423FF63EAFC4E900AB08344FF06D
:10202800000B4FF0080A534611F8010F002878D02A
:10203800BBF1000F7FF470AF2528F5D1019B013368
:1020480001934FF0010B4FF0040AECE7584694E770
:1020580000208346A5E7082B02D06FF015001BE788
:1020680008F1070828F00708F8E80223C4E9002364
:1020780008340823D8E768B9042B02D108F104080A
:10208800A4E7082BE9D108F1070828F0070808F1A8
:102098000808EDE7059A013A059258F8042B0092D2
:1020A80010E7039A900720D5A4EB050E4FEA9E008F
:1020B8004FF0010CBEF5007FCFD20F2FCDD8F5B170
:1020C80007F140020DEB020EC0B2019A0EF8200C87
:1020D8000EF8102CBCF1000F3FF41AAF60F07F002F
:1020E8000EF8200C09F101090137C5F10802043482
:1020F80006924FF6DA7E97E74FF0000CDAE7BCF16C
:10210800000F01D00136EFE7029802360028EBD124
:102118000098CDE90631FEF7B7FFDDE90631064440
:10212800E2E7631BB3F5806F97D23DB9A6F10804C7
:10213800E018B1E6B8AE0108F4040208029A286073
:102148009B082B709DF81030C2B1EB7085F8029097
:10215800B9F1000F05D008A80022C5F1010C97427B
:102168000ED1C5F101030DF120084FF0000A0193CB
:102178000DF1300B574512D1601B8DE66B70E5E70A
:1021880010F8013B190608D50CEB040EB64503F010
:102198007F033FF67FAE04F8013B0132DFE7B9F178
:1021A800000F03D098F90020002A17DB029BD3B157
:1021B8001AF80B2004F8012B0022019B181910446F
:1021C800B0423FF667AE98F8000004F8010B00999A
:1021D8000392204618F0E0FB039A14440AF1010A1E
:1021E80008F10108C6E798F8002055F82230009356
:1021F800029B45F822300098FEF746FF421CDCE7B8
:102208006FF00D0048E600BF2DE9F04F97B000AF22
:1022180090F802A0D7F880B03B62CBF3C003044625
:10222800FA62BB61894641B9457800780AEB8000BB
:1022380020444D4517D8A0EB0409E378FB61BAF1B7
:10224800000F02D01BF0010F16D1FB6953BBFB6ACC
:102258001BB13A6A4946204698474D4628465C379E
:10226800BD46BDE8F08F461C3046FEF70DFF013035
:10227800304409F10109DCE7237862687A62FA6A76
:102288009900796104EB8301002A40F004814D46EE
:102298000E4601EB0A094FF000084E4550D101EBFC
:1022A8000A0610E01BF0020FD1D023789A007A6159
:1022B80062687A62FA6A04EB8301002A7BD14D4690
:1022C80001EB0A0690461BF0050F0CBF0223012301
:1022D800FB62FB6906EB430A0BF00203BB6256453F
:1022E800BCD016F8021B16F8013C54F823909B4BFF
:1022F800994502D39A4B99453AD3BB69002B44D0F0
:10230800786A10F0AEFC00283FD09648036813F0B6
:10231800060F13D0E9468AB06A46934B53617B6A2D
:10232800C2E906314FF400731384904B42F8103F12
:1023380000234FF4125100F06DFDCD46023DCEE76B
:1023480016F8013BF96254F82300FEF79DFED7F812
:102358008430F96A01304BB1D7F8883098453EBFD0
:10236800D7F8843023F8180008F10108054494E7E9
:10237800BB6923B1786A10F074FC0028C5D11BF042
:10238800010F05D1FB6AED1AA9E7BB6A002BA6D09D
:102398004846FEF779FED7F8843053B1D7F888302D
:1023A80098453FBFD7F88420431C22F8183008F11D
:1023B8000108054493E7BAF1000F72D01BF0040638
:1023C80072D0D046002607F1480052463B61B962F8
:1023D80018F0E2FAB96A3B6901EB0A02BA62FA69D3
:1023E800F9695200FA60BA6A02EB41023A610BF0ED
:1023F8000202BA603A69B96A8A4257D162787A6247
:102408001BF0020F32440CBF4FEA580100211BF0A9
:10241800010FD2B240F09F801BF0040F14BF40465A
:102428000020BB616270A070E1703A6A7969FB6A4A
:1024380020469847051EFFF611AFBB6923707B6ADB
:102448006370FB69E37041463A6AFB6A84F802A04C
:1024580007F148009847B0F10008C0F2BB807B69DB
:102468003A6AA9EB0A01C91AFB68C91AD7E90A032B
:1024780098470028C0F2B080A84408EB00054FF048
:10248800000B07F1380AB34572D300213A6AFB6A98
:1024980008469847E2E656464FF0000807F138002C
:1024A80093E75646D04697E7B04695E7BA6A12F8DA
:1024B800021BBA6212F8015C284A54F825009042BF
:1024C80002D3274A90421ED3BA6932B1786A7B6038
:1024D80010F0C7FB7B6800288CD1BA6802BB08F1F2
:1024E800280207F1300C08F10100944407F1580262
:1024F80052FA80F008F102080CF8101C5FFA88F80C
:1025080000F8105C76E7BA693AB1786A7B6010F037
:10251800A8FB7B6800287FF46DAF1BF0010F09D082
:1025280006F1280207F13000711C161806F8205C25
:10253800CEB25FE71BF0040F3FF45CAF08F128024E
:1025480007F1300008F1010102EB000808F8105CFF
:102558005FFA81F84EE7002063E700BFB8AE0108D4
:10256800F4040208BC0A002004CF0108040000019A
:102578001BF80A3087F8373054F82390D7F884309E
:102588002BB3D7F888309B4521D2D7F8843033F85D
:102598001B803A6AFB6A012107F137009847002837
:1025A8001ADB0544B8F1000F06D14846FEF76CFD6A
:1025B80000F101081FFA88F83A6AFB6A4146484662
:1025C8009847002808DB05440BF1010B5BE74FF047
:1025D8000008DEE7454641E605463FE6014B186040
:1025E800704700BF6004002080B505460E461746B8
:1025F80098460EF0B1FA034618F050FCDFF8189030
:10260800044649F80030424630463946A84754F84F
:10261800090003F0E3FB00BF08000000034A536809
:1026280023F0020353600020704700BF002004E03D
:10263800EFF31180102383F31288BFF36F8F094BD8
:102648001A683AB9084A116841F480711160116832
:10265800C905FCD51A6801321A6080F31188BFF3E6
:102668006F8F7047581B00200070004038B5EFF39B
:102678001185102383F31288BFF36F8F104B1A68EC
:1026880092B9104C237853B90F48036813F0060F1A
:1026980003D00E4A022110F0E2FE0123237085F3D5
:1026A8001188BFF36F8F38BD012A01BF08490A6836
:1026B80022F480720A601A68013A1A60EFE700BFD4
:1026C800581B0020E2240020240B0020B8CF01086A
:1026D80000700040084B1A6842F400721A601A68C9
:1026E80042F480621A601A6842F480721A60034BDE
:1026F800034A1A60704700BF00200240D406002039
:1027080000093D002DE9F047DFF8588004460746E8
:102718004FF0010914B93846BDE8F08794FAA4F5DA
:10272800B5FA85F509FA05F32E0108EB05156FEAE8
:10273800030A24EA03042B7B002BEBD058F806305D
:102748001B694BB94644042273682846196807EA8E
:102758000A0710F000FEDDE7284698470028D9D17F
:10276800F0E700BF88B9010830B51049104889B0B2
:10277800002217F0BEFF0F4D0F4900220023CDE9BC
:10278800062300240E23CDE90334CDE901440B4B85
:1027980000944FF4407228460DF084FE08492846FC
:1027A8000DF0B2FD204609B030BD00BFCD270008AE
:1027B80098120020D80D0020003E0020152B00089C
:1027C800F9CF010801480DF0F7BB00BF980B0020B6
:1027D8002DE9F047804620480F4610F08CFD06464C
:1027E800002832D000252846BDE8F087237B83B136
:1027F8002368DB680BB120469847636883F8069026
:1028080023681B69CBB9636804221968204610F055
:10281800A2FD013610345445E8D3B8F1000FE2D0D8
:10282800002DDFD02846FFF76DFF0546002FF7D0B3
:102838000021642017F076FEF2E72046984700282A
:10284800E1D009FA06F31D43E3E7044CDFF810A0D2
:1028580005464FF00109DEE76C1B002088B9010826
:1028680098B9010808B5034608462BB1044A136015
:1028780000F072FD002008BD6FF01500FBE700BFF7
:102888006404002010B5044C237813B903480DF0F4
:1028980093FB0123237010BDE3240020980B002034
:1028A80010B504460B4810F026FD5CB1BFF35B8FF2
:1028B800094B53E8001F013943E80012002AF8D1F8
:1028C800BFF35B8F054817F020FF0548BDE81040AF
:1028D8000DF072BB641B0020681B002098120020BA
:1028E800980B00200020064BBFF35B8F014653E88E
:1028F800000F43E80012002AF9D1BFF35B8F70473D
:10290800641B002070B5FFF7EDFF084C084E054624
:10291800B44200D370BD63685B792BB123685B68F0
:1029280013B12946204698471034F1E788B90108C1
:1029380098B9010810B5044C0449204610F0C8FAAB
:10294800034B1C6010BD00BF600A0020F0BD0108E9
:102958005C1B00200E4A0F48002310B513700E4A66
:1029680013600E4A4FF47A711360FFF77BFFFFF78D
:10297800E1FF00F079F90A4B0A4918468B4200D367
:1029880010BD1A1A5C681211013222711033F5E772
:10299800E424002019330108641B0020681B002070
:1029A80088B9010898B901080146002201480023A6
:1029B80010F0AFBA600A0020014810F048BB00BF11
:1029C800600A0020024B0146186810F094BB00BF53
:1029D8005C1B0020014810F0C9BB00BF600A002042
:1029E8002DE9F041324B187800285FD0FFF7E4FF5B
:1029F8000446002856D12F4B2F4C1B68002B12DDA4
:102A080017F02FFE0A220023FEF7D2FAD4E900328B
:102A1800C01A40F2E93361EB0201984271F10001FA
:102A280001D3FFF76FFFD4E9003213F57A7342F14F
:102A38000002C4E90032BDE8F041FFF7CBBF6B6884
:102A48005B793BB121784B0717D52B6821461B686A
:102A58002846984710354545F1D32046FFF7B2FF81
:102A6800BFF35B8F154B53E8001F013943E8001291
:102A7800002AF8D1BFF35B8FBDE720462688C1F353
:102A8800C20700F0A7FAC6F382160246002EDCD071
:102A98000028DADB01233946284600F095F9B042D0
:102AA800D8D3D2E7064DDFF81C80D4E7BDE8F08123
:102AB800E3240020641B002090120020681B0020E3
:102AC80088B9010898B9010870B50D4D297861B920
:102AD8000120FFF77DFE0B4C0B4EB44206D3FFF7E7
:102AE8007FFF0028FBD101232B7070BD63685B79E1
:102AF8001BB1236820469B6898471034EDE700BF58
:102B0800E424002088B9010898B9010800212DE9BA
:102B1800F0470846FFF75CFE044658B34FF4FA78CE
:102B28004FF0000918F0BAF91B4B1C4A1B581360E8
:102B380033B11B4B1B68092B02DD1A480DF03CFA18
:102B4800194FDFF860A0002544B12046FFF7DAFDF1
:102B5800044618B94FF0FF384FF0FF39FFF740FF30
:102B6800064628B9B5B942464B4650460DF05EFABE
:102B78003546E9E74FF0FF384FF0FF39D2E72B68C9
:102B88009B691BB100221146284698471035BD4263
:102B9800F5D3E8E7054DFAE708000000601B0020C0
:102BA800681B0020980B002098B9010888B9010813
:102BB80013B5184810F09FFB174B1B7873B1EFF350
:102BC8001184102383F31288BFF36F8FFFF708FF78
:102BD80084F31188BFF36F8F02B010BD0F4B1B68D1
:102BE800002BF9D050B900220023CDE900230C486E
:102BF80042F2107200230EF023FBEDE70928EBD117
:102C0800074817F082FD074802B0BDE810400DF0F4
:102C1800D3B900BF681B0020E4240020601B0020FB
:102C280098120020980B002010B5064B1B6804462C
:102C380098472146A060044810F0EAF9BDE8104022
:102C4800FFF7B6BF64040020600A0020044A054B61
:102C58009B1AB1EBD30F34BF52F8310000207047F4
:102C680060B8010888B901080B480C4B30B51B1A2D
:102C78000B4CDB0800210430994200D130BD10F81C
:102C88003120256802F0070225F007052A4344F899
:102C9800042B0131F0E700BF60B8010888B90108CA
:102CA800A40A0020F8B50B4F0B4DED1B0646ED08A6
:102CB8000024AC4203D14FF0FF342046F8BD57F84A
:102CC800340020B13146FEF7CDF90028F5D00134A3
:102CD800EFE700BF60B8010888B9010800282DE9AE
:102CE800F047884615461F461DDADFF89890264EAD
:102CF8004FF0000AA6EB090636095446B24509F119
:102D0800100902D12046BDE8F08759F80C0C3B4663
:102D180000792A464146FFF7E1FF844238BF04465E
:102D28000AF1010AEAE7194B194AD21AB5EBD20F90
:102D380026D203EBC5031C79BC4228BF3C46154E7E
:102D4800C0B200EB400056F825300722824023EA43
:102D5800020304F00702824013430021032223FAEE
:102D680002F000F00700814202F1030238BF014679
:102D78001E2AF4D123F007030B4346F82530C1E798
:102D88000024DCE788B9010898B9010860B801088F
:102D980088B90108A40A0020F8B5094D094BED1AB5
:102DA80006460F46ED080024AC4200D3F8BD0021CA
:102DB80022B23B463046013410F0C5FAA4B2F3E71C
:102DC80088B9010860B8010870B14168097973B120
:102DD800002A17DBCBB20C4951F8220003EB43035E
:102DE800D84000F0070070474FF0FF31EFE7074980
:102DF8000748401AB2EBD00F3ABF01EBC20108797D
:102E08001846704704207047A40A002060B80108DB
:102E180088B901082DE9F04F8FB004AFC1F34A28F3
:102E2800B8600D4691467B600C0DB8F1000F67D075
:102E3800002607F114034FF0040B4FF00A0AC7F8F5
:102E48000C80C7E907667E620193CDF808B0CDF81B
:102E580000A007F11C03F96832464846FFF7D4F989
:102E6800B0F5006F034620D32A48036813F0060F15
:102E780017D06C468AB0D9F8041004AB264DC3E9C4
:102E8800055140F2FF71D9611A464FF40071198457
:102E9800224B42F8103F4FF412513346FFF7BAFF66
:102EA800A5462C37BD46BDE8F08FC0F30A0804F1EB
:102EB8001700184420F0070080083B60FFF774FDF6
:102EC80068F35325044690B13B68154AC7E90836AC
:102ED80000F1100107F11403F961CDE900A3CDF861
:102EE80008B0F96807F11C034846FFF78DF968F345
:102EF80053257B68B9682A46204610F060FAD0E767
:102F080004F1170020F007008008FFF74DFD044684
:102F1800EDE700BFFC0A00200ED001080400000104
:102F2800993301082DE9F04F87B0DDE91279DDE921
:102F3800105A0446039193469846DFB1CDF80090A5
:102F48003B46524610210020CDF81490FEF78AFF28
:102F5800B0F5006F06460ED31C48036813F0060F41
:102F680030D01B4A40F2FF73022107B0BDE8F04F92
:102F780010F07EBA3E4605F11700304420F00700F5
:102F880004F007048008FFF70FFD0BF0070BE400BF
:102F980044EA8B1444EA462444EA0554054640B101
:102FA8003FB1CDF800903B46524631461030FEF70F
:102FB80059FF039943462246284607B0BDE8F04F1B
:102FC80010F0FDB907B0BDE8F08F00BFFC0A002083
:102FD8004DD00108406820B1034BC01A40F38F0060
:102FE80070474FF0FF307047A40A00200EB403B5B5
:102FF80003AB014653F8042B0448019303F08CF902
:1030080002B05DF804EB03B0704700BFDB34010881
:10301800CA0605D48B064CBF02490349FFF7E6BF31
:10302800704700BF5AD4010885D001082DE9F04F38
:1030380089B09B46149B06939DF84CA0159B05935D
:10304800169B179E049304460D469046BAF1000F4E
:1030580000F09D8006F48073079310F072F906F073
:103068000209024600283ED091492046FFF7BEFFDC
:103078000746B9F1000F08D016F0440F35D18D4935
:103088002A462046FFF7B2FF074406F0010353B172
:10309800894B8A4953F82A20894B2046002A08BFC1
:1030A8001A46FFF7A3FF06F48073002B49D006F0F9
:1030B8000803002B63D1B8F1000F66D0814942465E
:1030C8002046FFF793FF0546069B3D44002B6DD134
:1030D800049B002B73D1F30700F1E48031462046AE
:1030E800FFF796FFD8E00746C3E7774B1868002834
:1030F800CAD0764B4FF47A791B68B5FBF3F54FF4D9
:103108006163B5FBF0F100FB115509FB05F54FF0C4
:103118003C0CB1FBF3F203FB1211B5FBF0FEB1FB63
:10312800FCF300FB1E550CFB131109FB05F5009180
:10313800B5FBF0F56649CDE901E52046FFF756FFF6
:10314800A2E706F00803EBB1624B634953F82A2063
:103158002046FFF74BFF0546B8F1000F05D0594947
:1031680042462046FFF742FF0544BBF1000FABD0B3
:103178005A495A462046FFF739FF0544A4E74FF05D
:10318800000BE1E706F00805E6E745469CE7BBF1DA
:10319800010F069B06D1002B64D1049B002B7BD02A
:1031A80000250CE0002BF8D04D485CE04D48069B0C
:1031B8004D4922460FF024FD049B002B68D0DFF810
:1031C8002C81DFF82C91049F3146102F204628BF10
:1031D8001027FFF71DFF4FF0000B5D4545DC059BF1
:1031E80049461A782046FFF701FF4FF0010B1BF004
:1031F800070F03D141462046FFF7F8FE5F453BD94C
:10320800059B494613F80B202046FFF7EFFE0BF10C
:10321800010BBBF1100FEAD1364920464FF0000BE5
:10322800FFF7E4FE5A46059B9A5CA2F120015F294C
:1032380028BF2E2230492046FFF7D8FE0BF1010B9C
:10324800BBF1100F1DD01BF0070F03D141462046DC
:10325800FFF7CCFE5F455A46E5D841462046FFF7C2
:10326800C5FEEBE71F485546A1E741462046FFF754
:10327800BDFE0BF1010BB0E720492046FFF7B6FE73
:10328800C5E7059B3B440593049BDB1B04939AD13C
:10329800BAF1000F7FF41FAF204609B0BDE8F04F28
:1032A80010F00AB9064A05492046FFF79FFE15E7C0
:1032B800BFDC01088DD0010804BE01087ED60108D4
:1032C80088D00108B2D00108741B0020701B0020B0
:1032D80096D0010818BE0108B6D00108BCD0010874
:1032E80011350108DB34010821630008C9D0010841
:1032F800C1D00108CBD00108A3DC0108C7D0010860
:1033080073B542F20F738B4228BF0B4605680F4A0C
:103318000446052168460EF097F863680C495B6817
:1033280006460B22284610F0B9F86368324669460B
:1033380028465B6810F0B2F8636806495B681B2290
:10334800284610F0ABF802B070BD00BFDDF20108EE
:10335800E9D00108CDD00108074A00210123904295
:1033680006D8064A01B901231360054B1860704757
:1033780040085B000121F2E740420F00701B00206B
:10338800741B0020014B0360002070472CBE01080D
:1033980070B5104B1C680D46B4B10F4B196800236B
:1033A8008B4202DB6FF0010070BD224612F8106BF1
:1033B800864202D001331446F2E7E06816F0A7FE11
:1033C80028B12C600020EFE76FF00C00ECE76FF0FD
:1033D8001200E9E7680400202CBE010810B5044675
:1033E80008F040FD03490246204610F0BFFA0020CD
:1033F80010BD00BF2CD1010837B513460022019239
:10340800054601AA58680A2101F09CFC019C4CB9A8
:1034180020EAE0700A2180FB010117F083F82046BA
:1034280003B030BD22460349284610F0BBFA019C80
:10343800F5E700BF58D1010808B5034A034910F061
:1034480095FA002008BD00BF45D201084FD20108F7
:10345800F7B517460023054601AA0A21B868019363
:1034680001F070FC1749C6B2284610F08DFA019C8D
:1034780044B122461449284610F094FA019C20468B
:1034880003B0F0BD042E09D910493246284610F081
:1034980089FA284610F0C2FA0124F0E77868FFF7A5
:1034A80001FC021E07DA7A680949284610F07AFA00
:1034B8006FF01504E3E7334612B2214620460FF0B9
:1034C80042FFDCE77AD20108E0D2010807D30108FD
:1034D8001ED3010807B500230090694604488DF8FB
:1034E80004300DF095FC9DF8040003B05DF804FB72
:1034F8002B36010810B5044608F096FC0749024629
:10350800204610F033FA2046054910F02FFA0548F6
:1035180021460DF097FC002010BD00BF7DD30108A7
:103528009CD301083135000870B58EB004460D46AD
:10353800D0F89C6016F036FF034617F0AFFC214A1E
:1035480021491058214A002B18BF1A460092204AD8
:103558002346844218BF0A4628461E4910F006FA38
:10356800D4E90A23CDE90023284694F90E30227BBA
:10357800194910F0FBF906A9202220460CF0D4FEC8
:10358800636E16490246284610F0F0F905A9204650
:1035980016F016FF024628B11149284610F0E6F940
:1035A8000EB070BD059B6422F11A4A430091B2FB2C
:1035B800F6F20C49CDE901622846324610F0D6F9F8
:1035C800EEE700BF08000000C9D00108A6D3010833
:1035D8008FE60108A9D30108B5D30108E1D3010892
:1035E800F8D3010825D40108F0B5002591B00446A8
:1035F800294608AF1C2209A817F0F6F9134E1A221B
:103608002021384617F0F0F9214611480DF01AFC30
:1036180007AA4FF40061304616F0C6FE079A0097D5
:10362800C2F5006164234B43DB0A05934FF4006342
:10363800CDE90313CDE90132204606492B46A6F110
:10364800400210F093F9284611B0F0BDC04900209F
:103658006136000871D4010870B50446D0F89C6042
:1036680088B00D4607A916F0ABFE024628B10F49EF
:10367800284610F07BF908B070BD204616F092FE7F
:10368800079B0096F11ACDE90131094B64224A43A0
:10369800002818BF0346B2FBF6F20649CDE90362DB
:1036A8002846224610F062F9E5E700BFF8D3010882
:1036B800A6D30108BAD4010838B513460546102226
:1036C800586800210DF060FF0446FFF703FF38B982
:1036D8000E492246284610F065F96FF0150038BDEE
:1036E80017F0DCFB0A4B1B589C4204D109492846B9
:1036F80010F058F9F1E720460CF0EAFF2846064991
:10370800224610F033F90020E9E700BF1ED5010872
:103718000800000039D5010861D5010838B51346FD
:1037280005461022586800210DF02EFF0446FFF7C9
:10373800D1FE38B90E492246284610F033F96FF009
:10374800150038BD17F0AAFB0A4B1B589C4204D140
:103758000949284610F026F9F1E720460DF0D6F879
:1037680028460649224610F001F90020E9E700BF83
:103778001ED5010808000000A0D50108C6D501081B
:1037880038B5134605461022586800210DF0FCFE96
:103798000446FFF79FFE38B90E492246284610F026
:1037A80001F96FF0150038BD17F078FB0A4B1B586C
:1037B8009C4204D10949284610F0F4F8F1E7204664
:1037C80002F00CFB28460649224610F0CFF80020EC
:1037D800E9E700BF1ED501080800000001D601086E
:1037E80026D601082DE9F04F87B0044668460CF04C
:1037F800E9F8009F284ADFF8A4A0DFF8A4B0242342
:1038080003FB00770821204610F0A3F8009DBD4275
:1038180003D3002007B0BDE8F08F2B680BB11A78EE
:1038280032B92B461F4A142101A80DF00DFE01AB39
:1038380052460821204610F08CF8284616F067FCFE
:10384800194B1A4A002808BF5B460821204610F089
:1038580080F82B6AA3B11E6896B1336883B1144A05
:103868000821204610F075F8B1464FF0000833687B
:10387800104A434506D8104A0821204610F069F836
:103888002435C4E759F8043F0821204610F061F8B0
:1038980008F10108EBE700BF6DD601087CD60108E6
:1038A80064D6010877D601085ED601080DDD010847
:1038B80081D601087DD601085AD401082DE9F041C6
:1038C8001446884607461022606800210DF05CFE09
:1038D800B8F1020F064607D8254A202308213846A2
:1038E80010F037F8336816E00A220021A0680DF0BE
:1038F8004BFEC5B21E4A2B460821384610F029F85F
:10390800B8F1030F1AD1102D0CD0202DEAD0082DB4
:103918000BD13378DBB2174A0821384610F019F872
:10392800002009E033889BB2F5E73846124A08219F
:1039380010F00FF86FF01500BDE8F081E068102274
:1039480000210DF021FE0D4A0346044608213846A1
:103958000FF0FFFF102D06D0202D07D0082DE4D141
:10396800E4B23470DCE7A4B23480D9E73460D7E736
:10397800C2D60108EDD60108D7D60108FED601083F
:103988002DE9F04F87B000230193524BDFF848A18F
:1039980091460122074688461A6002F037FD4FF02B
:1039A800FF3520262C4649465246404602F052FD35
:1039B800411C06D16A1C41D1484938460FF0F2FF34
:1039C80017E073281AD0772828D0612811D1DFF89A
:1039D80010B101AADBF80000102101F0B3F9019B36
:1039E8000546002BDFD0DBF800203E4938460FF0B3
:1039F800D9FF6FF0150007B0BDE8F08FDFF8E0B031
:103A080001AADBF80000002101F09CF9019B0446A3
:103A1800002BC8D0DBF800203349E7E7DFF8C0B057
:103A280001AADBF80000002101F08CF9019B064691
:103A3800002BB8D0DBF800202C49D7E7631C01D154
:103A48002B49BAE75FFA86F8C6F3C406002C3FD0C4
:103A580002AB29461A46A6EB050C0CE0B8F1100F8C
:103A68001DD0B8F1200F20D0B8F1080F2AD108785E
:103A7800187031443344A64203D80CEB01001028D7
:103A8800ECD9102CA14628BF4FF0100929464B4607
:103A9800384601F02FF81035A4EB0904D6E708885A
:103AA80080B21870000A5870E3E7086818704FEA87
:103AB800102E83F801E04FEA104E000E83F802E062
:103AC800D870D6E70B4A082138460FF042FF90E736
:103AD800204690E7DC0400204CD7010853D70108A2
:103AE800301F002012D7010825D7010838D7010850
:103AF80070D70108D7D6010870B50F4E0446337841
:103B08000D4671B123B1BDE870400C490FF04ABFB2
:103B1800012333700A4920460FF028FF0123337030
:103B280004E083F001033370002BF3D129462046CB
:103B3800BDE870400FF090BFE52400208AD7010847
:103B4800C5D7010870B504463B480378182B02D145
:103B58000B78112B31D0013A0B468D18AB4225D189
:103B68008B5C0A780370A2F13003092B334C04D91B
:103B780022F02003413B052B04D823683049CA545E
:103B8800013323602368022B33D110222C480021F3
:103B98000DF0FAFC2B4A136803F8010B13602A4A4C
:103BA8001368013313600023236022E013F8016BCC
:103BB800182ED3D11E78112ED0D1234D23492A682F
:103BC80020460FF0D3FE20460021FFF795FF204B3B
:103BD800187870B91F4A2B681168042B0ADC08B1E1
:103BE80011602B6013F003010BD1126813681BBA24
:103BF800136070BD086800BA41F8040B043B01204B
:103C0800EBE75B4203F0030358BF5942022904D192
:103C1800126813885BBA9BB2EAE70329E9D11068F6
:103C280002681104C2F3074301F47F010B4302F455
:103C38007F4213430360DCE7E6240020781B002062
:103C4800E8240020841B00207C1B0020EFD70108FB
:103C5800E7240020801B00202DE9F84F0C462B4953
:103C6800DFF8AC80DFF8AC90DFF8ACB000230B6075
:103C78002A4988F8003006460B601546012C2F4665
:103C880055F804AF1ED902224946504616F0E2FE06
:103C980080B99AF80220003A18BF012292442049BC
:103CA8000222504616F0D6FE30B9012388F80030BB
:103CB800013CE3E70022F1E749465046FDF7D2F917
:103CC800A8B904370022114678680DF05DFC154B41
:103CD80000221146186078680DF056FC124B134903
:103CE80018603046FFF708FF0020BDE8F88F9AF803
:103CF80000202D2AE6D19AF80120002AE2D0524667
:103D0800594630460FF032FED2E700BF781B00203C
:103D1800E724002009D801080FD801087C1B0020DF
:103D28000CD80108841B0020801B00204D3B000894
:103D380007B50A4816F0EBF960B1094A0749126855
:103D4800084804230093012300F03AFF002003B041
:103D58005DF804FB6FF01200F9E700BFBCB1010881
:103D680058BF010898B9010810B54468C4E90012A1
:103D7800A36042681346402153F8404B5362516395
:103D8800002302F13801C2E90413C2E90A33C2E987
:103D98000633082113631162C2F8B830A36823B14F
:103DA8009B6C13B1044920469847A3689B6A0BB1E2
:103DB80020469847002010BDC53D00082DE9F3476F
:103DC80005460C4683685B6C03B19847AB685B6B30
:103DD80073BB4FF0000904F1240704F12808218E71
:103DE800238D626B5B1A9BB2D31A934228BF13468A
:103DF800414601AA38460FF0D2F98246002844D03D
:103E0800AB6801999B69002B33D002462846984736
:103E1800064688B33246414638460FF0F6F956450D
:103E28004FF00109DBD0D4E901310020984703E0C5
:103E3800284698470028CCD1AB685B6A002B37D15D
:103E4800628BE38A9B1A226A9BB2934204F11007A1
:103E580004F11A0828BF1346414601AA38460FF054
:103E68009EF9064658BB28460FF0F1FBC4F8B86027
:103E780031E06FF05706CDE70246414638460FF06D
:103E8800C4F9B9F1000FD7D0CDE71748036813F08C
:103E9800060F03D0154A02210FF0E1FAAB689B69BF
:103EA800002BEED001220DF1030128469847E8E7E0
:103EB800284698470028C3D102B0BDE8F087AB6810
:103EC80001995B6963B10246284698470246414614
:103ED80038460FF09AF9D4E9013101209847EBE709
:103EE8006FF05702F3E700BF180B002076D90108DE
:103EF80010B581680446183101F0B6F9A168034A83
:103F080020461831BDE8104001F046B9B8D901087B
:103F180038B58368D3F87832DB0704461DD4C06906
:103F280010F0BFFA606803685B689847054620B9D7
:103F3800E06810F084FCA3681D75A3685B6C13B17E
:103F4800294620469847A36816F0A8FF0022C3F820
:103F58002023034B185801F041FF6FF00F05ECE7E1
:103F68000800000001490FF010BC00BF5AD4010836
:103F7800F7B504468068D0F878325A070D4605D55B
:103F880000210FF02AFCE06810F02BFCE368DB68E6
:103F980073B9002D3BD0A66806F1560738460FF0D6
:103FA80001FC002835D0394606F5AB70FDF764F8FA
:103FB800A268E0680DF106035632294610F014FC99
:103FC80058B9A06800F5AB715630FDF755F8A068F0
:103FD80056300FF0E7FBADF80600204610F02FF83A
:103FE800A368D3F874329B0603D50B4960690FF0B8
:103FF800CCFB204600F00CFFA268BDF80630A2F802
:104008005230A2682046A2F850300FF07DFF03B06E
:10401800F0BD86F85601CBE720BB01082DE9F04F2B
:10402800A7B004465422002111A816F0DDFC002395
:10403800CDE90533A36820465633029310F006F8FD
:1040480020460FF04AFF10B96069FFF78BFFA068A0
:1040580014220021183016F0C7FC20460FF0E3FEAA
:10406800A168E068B1F850205631002610F0F3FB43
:10407800204610F082FC4FF0FF37B24603960DF150
:104088004408B3463546B146DDE90532012A6DD00C
:10409800132B6ED85FBBBBF1000F0AD0204610F07F
:1040A8008DFCA2681423563211A90DEB03000FF002
:1040B80039FDB9F1000F0CD099F81130FE2B08D159
:1040C800059B26AA02EB830252F8542C0AB101334D
:1040D8000593A068059D436A002B40F0B680CEB1D9
:1040E800C3699E422DD00D9600F1180524E0029A6E
:1040F8000223414606A80FF015FD0699D8F80420BA
:104108000292034631B101290AD148B16D4A2046CD
:1041180010F04EF86FF00705284627B0BDE8F08F7D
:10412800059B002B34D0D8F8000001F0CFF898B1E7
:1041380066B1A5680D9618350CAE0FCE0FC533685D
:104148002B602046FFF7D4FE0125E5E75E4A0121F2
:10415800204610F02DF8DDE7059BCBB1D8F80020FC
:104168002946204601F054FA022809D1059B132B51
:1041780091D9069B022B8ED1544B554A0121C6E793
:10418800032805D0059B013305934FF0010B7BE70E
:10419800039B33B9D8F8001007AA48460FF0B9FDB9
:1041A800054608F10408013F9DB3EB68BBF1000F19
:1041B80008D0F3B120460FF049FF20460FF0A4FEC7
:1041C800444AC4E7ABB1A368DDF814A0AE4603F1D6
:1041D800180CBEE80F00ACE80F00DEF80030CCF891
:1041E8000030AB682BB96B7CFE2B04BF2F7C07F12A
:1041F800FF37D5F804C0BCF1000F08D0AE46BEE8C2
:104208000F000CAE0FC6DEF8003033606646A946D4
:1042180003E0059B53B101230393069B17B9022BB7
:104228007FF432AF059B013305932DE7A368DB6A62
:1042380013B1DB68002BEED1274B0093274A119B63
:10424800012120460FF0B4FFE5E790F82830A5EBF0
:104258000A05BBB190F829104FF6FF72FF2918BF65
:104268000A469D4202D313449D420BD983691C4AD6
:10427800012120460FF09CFF2046FFF739FE6FF022
:10428800150549E701210FF09DFAA06800F5437074
:104298000FF0BCFAA36811AA294602EB8A025B6AEE
:1042A800204698470546A0684FF0FF324FF0FF338D
:1042B80000F543700FF051FAA06800210FF082FA60
:1042C8002AE700BFC6D90108DAD901083BDA010894
:1042D80039D30108F8D9010827DA01083ADD0108BD
:1042E8005FDA010810B5836802221A7583689B6C2F
:1042F8000446BBB90FF008FA8368D3F87832DB04B8
:104308000BD50321084B094A0FF052FFA0686FF440
:10431800805100F51E700FF011FA2046BDE81040DC
:1043280000F0FCBE10BD00BF7ADA01087ED6010895
:104338002DE9F04F04468068B1B0012100F51E70E8
:104348000FF0EDF9A3681B7D022B20D10023099300
:10435800A36860689E6C03681D6909AB0EB31022E0
:104368001BA9A847099B93B1A06801210FF02AFA5D
:10437800099A1BA92046B047A06800210FF022FA2D
:10438800A3689B6C002BE3D12046FFF7ABFFA06826
:104398006FF0010100F51E7031B0BDE8F04F0FF06D
:1043A800CDB901220DF12301A847099B002BEED0BE
:1043B8009DF923209DF82330A068002AC8DB427DA0
:1043C800032A00F2F482DFE812F0040075028C027E
:1043D800F2020D2B67D00A2B43D0B0F87822092BB4
:1043E8006FF3CA02A0F8782272D029D8002B00F007
:1043F8000381082BA06800F0E9810246D2F8741204
:10440800890740F1F980013B162B00F2F580DFE8BF
:1044180013F0B702FA01FE01F601B1021002F3002F
:10442800F300F300F30014021802F3002D02F30066
:104438003202F300F300F300F3003402F300490200
:104448001B2BA06841D07F2B00F0CC81A3F1200169
:104458005E290246D2D801210FF0BFF99DF823103A
:10446800B8E0D0F87822C2F3C7022AB1D0F878228F
:10447800C2F3C7020A2AC0D1B0F8782263F3CA028D
:10448800A0F87822A568B5F85010C1B928460FF0F1
:10449800A4F9E06810F0A5F96069FFF763FD20460C
:1044A800FFF720FF54E7D0F87822C2F3C702002AAA
:1044B800E2D0D0F87822C2F3C7020D2ADBE7204603
:1044C800FFF7ACFDC5F82403E9E70123437593E042
:1044D800A068D0F874329B0740F18E8001210FF05C
:1044E8007CF9A068B0F85030FF2B00F08580B0F858
:1044F800522000F1560100F5AB7016F04DFAA36892
:10450800B3F852201344002583F85651A2681BA91A
:10451800142302F5AB720BA80FF004FB0B991429B6
:104528006AD830AB03EB810343F8545CA368B3F853
:104538005220002A52D0134493F85530202B02D031
:10454800093B042B4AD800294BD100250A950A9B20
:1045580030AA02EB8303002653F854AC50460FF000
:1045680021F9B3468146B046374616AA3946284649
:1045780000F0AEFB0346002842D1012E68D10A9B09
:1045880030AA02EB830353F8540C0FF00BF9A2681E
:10459800064618324146284600F09AFB0568284628
:1045A8000FF000F9864205D0821B92B2A919204665
:1045B8000FF045FEA068B0F85230034493F8563027
:1045C800202B34D0093B042B31D9D0F87432DF07C3
:1045D80032D42021204600F069FD0DE00129B4D92C
:1045E800013900200CAB009301900AAB1BAA0FF015
:1045F800BBFB05460028AAD160690FF033FAA7E68D
:104608001B6803934A465146184616F023FA60B9C8
:10461800039B1846FCF738FD584538BF58461FFA23
:1046280080FB002E08BFB846013601379DE70121FF
:1046380020460FF09DFCDFE700210FF0D8F820217D
:10464800204600F033FDA06801210FF0D0F8D3E731
:104658000490D1D90A9A30AB03EB8202C14652F8D2
:10466800543C039318460FF09DF8A268049B0590EC
:10467800A2F840300496A26849461832284600F04D
:1046880027FB039BD0F800A009F101094BB1BAF14F
:10469800000F06D0059A1946504616F0DBF9002897
:1046A800E9D1A168BAF1000F4ED1A1F840A0049B4E
:1046B800013B0493DFD16069FFF754FC204600F00A
:1046C8002DFD0A9B30AA02EB830308F1010A53F877
:1046D800540C0FF067F8414611AA8146284600F0AD
:1046E800F7FA0746A0683968FF2200F5AB7016F0A4
:1046F800C3F93B6803934FF6FF77B84616AA5146AD
:1047080028460AF1010B00F0E3FA002852D0A1680C
:10471800036801F25511002211F801EF985C704509
:1047280003D110B101324245F6D1B9F1000F01D0E1
:104738004A4507DBBA4206F1FF36A8BF3A46012EC2
:1047480097B237D0DA46D9E79A4806910FF02AF897
:10475800069907914A8F00EB0B07BFB2121A504611
:1047680092FBF7F292B206920FF01CF80799069A9C
:104778003F1AB1F8400000F1010CA1F840C0B0FBAD
:10478800F2F102FB110080B2BFB260B9894B8A4ACC
:10479800CDF800A0062120460FF00AFD3946204634
:1047A80000F020FB83E7854A5346062120460FF098
:1047B800FFFCF3E7002F3FF41FAF0399A7EB0902B3
:1047C80092B2494420460FF03AFD15E7D0F874320A
:1047D8009E077FF511AF01210EF0FFFF20460FF075
:1047E8004FFD09E7D0F874329D077FF505AF012129
:1047F8000EF0F3FFA368D3F874321807EED42046FE
:104808000FF01FFDF8E620460FF029FCF4E62046DD
:104818000FF01CFC20460FF060FB10B96069FFF731
:10482800A1FBA06801210EF0D8FF2046FFF75AFD32
:10483800E2E620460FF01CFCDEE620460FF023FCE3
:10484800DAE6D2F874329F0603D55D4960690EF046
:104858009CFFA368D3F874329E0603D55949606952
:104868000EF093FF204600F059FCC5E600212046D3
:10487800FFF77EFBC0E60121F9E720460FF0DFFBDA
:1048880020460EF041FF0121A0680EF0A6FFA368A4
:10489800D3F874329D067FF5AFAE4B4960690EF0D0
:1048A80074FFA9E6204600F02DFBA06801210EF058
:1048B80094FFA1E65B2B01D1022307E6D0F874220E
:1048C800900706D5622B08D14FF0FF3120460FF034
:1048D80078FBA36800225A758EE6662BF9D1012170
:1048E800F4E700224275A268D2F8741289077FF5AE
:1048F8002FAD313B1B2B3FF67FAE01A151F823F0C2
:104908008549000891490008A54900087949000827
:104918000146000801460008014600080146000853
:104928000146000801460008014600080146000843
:104938000146000801460008014600080146000833
:104948007F480008754800083B4800080F480008E1
:10495800014600087D490008014600088949000809
:10496800014600080146000801460008954900086C
:104978000323537520460FF069FB3DE60323537567
:1049880020460FF05CFB37E603235375A068D0F888
:10499800741201F0010181F0010156E603235375F9
:1049A800A368D3F874329B077FF526AE27E7002368
:1049B8008CE500BFC8D00108BEDA01087ED6010820
:1049C80025BB01082ABB010820BB01082DE9F041DD
:1049D80004468068154600F51E70002937D04FF44C
:1049E80080410EF09CFEA368DD64606803680021C6
:1049F8009B689847002851D120460EF02DFF0028CB
:104A08004CD1274E274FDFF8A080A06800F52F7003
:104A18004FF0FF324FF0FF3303210CF079FC0546CD
:104A2800A068CDB141F28832002300F543700EF042
:104A380094FE98BB20462B461C4A01210FF0B8FB78
:104A4800A068BDE8F04100F543700EF0DFBE6FF4DA
:104A580080410EF073FEC6E74FF0FF334FF0FF3290
:104A680000F543700EF079FE3246022120460EF022
:104A780076FE3A46294620460EF071FE204642460A
:104A880001210EF06CFE606803685B6903B198470A
:104A9800A06800F543700EF0B9FEB6E7BDE8F081F6
:104AA800193F00083943000819380108C4DA010819
:104AB80010B50B4904460EF059FF204609490EF07F
:104AC80055FF204608490EF051FF204607490EF0D1
:104AD8004DFF2046064A002100F05EFB002010BD75
:104AE800DBDA010819DB010878DB0108CCDB0108F7
:104AF80066DC0108F8B517461E460A4629490446E9
:104B08000EF034FF3EB33A78274920460EF02EFFC8
:104B180001256A0703D1254920460EF027FFAE423A
:104B28001ED97A5D204920460EF020FF0135102D50
:104B3800EFD11F4920460EF019FFB6B91B49204690
:104B48000EF014FF0125AE422B4610D81749204617
:104B58000EF00CFF15E0174920460EF007FF01255F
:104B6800144920460EF002FFE0E700252B46FA5CC8
:104B78001149A2F120035F2B28BF2E2220460EF0F8
:104B8800F5FE0135102D06D06B07DCD1074920460C
:104B98000EF0ECFED7E720460849BDE8F8400EF0D5
:104BA800E5BE00BF7CDC0108C1D00108C9D00108FE
:104BB800CBD00108C7D00108A3DC010883DC0108B9
:104BC8002DE9F043044680688846D0F8201389B060
:104BD80015461F46002960D14FF44A7215F004FFAC
:104BE800E0680FF0B0FEA06800F5437015F088FB90
:104BF8004FF42F794FF41F76A068304415F0BFFEAC
:104C0800A0680022831901214844103615F089FE56
:104C1800B6F52F7F09F11409EED1A36900261E60AD
:104C2800A068022100F51E700EF079FDA3685022DD
:104C38005A87A36818221A87216820460EF0C0FEFA
:104C4800A368174A66F38205C3F87452606803685C
:104C580041461D682346A8470546D0B9A3680122E6
:104C68001A75D4E90A0100220023CDE906230E2390
:104C78000393109B0495CDE901730094094B4FF4FD
:104C880000620BF00FFCA368C3F82003616A0BF005
:104C98003BFB284609B0BDE8F0836FF07705F8E7DD
:104CA800B9370108D549000810B5044613460A4625
:104CB8000146064801F030FB23691B7923B12046E1
:104CC800BDE810400EF0CEBE10BD00BF853A010809
:104CD80038B50B46154648B91449154A521AB3EB6C
:104CE800920F05D251F82350284638BD84680CB974
:104CF8000025F9E70F4A94420AD30F4A944207D293
:104D080018462268294690472B68002BECD1EFE71C
:104D18000A4A944202D30A4A944205D324681422C8
:104D28005343E518E358F0E70133F8E7C8B9010839
:104D3800F4B901080CBB01080CBB0108F4B901085F
:104D48000CBB0108F7B503782D2B0446164605D190
:104D58006FF015033360002003B0F0BD16F09EF825
:104D68000B4F00230546C3510A46204601A90CF003
:104D78000BFCEB59222B02D16FF02103EAE7002B41
:104D8800E6D1019BA342E3D01B78002BE4D0DFE7F8
:104D98000C0000008368D3F874329B0603D50249DF
:104DA80040690FF07BB8704730BB010801490FF02C
:104DB80075B800BF5AD401080A1E0DDC0ED0422374
:104DC8008168D1F87412890608D5002A0449406917
:104DD800B8BF52420FF062B84123F1E7704700BFF5
:104DE8009FDC01080A1E0DDC0ED044238168D1F82F
:104DF8007412890608D5002A04494069B8BF52428E
:104E08000FF04CB84323F1E7704700BF9FDC01085F
:104E18002DE9F0478568DFF86890044605F15600EB
:104E2800FCF732F9002395F83C7086B29846A268E0
:104E3800558FED1BB54209DB002E1FDD5633606927
:104E48001049BDE8F0471A440FF028B81D442A4419
:104E5800563392F856A082F85680A26860691A44C0
:104E680049460FF01BF8A3682B4483F856A0A368A3
:104E78005B8FDB1BF61A00272B46D8E7BDE8F087C7
:104E880039D301087ED6010808290A4617D883684D
:104E980093F83E10914212D083F83E208368082A86
:104EA800D3F8743205D0990609D5054940690EF042
:104EB800F5BF9B0603D5034940690EF0EFBF704765
:104EC800A6DC010835BB010838B50D46097804464B
:104ED800FFF7DAFF6A78072A11D8A36893F83F101A
:104EE80091420CD083F83F20A368D3F874329B0614
:104EF80005D560690249BDE838400EF0CFBF38BD1E
:104F0800AFDC0108F8B58368B3F850200446002ADE
:104F180055D0B3F85210002951D0553103F1560538
:104F28000B441846A84206D3014611F80169202E01
:104F38003CD0A8423CD286B29DB2AB1B9BB2591C56
:104F4800471CD21A0144384615F034FDA268B2F85D
:104F58005030711B13FA81F3A2F85030A368B3F8EC
:104F680050201344002283F8562009B220460EF040
:104F7800FFFFA368D3F874329A0603D51049606915
:104F88000EF08CFF3B460F4A082120460FF010F91F
:104F98002046FFF7FFFEA368D3F874329B060ED5B0
:104FA80060690949BDE8F8400EF078BF0846B9E7DE
:104FB800014611F80169202EBDD00846B9E7F8BDB1
:104FC8003ABB01087ED601083EBB01082DE9F84F1F
:104FD80004460F4690460AB1FFF7DCFEA668D6F8ED
:104FE8007432B6F852505B0724D505F156003044A8
:104FF800FCF74AF82A4E0546B5B9A368B3F850201D
:10500800A3F85220A0680EF056FF30B1B8F1000F97
:1050180000D017B16069FFF7C9FE7942204609B28E
:10502800BDE8F84F0EF0A4BF606931460EF036FFB8
:10503800013DE1E73046FCF727F8B6F85090738F4A
:1050480019FA80F915FA80F0B0FBF3F2B9FBF3F323
:105058009A42AA461BD0134DA3684845CDDA5A8F09
:10506800B0FBF2F302FB1303461C13B96069FFF7A8
:105078009DFEA3685344204693F856300AF1010B6D
:105088002A4608210FF094F8DA463046E4E7563508
:10509800054A7319082120460FF08AF8ADE700BFCA
:1050A8008FE60108A3DC01087ED6010813B58368E2
:1050B8008DF80710D3F874220446D00725D5B3F825
:1050C8005210B3F850208A421FD0481CA3F852004F
:1050D8000B449DF8072083F85620A368D3F8741270
:1050E800890710D5D3F8743260690B4913F0040F9F
:1050F80018BF2A220EF0D2FE20460EF0EEFE10B1A6
:105108006069FFF753FE02B010BD01220DF10701DF
:1051180020460FF05AF8F6E7A3DC010810B504465C
:105128008368094A02210FF043F8A368D3F8743260
:105138009B0707D52046FFF76BFE2046BDE81040C9
:105148000EF0F1BE10BD00BF7ED6010801490FF078
:105158001EBA00BF5AD40108F8B50F465168044674
:1051680015461E4611B11A460FF01EFAAB6883B1F8
:1051780031462046FFF736FE2046064A3B460821C0
:105188000FF016F8A968F21D2046BDE8F8400FF0A8
:105198000BBAF8BDB8DC01082DE9F04F0F46002125
:1051A80089B0044616460D4603AA384601F101089F
:1051B800FFF78EFDA8B98DB126B1324608212046E9
:1051C8000EF0F6FFDFF89090DFF890B0002103AA08
:1051D800384601F1010AFFF77BFD60B909B0BDE867
:1051E800F08F006810B1FBF74FFF80B2854238BFDF
:1051F80005464146D8E7D0F80080B8F1000F0FD037
:1052080098F8003063B14668154ACDE900584B4616
:10521800082120460EF0CCFF26B96069FFF796FFFB
:105228005146D4E74B465A46082120460EF0C0FFA7
:10523800AB1DB2079BB209D131680A4A914205D128
:10524800324641462046FFF787FFE9E71A463146CE
:1052580020460FF0A9F9E3E7D8DC0108BCD0010823
:10526800C3DC0108C40BD286F7B50F6805460E46A5
:10527800EFB13846FBF708FF84B2114B00930821C1
:105288003B46104A28460EF093FF7168E31C9BB218
:1052980079B18A070DD108680B4A904209D10A46AC
:1052A8003168284603B0BDE8F040FFF755BF3C46DB
:1052B800E3E71A46284603B0BDE8F0400FF074B99A
:1052C800D4DC0108BFDA0108C40BD28610B507493F
:1052D8000446FBF7C7FE38B105492046FBF7C2FE76
:1052E800B0FA80F0400910BD0120FCE7CADC0108D3
:1052F800CDDC010810B58368D3F874329B060446E8
:1053080003D5064940690FF0BFF9A36850225A87B0
:10531800A36818221A87002010BD00BF42BB0108ED
:1053280008B5836902491A680EF020FB002008BD01
:10533800DBDC01082DE9F3410D490E4C0E4EDFF878
:105348003C8005460EF012FB0022B44202F1010730
:1053580003D3002002B0BDE8F081636A0093A3681C
:1053680092B2414628460EF001FB30343A46ECE74B
:10537800EBDC010898B90108C8B9010803DD010888
:1053880008B502490EF01CFB002008BD5BD40108DB
:1053980073B50E4E04460025A268E0680DF10603B9
:1053A80002F5AB7201210FF01FFABDF80600A368E1
:1053B80040B12A4603F5AB73314620460EF0D6FAC3
:1053C8000135E9E783F8560102B070BD14DD010824
:1053D80010B504460EF038FB0349024620460EF08D
:1053E800C5FA002010BD00BF05D80108022907B57D
:1053F8000BD15368009312680B4B0C490EF0D2FA8C
:105408006FF0150003B05DF804FB8368084AD3F811
:105418007432084913F0020F074B18BF1A460EF0F2
:10542800A5FA0020EEE700BF22DD010837DD0108FC
:105438001EDD010840DD010867D2010810B5836848
:10544800D3F874329A06044603D5074940690FF029
:105458001BF9A368D3F874329B0603D50349606926
:105468000FF012F9002010BD49BB01084EBB01081E
:10547800F0B5012985B004460AD053680093126834
:105488005D4B5E490EF08EFA6FF0150005B0F0BD69
:105498008368D3F87432990603D5594940690FF0E7
:1054A800F3F86FF0F9012046FFF786FCFA21204651
:1054B800FFF798FCA06800254FF48072294600F594
:1054C800AB708DF80B5015F08FFA4E4960690FF0EC
:1054D800DBF860690EF0C6FA4FF47A766068036804
:1054E80001221F690DF10B0103ABB847039BEBB910
:1054F800013E4FF47A70B6B214F0FAFD002EEDD1E9
:10550800A368D3F874329B0603D53F4960690FF04E
:10551800BBF8A3683D4950225A87A3681822204641
:105528001A870EF031FA6FF00700AFE79DF80B20ED
:10553800A3681B2A53D093F856111B29CED1522A9F
:105548004DD15A19002382F85631A66896F857218A
:105558005B2A2BD106F25710022510F8011F2A46A4
:105568003B2905F10105ADB223D1FF2AC8D002F5C8
:10557800AB7216FA82F1002211F8010F18BB86F8F7
:105588005601FA2AA16828BFFA224A87FA2BA2688C
:1055980028BFFA231387A368D3F874329A0603D571
:1055A800194960690FF070F800206FE786F85631E6
:1055B800A6E703EB8303303901EB4301B5F5807FA0
:1055C8008BB2CAD19CE7013502EB8202ADB230380A
:1055D80000EB4200B5F5807F82B2CDD190E72B4435
:1055E8000135ADB2092D83F856217FF677AFA36850
:1055F800002283F8562183E722DD010837DD010800
:1056080054BB01088BDD010858BB010851DD0108B6
:105618002DE9F04F074689B01546894621B1104655
:105628000FF097F900285BD1032455E05C463CE075
:1056380029460AF5AB7015F061FA0646002854D0E1
:10564800FBF722FD82B2601C01323146304415F06E
:10565800B1F922465946304615F09EF94FF020031D
:105668003355BAF8543001331C44AAF8544008F1B1
:105678000108002401994B1C03AA48460193FFF72F
:1056880027FB0646E8B13168002228460FF038FBB0
:105698000028EFD1D6F800B0D7F808A0BBF1000F6A
:1056A800C4D05846FBF7F0FC84B2BAF8543023440F
:1056B800FF2BBDDD0E4A2B46032138460EF078FD40
:1056C8000124B8F1000F07D0B8682A4600F1540148
:1056D80000F5AB700EF0F6FA204609B0BDE8F08F81
:1056E8004FF0000841460224C5E70224E9E700BF5D
:1056F80053E201082DE9F843054600AF0C4600299E
:1057080048D0DFF8B890D9F800305A0742D06E4632
:105718008AB0D1E90001A3686A46DFF8A4C04FF057
:105728000508C2E905C0C2E9071342F8108F002333
:105738004FF421514846FDF76DFBD9F800305B075F
:10574800B54627D08AB0D4E9030163696A46DFF811
:1057580074C0C2E90713C2E905C042F8108F0023DC
:1057680048464FF42151FDF755FBD9F8003058074A
:10577800B5460FD0E3690121134A48460DF078FE7B
:10578800D9F80030590705D0A369104A01214846C5
:105798000DF06EFE012D0AD1EFF30583074802686C
:1057A800520704D00A4A103B29460DF061FE2146F3
:1057B80028460AF027F9BD46BDE8F8830C0B0020FF
:1057C800A5E20108D4E2010803E3010812E3010895
:1057D80040E3010830BFFFF7FDBF00BF2DE9F041EE
:1057E8000B4EDFF8308006EB0807CC1B0546324627
:1057F8000949204615F0D0F8A01942460021083C76
:1058080015F0F2F8C5F8A84007F10800BDE8F081E6
:1058180000000000080000000CBB0108054B5A6995
:105828009B689A421FBF044A536843F080535360F1
:10583800704700BF9024002000ED00E0F8B5374C19
:1058480023685B0706460D4603D0354920460FF00E
:10585800E4F8344B9B6ADF0451D52368580703D01A
:1058680031492E480FF0D9F817202E4B9B6A19059D
:1058780007D523685A0703D02C4928480FF0CDF8DC
:105888001820284FBB6A9B0519D52368580703D0F1
:10589800274922480FF0C1F8BB6BBA6A11040DD52D
:1058A8002268520704D0234A1C4801210DF0E0FD6C
:1058B80026B11C4A936A23F4004393621920194BBA
:1058C8009B6A5B0507D523685F0703D01A4913480D
:1058D8000FF0A3F81A20134B9A6AD60511D523683E
:1058E800590703D015490D480FF097F81B200D4AAA
:1058F800936A43F47F43936200232B70F8BD16200C
:10590800B3E79B6A9A04F2D523685B0703D00C4976
:1059180002480FF082F81C20E9E700BF0C0B0020BA
:1059280053E3010800ED00E069E301087AE30108A8
:105938008DE30108A6E30108BBE30108D6E30108EB
:10594800EEE3010810B52D4C23685A0703D02C4903
:1059580020460FF062F82B4B9B6A9B014BD52368BE
:10596800580703D0284925480FF057F81E20254B23
:105978009B6AD90107D523685A0703D023491F48D2
:105988000FF04BF81F201F4B9B6A1B0307D523689A
:10599800580703D01E4919480FF03FF82120194B2A
:1059A8009B6A590307D523685A0703D01949134836
:1059B8000FF033F82220134B9B6A9B0307D523680B
:1059C800590703D014490D480FF027F823200D4B31
:1059D8009B6ADA0307D523685B0703D00F4907489A
:1059E8000FF01BF82420074A936A6FEA03436FEA13
:1059F8001343936210BD1D20B9E700BF0C0B0020B4
:105A08001DE4010800ED00E035E4010848E4010860
:105A180062E4010880E40108A5E40108BFE4010884
:105A28002DE9F047454D2B688946590780461746AA
:105A380003D0434928460EF0F0FF424B9B6ADA0632
:105A480039D52B685B0703D03F493C480EF0E5FF8A
:105A580011243C4B9B6A1E0707D52B68580703D0B7
:105A68003A4936480EF0D9FF1224DFF8D8A0DAF800
:105A78002830990721D52B685A0703D034492F4875
:105A88000EF0CBFFDAF83460DAF828301B0651D56F
:105A98002B685C0705D02F4A2848334601210DF0B2
:105AA800E7FCB9F1000F04D0264A936A23F080037B
:105AB8009362132403E01024CBE76FF01506214B03
:105AC8009B6AD80707D52B68590703D022491B487A
