:020000040800F2
:10000000C04B00203D5D0008E3480108295D000861
:10001000295D0008295D0008295D00080000000036
:10002000000000000000000000000000115E000859
:10003000295D000800000000AD5D0008E1BA00087D
:10004000A15F0008A15F0008A15F0008A15F000890
:10005000A15F0008A15F0008A15F0008A15F000880
:10006000A15F0008A15F0008A15F0008A15F000870
:10007000A15F0008A15F0008A15F0008A15F000860
:10008000A15F0008A15F0008A15F0008A15F000850
:10009000A15F0008A15F0008A15F0008A15F000840
:1000A000A15F0008A15F0008A15F0008A15F000830
:1000B000A15F0008A15F0008A15F0008A15F000820
:1000C000A15F0008A15F0008A15F0008A15F000810
:1000D000A15F0008A15F0008A15F0008A15F000800
:1000E000A15F0008A15F0008A15F0008A15F0008F0
:1000F000A15F0008A15F0008A15F0008A15F0008E0
:10010000A15F0008A15F0008A15F0008A15F0008CF
:10011000A15F0008A15F0008A15F0008A15F0008BF
:10012000A15F0008A15F0008A15F0008A15F0008AF
:10013000A15F0008A15F0008A15F0008A15F00089F
:10014000A15F0008A15F0008A15F0008A15F00088F
:10015000A15F0008A15F0008A15F0008A15F00087F
:10016000A15F0008A15F0008A15F0008A15F00086F
:10017000A15F0008A15F0008A15F0008A15F00085F
:08018000A15F0008A15F000867
:1001880081F0004102E000BF83F0004330B54FEA40
:1001980041044FEA430594EA050F08BF90EA020FAD
:1001A8001FBF54EA000C55EA020C7FEA645C7FEA40
:1001B800655C00F0E2804FEA5454D4EB5555B8BF63
:1001C8006D420CDD2C4480EA020281EA030382EAD4
:1001D800000083EA010180EA020281EA0303362D66
:1001E80088BF30BD11F0004F4FEA01314FF4801C39
:1001F8004CEA113102D0404261EB410113F0004F4B
:100208004FEA03334CEA133302D0524263EB430301
:1002180094EA050F00F0A780A4F10104D5F1200E9F
:100228000DDB02FA0EFC22FA05F2801841F10001FA
:1002380003FA0EF2801843FA05F359410EE0A5F1CE
:1002480020050EF1200E012A03FA0EFC28BF4CF0FF
:10025800020C43FA05F3C01851EBE37101F00045B5
:1002680007D54FF0000EDCF1000C7EEB00006EEBC2
:100278000101B1F5801F1BD3B1F5001F0CD349084C
:100288005FEA30004FEA3C0C04F101044FEA4452A3
:1002980012F5800F80F09A80BCF1004F08BF5FEA2A
:1002A800500C50F1000041EB045141EA050130BD0A
:1002B8005FEA4C0C404141EB0101013C28BFB1F51C
:1002C800801FE9D291F0000F04BF01460020B1FA67
:1002D80081F308BF2033A3F10B03B3F120020CDA3A
:1002E8000C3208DD02F1140CC2F10C0201FA0CF018
:1002F80021FA02F10CE002F11402D8BFC2F1200C7D
:1003080001FA02F120FA0CFCDCBF41EA0C01904032
:10031800E41AA2BF01EB0451294330BD6FEA04047B
:100328001F3C1CDA0C340EDC04F11404C4F1200266
:1003380020FA04F001FA02F340EA030021FA04F378
:1003480045EA030130BDC4F10C04C4F1200220FACF
:1003580002F001FA04F340EA0300294630BD21FA0D
:1003680004F0294630BD94F0000F83F4801306BFD3
:1003780081F480110134013D4EE77FEA645C18BFC7
:100388007FEA655C29D094EA050F08BF90EA020F5E
:1003980005D054EA000C04BF1946104630BD91EA56
:1003A800030F1EBF0021002030BD5FEA545C05D159
:1003B8004000494128BF41F0004130BD14F5800498
:1003C8003CBF01F5801130BD01F0004545F0FE410C
:1003D80041F470014FF0000030BD7FEA645C1ABF41
:1003E800194610467FEA655C1CBF0B46024650EA78
:1003F800013406BF52EA033591EA030F41F40021A4
:1004080030BD00BF90F0000F04BF0021704730B529
:100418004FF4806404F132044FF000054FF00001FE
:1004280050E700BF90F0000F04BF0021704730B5BF
:100438004FF4806404F1320410F0004548BF404294
:100448004FF000013EE700BF42004FEAE2014FEAE9
:1004580031014FEA02701FBF12F07F4393F07F4FC4
:1004680081F06051704732F07F4208BF704793F0C7
:100478007F4F04BF41F40021704730B54FF46074DA
:1004880001F0004521F000411CE700BF50EA0102DD
:1004980008BF704730B54FF000050AE050EA010286
:1004A80008BF704730B511F0004502D5404261EBF6
:1004B80041014FF4806404F132045FEA915C3FF437
:1004C800D8AE4FF003025FEADC0C18BF03325FEAD4
:1004D800DC0C18BF033202EBDC02C2F1200300FA85
:1004E80003FC20FA02F001FA03FE40EA0E0021FAAA
:1004F80002F11444BDE600BF70B54FF0FF0C4CF498
:10050800E06C1CEA11541DBF1CEA135594EA0C0F49
:1005180095EA0C0F00F0DEF82C4481EA030621EA84
:100528004C5123EA4C5350EA013518BF52EA0335BF
:1005380041F4801143F4801338D0A0FB02CE4FF071
:100548000005E1FB02E506F00042E0FB03E54FF0A1
:100558000006E1FB03569CF0000F18BF4EF0010E99
:10056800A4F1FF04B6F5007F64F5407404D25FEA95
:100578004E0E6D4146EB060642EAC62141EA555148
:100588004FEAC52040EA5E504FEACE2EB4F1FD0C8A
:1005980088BFBCF5E06F1ED8BEF1004F08BF5FEA08
:1005A800500E50F1000041EB045170BD06F00046BA
:1005B80046EA010140EA020081EA0301B4EB5C0467
:1005C800C2BFD4EB0C0541EA045170BD41F480115F
:1005D8004FF0000E013C00F3AB8014F1360FDEBF84
:1005E800002001F0004170BDC4F10004203C35DA60
:1005F8000C341BDC04F11404C4F1200500FA05F3E3
:1006080020FA04F001FA05F240EA020001F0004283
:1006180021F0004110EBD37021FA04F642EB0601F9
:100628005EEA430E08BF20EAD37070BDC4F10C0423
:10063800C4F1200500FA04F320FA05F001FA04F2E7
:1006480040EA020001F0004110EBD37041F10001D3
:100658005EEA430E08BF20EAD37070BDC4F12005DE
:1006680000FA05F24EEA020E20FA04F301FA05F246
:1006780043EA020321FA04F001F0004121FA04F2EE
:1006880020EA020000EBD3705EEA430E08BF20EABE
:10069800D37070BD94F0000F0FD101F000464000F8
:1006A80041EB010111F4801F08BF013CF7D041EA7A
:1006B800060195F0000F18BF704703F0004652007E
:1006C80043EB030313F4801F08BF013DF7D043EA4F
:1006D8000603704794EA0C0F0CEA135518BF95EA05
:1006E8000C0F0CD050EA410618BF52EA4306D1D18C
:1006F80081EA030101F000414FF0000070BD50EAAB
:10070800410606BF1046194652EA430619D094EA34
:100718000C0F02D150EA013613D195EA0C0F05D11E
:1007280052EA03361CBF104619460AD181EA030172
:1007380001F0004141F0FE4141F470014FF000002A
:1007480070BD41F0FE4141F4780170BD70B54FF0C5
:10075800FF0C4CF4E06C1CEA11541DBF1CEA135545
:1007680094EA0C0F95EA0C0F00F0A7F8A4EB050427
:1007780081EA030E52EA03354FEA013100F088801E
:100788004FEA03334FF0805545EA131343EA1263E7
:100798004FEA022245EA111545EA10654FEA00269C
:1007A8000EF000419D4208BF964244F1FD0404F555
:1007B800407402D25B084FEA3202B61A65EB0305B1
:1007C8005B084FEA32024FF480104FF4002CB6EB6E
:1007D800020E75EB030E22BFB61A754640EA0C00EE
:1007E8005B084FEA3202B6EB020E75EB030E22BF2E
:1007F800B61A754640EA5C005B084FEA3202B6EB6F
:10080800020E75EB030E22BFB61A754640EA9C002D
:100818005B084FEA3202B6EB020E75EB030E22BFFD
:10082800B61A754640EADC0055EA060E18D04FEABB
:10083800051545EA16754FEA06164FEAC30343EA5B
:1008480052734FEAC2025FEA1C1CC0D111F4801F28
:100858000BD141EA00014FF000004FF0004CB6E721
:1008680011F4801F04BF01430020B4F1FD0C88BFC0
:10087800BCF5E06F3FF6AFAEB5EB030C04BFB6EBCB
:10088800020C5FEA500C50F1000041EB045170BDBE
:100898000EF0004E4EEA113114EB5C04C2BFD4EBEB
:1008A8000C0541EA045170BD41F480114FF0000E6F
:1008B800013C90E645EA060E8DE60CEA135594EAEB
:1008C8000C0F08BF95EA0C0F3FF43BAF94EA0C0FEE
:1008D8000AD150EA01347FF434AF95EA0C0F7FF463
:1008E80025AF104619462CE795EA0C0F06D152EAB7
:1008F80003353FF4FDAE1046194622E750EA41069B
:1009080018BF52EA43067FF4C5AE50EA41047FF4AB
:100918000DAF52EA43057FF4EBAE12E780F00040DA
:1009280002E000BF81F0004142001FBF5FEA4103BF
:1009380092EA030F7FEA226C7FEA236C6AD04FEABF
:100948001262D2EB1363C1BFD21841404840414004
:10095800B8BF5B42192B88BF704710F0004F40F4B6
:10096800000020F07F4018BF404211F0004F41F4D2
:10097800000121F07F4118BF494292EA030F3FD09E
:10098800A2F1010241FA03FC10EB0C00C3F12003B1
:1009980001FA03F100F0004302D5494260EB400040
:1009A800B0F5000F13D3B0F1807F06D340084FEAAB
:1009B800310102F10102FE2A51D2B1F1004F40EBA0
:1009C800C25008BF20F0010040EA03007047490008
:1009D80040EB0000013A28BFB0F5000FEDD2B0FAA5
:1009E80080FCACF1080CB2EB0C0200FA0CF0AABFC8
:1009F80000EBC25052421843BCBFD0401843704766
:100A080092F0000F81F4000106BF80F4000001326B
:100A1800013BB5E74FEA41037FEA226C18BF7FEA42
:100A2800236C21D092EA030F04D092F0000F08BF84
:100A38000846704790EA010F1CBF0020704712F06B
:100A48007F4F04D1400028BF40F00040704712F1AA
:100A580000723CBF00F50000704700F0004343F00F
:100A6800FE4040F4000070477FEA226216BF084645
:100A78007FEA23630146420206BF5FEA412390EA08
:100A8800010F40F4800070474FF0000304E000BFFE
:100A980010F0004348BF40425FEA000C08BF7047AF
:100AA80043F0964301464FF000001CE050EA010273
:100AB80008BF70474FF000030AE000BF50EA010288
:100AC80008BF704711F0004302D5404261EB410175
:100AD8005FEA010C02BF84460146002043F0B6439A
:100AE80008BFA3F18053A3F50003BCFA8CF2083ABF
:100AF800A3EBC25310DB01FA02FC634400FA02FCC8
:100B0800C2F12002BCF1004F20FA02F243EB0200CE
:100B180008BF20F00100704702F1200201FA02FC30
:100B2800C2F1200250EA4C0021FA02F243EB020023
:100B380008BF20EADC7070474FF0FF0C1CEAD05267
:100B48001EBF1CEAD15392EA0C0F93EA0C0F6FD028
:100B58001A4480EA010C400218BF5FEA41211ED006
:100B68004FF0006343EA501043EA5111A0FB0131F2
:100B78000CF00040B1F5000F3EBF490041EAD371C7
:100B88005B0040EA010062F17F02FD2A1DD8B3F143
:100B9800004F40EBC25008BF20F00100704790F0B2
:100BA800000F0CF0004C08BF49024CEA502040EA04
:100BB80051207F3AC2BFD2F1FF0340EAC2507047CA
:100BC80040F400004FF00003013A5DDC12F1190F08
:100BD800DCBF00F000407047C2F10002410021FA7A
:100BE80002F1C2F1200200FA02FC5FEA310040F192
:100BF800000053EA4C0308BF20EADC70704792F00B
:100C0800000F00F0004C02BF400010F4000F013A42
:100C1800F9D040EA0C0093F0000F01F0004C02BF3D
:100C2800490011F4000F013BF9D041EA0C018FE7AC
:100C38000CEAD15392EA0C0F18BF93EA0C0F0AD0B2
:100C480030F0004C18BF31F0004CD8D180EA0100D8
:100C580000F00040704790F0000F17BF90F0004F71
:100C6800084691F0000F91F0004F14D092EA0C0F53
:100C780001D142020FD193EA0C0F03D14B0218BFE6
:100C8800084608D180EA010000F0004040F0FE402C
:100C980040F40000704740F0FE4040F440007047C8
:100CA8004FF0FF0C1CEAD0521EBF1CEAD15392EA47
:100CB8000C0F93EA0C0F69D0A2EB030280EA010C37
:100CC80049024FEA402037D04FF0805343EA1111D0
:100CD80043EA10130CF000408B4238BF5B0042F12E
:100CE8007D024FF4000C8B4224BF5B1A40EA0C00D3
:100CF800B3EB510F24BFA3EB510340EA5C00B3EB05
:100D0800910F24BFA3EB910340EA9C00B3EBD10FF2
:100D180024BFA3EBD10340EADC001B0118BF5FEA44
:100D28001C1CE0D1FD2A3FF650AF8B4240EBC2506D
:100D380008BF20F0010070470CF0004C4CEA50202E
:100D48007F32C2BFD2F1FF0340EAC250704740F47D
:100D580000004FF00003013A37E792F0000F00F06F
:100D6800004C02BF400010F4000F013AF9D040EAED
:100D78000C0093F0000F01F0004C02BF490011F481
:100D8800000F013BF9D041EA0C0195E70CEAD15379
:100D980092EA0C0F08D142027FF47DAF93EA0C0F60
:100DA8007FF470AF084676E793EA0C0F04D14B0244
:100DB8003FF44CAF08466EE730F0004C18BF31F0F6
:100DC800004CCAD130F000427FF45CAF31F00043F0
:100DD8007FF43CAF5FE700BF4FF0FF3C06E000BF89
:100DE8004FF0010C02E000BF4FF0010C4DF804CDAC
:100DF8004FEA40024FEA41037FEA226C18BF7FEABC
:100E0800236C11D001B052EA530C18BF90EA010FBD
:100E180058BFB2EB030088BFC81738BF6FEAE1704C
:100E280018BF40F0010070477FEA226C02D15FEAE8
:100E3800402C05D17FEA236CE4D15FEA412CE1D054
:100E48005DF8040B704700BF844608466146FFE71B
:100E58000FB5FFF7C9FF002848BF10F1000F0FBDFD
:100E68004DF808EDFFF7F4FF0CBF012000205DF8F6
:100E780008FB00BF4DF808EDFFF7EAFF34BF01207B
:100E880000205DF808FB00BF4DF808EDFFF7E0FF14
:100E980094BF012000205DF808FB00BF4DF808ED65
:100EA800FFF7D2FF94BF012000205DF808FB00BFC8
:100EB8004DF808EDFFF7C8FF34BF012000205DF8AA
:100EC80008FB00BF4FEA4002B2F1FE4F0FD34FF0CC
:100ED8009E03B3EB12620DD94FEA002343F000439F
:100EE80010F0004F23FA02F018BF404270474FF04D
:100EF8000000704712F1610F01D1420205D110F0D4
:100F0800004008BF6FF0004070474FF00000704786
:100F18007BB972B90029BEBF00204FF0004106E03E
:100F280008BF00281CBF6FF000414FF0FF3000F0F1
:100F380077B8ADF1080C6DE904CE002909DB002B68
:100F48001ADB00F0CFF8DDF804E0DDE9022304B095
:100F58007047404261EB4101002B1BDB00F0C2F8F7
:100F6800DDF804E0DDE9022304B0404261EB410111
:100F7800524263EB43037047524263EB430300F072
:100F8800B1F8DDF804E0DDE9022304B0404261EB8A
:100F980041017047524263EB430300F0A3F8DDF8C8
:100FA80004E0DDE9022304B0524263EB43037047D7
:100FB80053B94AB9002908BF00281CBF4FF0FF31B8
:100FC8004FF0FF3000F02CB8ADF1080C6DE904CEFD
:100FD80000F088F8DDF804E0DDE9022304B070478A
:100FE800D0B5FFF731FA0C4B002206460F46FFF743
:100FF80083FA00F017F80446FFF704FA074B0022BB
:10100800FFF77AFA02460B4630463946FFF7BCF836
:1010180000F008F82146D0BD0000F03D0000F04186
:10102800704700BF4A0011D212F5001211D20DD537
:101038006FF47873B3EB62520ED44FEAC12343F0D6
:10104800004343EA505323FA02F070474FF0000080
:10105800704750EA013002D14FF0FF3070474FF02F
:101068000000704710F8012B11F8013B012A28BF36
:101078009A42F7D0D01A7047034611F8012B03F8AB
:10108800012B002AF9D17047034613F8012B002AD7
:10109800FBD1181A01387047430803F05533C01ABA
:1010A80000F03333800800F03330184400EB1010A0
:1010B8004FF0013300F00F305843000E704710B561
:1010C80000210446FFF7D6FE20B92046BDE81040AF
:1010D800FFF786BF04F10040FFF782FF404261EB53
:1010E800410110BD2DE9F04786468C460846089E0A
:1010F800154674461946002B40F0C2808542B2FA64
:1011080082F245D94AB1C2F1200300FA02FC2EFA54
:1011180003F3954043EA0C0C94404FEA154EA8B2ED
:10112800BCFBFEF8230C0EFB18CC08FB00F943EAC5
:101138000C43994528D9EB1808F1FF3704D2994593
:1011480002D9A8F102072B44A3EB0903A4B2B3FB0D
:10115800FEFC0EFB1C330CFB00F044EA0344A042E7
:1011680014D92C190CF1FF3304D2A04202D9ACF1E6
:1011780002032C44241A43EA07401EB1D44000233A
:1011880034607360BDE8F0874746DDE76346F1E702
:1011980092BB431B01214FEA154EAFB2B3FBFEFCD5
:1011A800200C0EFB1C330CFB07F840EA0343984560
:1011B80062D9EB180CF1FF3004D2984502D9ACF192
:1011C80002002B44A3EB0803A4B2B3FBFEFC0EFB06
:1011D8001C330CFB07F744EA0344A7424ED92C19E9
:1011E8000CF1FF3304D2A74202D9ACF102032C441C
:1011F800E41B43EA0040C0E7C2F1200320FA03F1F0
:10120800954090402EFA03F303434FEA154EAFB2D0
:10121800B1FBFEFC0EFB1C10190C0CFB07F841EA95
:101228000041884504FA02F422D969180CF1FF300C
:1012380004D2884502D9ACF102002944A1EB080187
:101248009BB2B1FBFEFC0EFB1C110CFB07F743EA3B
:1012580001439F420ED9EB180CF1FF3104D29F4293
:1012680002D9ACF102012B44DB1B41EA004192E7B1
:101278006046E3E76146F7E76046A3E76346B7E7FA
:10128800834206D916B9002108467BE7C6E900E083
:10129800F9E7B3FA83F78FB9834201D3724508D8C7
:1012A800BEEB020460EB030301209C461EB900213B
:1012B80068E73846FAE7C6E9004CF8E7C7F1200CBA
:1012C800BB4022FA0CF41C432EFA0CF120FA0CF362
:1012D800B84001434FEA14490EFA07F5B3FBF9F891
:1012E8001FFA84FE09FB18300B0C08FB0EFA43EAC0
:1012F80000439A4502FA07F240D9E31808F1FF3093
:1013080004D29A4502D9A8F102002344A3EB0A03A8
:1013180089B2B3FBF9F809FB183308FB0EFE41EA62
:1013280003418E452CD9611808F1FF3304D28E454C
:1013380002D9A8F10203214443EA0040A0FB029825
:10134800A1EB0E014145CE46434602D306D14D4599
:1013580004D2B9EB020E68EB04030138002EA6D0C4
:10136800B5EB0E0261EB030101FA0CFC22FA07F35C
:101378004CEA0303F940C6E9003198E74046C5E75F
:101388004346D9E7000000002DE9F04385B000AFDF
:101398004D4D4E4C284618F021FE0346B0B9226840
:1013A800500722D029686D4688B06A464848C2E985
:1013B80005014FF400719183464942F8101F4FF41C
:1013C800E251204601F0F4FCAD460EE0AE68402143
:1013D800F3682846984700280BDA2368590704D091
:1013E8003D4A0121204611F0A1FF1437BD46BDE852
:1013F800F0830D2133693A4628469847002804DAD5
:1014080023685A07F1D0354AEBE71021336907F111
:101418000802284698470028236803DA5B07E4D0C7
:101428002F4ADEE703F00703022BDED97868FEF7C0
:10143800F9FF23A3D3E90023FFF788F9804638682A
:101448008946FEF7EFFF02460B4640464946FEF73F
:101458009DFE6D4688B06A46224B53610426C2E958
:10146800060142F8106F00234FF40351204601F0A3
:101478009FFC236803F00703022BAD46B5D9F86833
:10148800FEF7D0FF0EA3D3E90023FFF75FF98046EC
:10149800B8688946FEF7C6FF02460B4640464946ED
:1014A800FEF774FE88B06A460F4B5361C2E9060125
:1014B80042F8106F00234FF4035182E7AFF3008026
:1014C8000000000080842E4184B101083807002004
:1014D80070CC0108030000018DCC0108A8CC0108DC
:1014E800CFCC0108F3CC010806CD010800000000AC
:1014F8002DE9F04FA1B004AF794D7A4CAB680321C8
:10150800DB68284698473946002000F049FB07F178
:101518000801012000F044FB07F11001022000F04F
:101528003FFB7868FEF77EFF6BA3D3E90023FFF744
:101538000DF9804638688946FEF774FF02460B4667
:1015480040464946FEF722FE804678698946FEF7FE
:1015580069FF61A3D3E90023FFF7F8F882463869E9
:101568008B46FEF75FFF02460B4650465946FEF78C
:101578000DFECDE90201F868FEF754FF56A3D3E942
:101588000023FFF7E3F88246B8688B46FEF74AFF68
:1015980002460B4650465946FEF7F8FD4B46CDE944
:1015A80000014246504907F130000FF0B1FE2368B0
:1015B80003F00703022B14D96E4688B004AA4B4BDC
:1015C800536107F1300393614FF400739383484BE1
:1015D80042F8103F00234FF4E651204601F0E8FBA3
:1015E800B546AB683E48DB680721984707F1180104
:1015F800042000F0D5FA07F12001052000F0D0FA08
:1016080007F12801062000F0CBFAF869FEF70AFF77
:1016180031A3D3E90023FFF799F88046B8698946D2
:10162800FEF700FF02460B4640464946FEF7AEFD70
:101638008046F86A8946FEF7F5FE27A3D3E900231A
:10164800FFF784F88246B86A8B46FEF7EBFE02463F
:101658000B4650465946FEF799FDCDE90201786AD6
:10166800FEF7E0FE1CA3D3E90023FFF76FF88246DC
:10167800386A8B46FEF7D6FE02460B465046594658
:10168800FEF784FD4B46CDE900014246194907F1B2
:1016980030000FF03DFE236803F00703022B14D936
:1016A8006C4688B004AA114B536107F1300393616B
:1016B8004FF4007393830E4B42F8103F0948002300
:1016C8004FF4E65101F074FBA5467437BD46BDE8FA
:1016D800F08F00BFAFF300800000000080842E412F
:1016E800F0B101084C07002028CD010898D6010860
:1016F800030000014CCD01082DE9F04383B000AF91
:10170800354D364C284618F069FC0346B0B92268B6
:10171800520724D029686D4688B06A463048C2E925
:1017280005014FF4007191832E4942F8101F4FF4C0
:10173800E251204601F03CFBAD4610E0AE68402186
:10174800F3682846984700280DDA236803F0070352
:10175800022B04D9244A0321204611F0E7FD0C3757
:10176800BD46BDE8F0830E2133693A4628469847BE
:101778000028236804DA5B07F1D01C4A0121EBE753
:1017880003F00703022BEAD97868FEF74BFE10A393
:10179800D3E90023FEF7DAFF804638688946FEF76A
:1017A80041FE02460B4640464946FEF7EFFC6D46B1
:1017B80088B06A460E4B53610423C2E9060142F819
:1017C800103F00234FF40351B3E700BFAFF300808D
:1017D8000000000080842E41CCB101086807002079
:1017E80070CC0108030000018DCC0108E6CE010889
:1017F80003CF0108000000002DE9F047044688B037
:101808008846174618F094FE0A220023FFF7D0FBFB
:10181800B8F1010F06460D4607D102460B46204691
:10182800274912F00AF8002011E07F682548394658
:10183800FFF718FC70B124483946FFF713FC48B18C
:10184800204622493A4612F014F86FF0040008B016
:10185800BDE8F0873046294617A3D3E90023FFF7F0
:1018680057FB06460D4610461946194A0023FFF74E
:101878004FFB80460F46104619464EF6602200235D
:10188800FFF746FB82468946104619464FF47A729E
:101898000023FFF73DFBCDE902A9CDE90623CDE9F9
:1018A8000401CDE900870B4932462B46204611F04A
:1018B800C4FFB8E7AFF30080005C26050000000015
:1018C80098D10108A9D10108ACD10108B5D1010806
:1018D80080EE3600CDD1010870B51446064608469C
:1018E800FFF7D6F82146FFF727F9FFF7E8FB0E4D7B
:1018F80080FB05450AA3D3E9002320462946FFF7C4
:1019080007FB0A4A3060002320462946FFF700FB00
:10191800064A0023FFF7FCFA726070BDAFF300803F
:101928000010A5D4E80000003AA3950040420F003B
:1019380070B5144606460846FFF7AAF82146FFF791
:10194800FBF81349134DFFF7ABF9FFF7B8FB80FB22
:1019580005450BA3D3E9002320462946FFF7D8FA0B
:1019680009A3D3E90023306029462046FFF7D0FABF
:10197800094A0023FFF7CCFA726070BDAFF300800C
:1019880000209BF35E10000080A8120100000000F8
:1019980000002041D8EF2F0040420F000000000057
:1019A800032970B504460D4605D0072951D0BDE876
:1019B800704008F077BE002A38D0072A40F0A68089
:1019C80058681A68584BC117C2FB0301012871F106
:1019D80000033BDB554BC01841F100014EA3D3E98E
:1019E8000023FFF795FA022826690ED010280ED09A
:1019F80004280ED0082829D12946204614F0E6FBF1
:101A0800002808DA6FF0040070BD0025F4E701250E
:101A1800F2E70225F0E7464B33F815103D20A1FB0D
:101A28000001FFF74BF8F0600020EDE71988414B03
:101A380033F8020B814206D1D1B2204608F044FEA9
:101A48000028F1DADEE701320C2AF1D16FF0150037
:101A5800DAE7002A4BD0072A58D15A681D6832485D
:101A6800D11713460A46C5FB0032B425A3FB05016E
:101A7800012B05FB021172F1000228DB2E4BC01866
:101A880027A3D3E9002341F10001FFF741FAFA281F
:101A980025D0B0F5FA7F24D0B0F57A7F23D0B0F501
:101AA800FA6F22D07D28D1D10425294620462669FF
:101AB80014F09CFB0028A5DB204B33F8151041F2ED
:101AC8001710A1FB0001FEF7F9FFF061ACE71C4B12
:101AD800C01861F1000112A3D3E90023D5E700255E
:101AE800E3E70125E1E70225DFE70325DDE71988BC
:101AF800104B33F8020B814204D1D1B2204608F0D2
:101B0800B5FD9DE701320C2AF3D19FE76FF0850000
:101B18007AE700BFAFF300803AA395000000000009
:101B2800D8EF2F000000000040420F009DD14A006E
:101B38004ACC010852CC0108ECF7170040CC010848
:101B48001408E8FFB0B500AF114C204618F046FA6B
:101B58000346C8B90F480268520711D021686C467D
:101B680088B06A460C4DC2E905514FF40071918363
:101B78000A4942F8101F4FF4E25101F019F9A5463D
:101B88004FF0FF30BD46B0BDFFF7FEFB0020F9E780
:101B980084B101083807002070CC01080300000157
:101BA80010B403460A46034881680C69194623465F
:101BB80010BC1847F0B1010808B50B4883684021EC
:101BC800DB689847002809DA084803685B0709D0EA
:101BD800074ABDE80840012111F0A8BBBDE808404C
:101BE800FFF786BC08BD00BFF0B101084C07002014
:101BF8008DCC0108F7B51C4D284618F0EFF958B9F7
:101C08001A480368590703D0194A012111F08EFBBD
:101C18004FF0FF3003B0F0BD68230024CDE9003455
:101C2800AE6837682FB9114803685A07F0D0114ACF
:101C3800EBE76B46224603212846B8470028F2DB2B
:101C480036682EB9094803685B07E1D00A4ADCE721
:101C58006B46224607212846B0470028F2DBFFF7EB
:101C6800ABFF2046D6E700BFF0B101084C070020C3
:101C78006CCD010886CD0108B7CD010810B588B034
:101C8800002200230024CDE906230523CDE90334EF
:101C9800CDE90144064B074900944FF40062064819
:101CA8000EF004FB054B1860204608B010BD00BFBD
:101CB800ED1C0008401E00200808002060140020C9
:101CC80008B5064B01221A70054B18684FF0FF3211
:101CD8004FF0FF330EF0EAFE002008BDEE1D002095
:101CE8006014002038B5144C236803F00703022B56
:101CF80004D9124A0321204611F018FB104D2B7805
:101D08006BB100232B70236803F00703022B12D951
:101D18000C4A0948BDE83840032111F007BBFFF71A
:101D280033FBFFF7E9FCFFF747FF002144F620608B
:101D380018F05FFBE3E738BD5C070020E3CD01083E
:101D4800EE1D0020FFCD010810B5FFF7FBFE041EB5
:101D580009DA10480368590703D00F4A012111F026
:101D6800E5FA204610BD00F01DF8041E05DA094802
:101D780003685A07F5D0094AF0E7FFF73BFF041E4E
:101D880005DA044803685B07EBD0054AE6E7002458
:101D9800E7E700BF5C0700201BCE010843CE01081F
:101DA8005FCE0108B0B500AF114C204618F016F907
:101DB8000346C8B90F480268520711D021686C461B
:101DC80088B06A460C4DC2E905514FF40071918301
:101DD8000A4942F8101F4FF4E25100F0E9FFA54606
:101DE8004FF0FF30BD46B0BDFFF786FC0020F9E795
:101DF800CCB101086807002070CC0108030000017D
:101E08002DE9F04F91B08407009302F00403029388
:101E1800C2F3C20303F10103DDF8688003920546AB
:101E28000E46059340F0BA81041D30B1072909D840
:101E38006FF01B0011B0BDE8F08F01F007063444C5
:101E4800C6F10806009B4FF00009591E4FF0040A1E
:101E58004FF0FF330193CDF810904F46CB465346D1
:101E68000DB1009A22600598002800F3E880984890
:101E7800009A824203D397488242C0F0E080039AD6
:101E8800A4EB050E92074FEA9E0000F103810F2F85
:101E980000F2B180002D00F0058107F140020DEB42
:101EA800020C019A0CF8200C0CF8102C0498013044
:101EB8000490E7E07A285DD84B280ED8472859D8EF
:101EC80029282DD8252852D054D820287AD023382C
:101ED800D0F1000B4BEB000B74E04C382E2849D89E
:101EE800DFE800F0704848484848484848484848AB
:101EF8004B484848484848484859484B4B5959590D
:101F0800704B6D487048184B184848827F4B4848BA
:101F18004B487F0000204FF0000B4FF0040A38E0D8
:101F28002A38C0B2012202FA00F010EA0E0F49D195
:101F380010F0625C2FD110EA020B43D06046013CDE
:101F48005444B4FBFAF40AFB04F4002D61D0A3EB6B
:101F5800050CA444B4453FF66BAF002868D1042BA8
:101F680047D158F8043B2360043404232AE0019A3B
:101F7800013A01924FF0000B24E011F8010C6C2893
:101F880034D111F8023C00206C2B8346C5D14FF0A8
:101F9800080A5346D3E708F1070828F0070807346A
:101FA800F8E802AB24F0070435B106982044B042A3
:101FB8003FF63EAFC4E900AB08344FF0000B4FF0DA
:101FC800080A534611F8010F002878D0BBF1000F1A
:101FD8007FF470AF2528F5D1019B013301934FF0B1
:101FE800010B4FF0040AECE7584694E700208346BB
:101FF800A5E7082B02D06FF015001BE708F10708CA
:1020080028F00708F8E80223C4E900230834082365
:10201800D8E768B9042B02D108F10408A4E7082B13
:10202800E9D108F1070828F0070808F10808EDE7E2
:10203800059A013A059258F8042B009210E7039A82
:10204800900720D5A4EB050E4FEA9E004FF0010C37
:10205800BEF5007FCFD20F2FCDD8F5B107F14002E2
:102068000DEB020EC0B2019A0EF8200C0EF8102CDF
:10207800BCF1000F3FF41AAF60F07F000EF8200C9F
:1020880009F101090137C5F10802043406924FF637
:10209800DA7E97E74FF0000CDAE7BCF1000F01D0C9
:1020A8000136EFE7029802360028EBD10098CDE917
:1020B8000631FEF7E9FFDDE906310644E2E7631B76
:1020C800B3F5806F97D23DB9A6F10804E018B1E6E0
:1020D80084AD01081C040208029A28609B082B7032
:1020E8009DF81030C2B1EB7085F80290B9F1000F7D
:1020F80005D008A80022C5F1010C97420ED1C5F100
:1021080001030DF120084FF0000A01930DF1300B87
:10211800574512D1601B8DE66B70E5E710F8013B5F
:10212800190608D50CEB040EB64503F07F033FF6FD
:102138007FAE04F8013B0132DFE7B9F1000F03D0AD
:1021480098F90020002A17DB029BD3B11AF80B205C
:1021580004F8012B0022019B18191044B0423FF6E5
:1021680067AE98F8000004F8010B00990392204626
:1021780018F079FB039A14440AF1010A08F10108DE
:10218800C6E798F8002055F822300093029B45F8DE
:1021980022300098FEF778FF421CDCE76FF00D0054
:1021A80048E600BF2DE9F04F97B000AF90F802A0C5
:1021B800D7F880B03B62CBF3C0030446FA62BB6138
:1021C800894641B9457800780AEB800020444D459E
:1021D80017D8A0EB0409E378FB61BAF1000F02D02D
:1021E8001BF0010F16D1FB6953BBFB6A1BB13A6A9E
:1021F8004946204698474D4628465C37BD46BDE8C7
:10220800F08F461C3046FEF73FFF0130304409F19D
:102218000109DCE7237862687A62FA6A99007961D1
:1022280004EB8301002A40F004814D460E4601EB81
:102238000A094FF000084E4550D101EB0A0610E09C
:102248001BF0020FD1D023789A007A6162687A6213
:10225800FA6A04EB8301002A7BD14D4601EB0A069A
:1022680090461BF0050F0CBF02230123FB62FB699C
:1022780006EB430A0BF00203BB625645BCD016F8C6
:10228800021B16F8013C54F823909B4B994502D346
:102298009A4B99453AD3BB69002B44D0786A10F021
:1022A80047FC00283FD09648036813F0060F13D068
:1022B800E9468AB06A46934B53617B6AC2E90631A4
:1022C8004FF400731384904B42F8103F00234FF4EF
:1022D800125100F06DFDCD46023DCEE716F8013BE8
:1022E800F96254F82300FEF7CFFED7F88430F96A74
:1022F80001304BB1D7F8883098453EBFD7F88430C5
:1023080023F8180008F10108054494E7BB6923B1D4
:10231800786A10F00DFC0028C5D11BF0010F05D11B
:10232800FB6AED1AA9E7BB6A002BA6D04846FEF760
:10233800ABFED7F8843053B1D7F8883098453FBF03
:10234800D7F88420431C22F8183008F10108054406
:1023580093E7BAF1000F72D01BF0040672D0D04692
:10236800002607F1480052463B61B96218F07BFA33
:10237800B96A3B6901EB0A02BA62FA69F969520063
:10238800FA60BA6A02EB41023A610BF00202BA60E3
:102398003A69B96A8A4257D162787A621BF0020FA9
:1023A80032440CBF4FEA580100211BF0010FD2B292
:1023B80040F09F801BF0040F14BF40460020BB6113
:1023C8006270A070E1703A6A7969FB6A20469847A2
:1023D800051EFFF611AFBB6923707B6A6370FB694A
:1023E800E37041463A6AFB6A84F802A007F14800A4
:1023F8009847B0F10008C0F2BB807B693A6AA9EB44
:102408000A01C91AFB68C91AD7E90A0398470028BC
:10241800C0F2B080A84408EB00054FF0000B07F1AC
:10242800380AB34572D300213A6AFB6A08469847CE
:10243800E2E656464FF0000807F1380093E75646A3
:10244800D04697E7B04695E7BA6A12F8021BBA6217
:1024580012F8015C284A54F82500904202D3274A12
:1024680090421ED3BA6932B1786A7B6010F060FB83
:102478007B6800288CD1BA6802BB08F1280207F1F2
:10248800300C08F10100944407F1580252FA80F028
:1024980008F102080CF8101C5FFA88F800F8105CC4
:1024A80076E7BA693AB1786A7B6010F041FB7B68DD
:1024B80000287FF46DAF1BF0010F09D006F1280248
:1024C80007F13000711C161806F8205CCEB25FE7E1
:1024D8001BF0040F3FF45CAF08F1280207F130004D
:1024E80008F1010102EB000808F8105C5FFA81F8B6
:1024F8004EE7002063E700BF84AD01081C04020812
:10250800140700201ECF0108040000011BF80A3040
:1025180087F8373054F82390D7F884302BB3D7F89E
:1025280088309B4521D2D7F8843033F81B803A6A2B
:10253800FB6A012107F13700984700281ADB054498
:10254800B8F1000F06D14846FEF79EFD00F10108DC
:102558001FFA88F83A6AFB6A4146484698470028B5
:1025680008DB05440BF1010B5BE74FF00008DEE7E1
:10257800454641E605463FE6014B1860704700BFF7
:10258800B800002080B505460E46174698460EF05E
:10259800E7F9034618F0E8FBDFF81890044649F815
:1025A8000030424630463946A84754F8090003F03F
:1025B800E3FB00BF08000000034A536823F002034E
:1025C80053600020704700BF002004E0EFF3118043
:1025D800102383F31288BFF36F8F094B1A683AB937
:1025E800084A116841F4807111601168C905FCD569
:1025F8001A6801321A6080F31188BFF36F8F704731
:10260800641400200070004038B5EFF311851023E2
:1026180083F31288BFF36F8F104B1A6892B9104C6E
:10262800237853B90F48036813F0060F03D00E4AF6
:10263800022110F07BFE0123237085F31188BFF37C
:102648006F8F38BD012A01BF08490A6822F48072D9
:102658000A601A68013A1A60EFE700BF64140020A4
:10266800EF1D00207C070020D2CF01080070004039
:10267800084B1A6842F400721A601A6842F48062C1
:102688001A601A6842F480721A60034B034A1A608F
:10269800704700BF002002402C03002000093D00C5
:1026A8002DE9F047DFF85880044607464FF0010946
:1026B80014B93846BDE8F08794FAA4F5B5FA85F55B
:1026C80009FA05F32E0108EB05156FEA030A24EA57
:1026D80003042B7B002BEBD058F806301B694BB951
:1026E8004644042273682846196807EA0A0710F066
:1026F80099FDDDE7284698470028D9D1F0E700BFC3
:1027080054B8010830B51049104889B0002217F0B4
:1027180057FF0F4D0F4900220023CDE9062300245F
:102728000E23CDE90334CDE901440B4B00944FF45B
:10273800407228460DF0BAFD084928460DF0E8FC1D
:10274800204609B030BD00BF69270008800D002071
:10275800C008002080260020B12A000813D00108F4
:1027680001480DF02DBB00BFF00700202DE9F04710
:10277800804620480F4610F025FD0646002832D036
:1027880000252846BDE8F087237B83B12368DB68F2
:102798000BB120469847636883F8069023681B6945
:1027A800CBB9636804221968204610F03BFD013656
:1027B80010345445E8D3B8F1000FE2D0002DDFD033
:1027C8002846FFF76DFF0546002FF7D0002164204B
:1027D80017F00FFEF2E7204698470028E1D009FAE3
:1027E80006F31D43E3E7044CDFF810A005464FF05D
:1027F8000109DEE77814002054B8010864B801081C
:1028080008B5034608462BB1044A136000F072FD70
:10281800002008BD6FF01500FBE700BFBC000020DA
:1028280010B5044C237813B903480DF0C9FA0123F5
:10283800237010BDF01D0020F007002010B50446DD
:102848000B4810F0BFFC5CB1BFF35B8F094B53E83A
:10285800001F013943E80012002AF8D1BFF35B8F4B
:10286800054817F0B9FE0548BDE810400DF0A8BAB4
:102878007014002074140020800D0020F007002040
:102888000020064BBFF35B8F014653E8000F43E877
:102898000012002AF9D1BFF35B8F70477014002033
:1028A80070B5FFF7EDFF084C084E0546B44200D35B
:1028B80070BD63685B792BB123685B6813B12946E7
:1028C800204698471034F1E754B8010864B8010865
:1028D80010B5044C0449204610F061FA034B1C6003
:1028E80010BD00BFB806002028BD010868140020EC
:1028F8000E4A0F48002310B513700E4A13600E4A93
:102908004FF47A711360FFF77BFFFFF7E1FF00F0E8
:1029180079F90A4B0A4918468B4200D310BD1A1A96
:102928005C681211013222711033F5E7F11D0020A5
:10293800E7310108701400207414002054B801080D
:1029480064B80108014600220148002310F048BA83
:10295800B8060020014810F0E1BA00BFB806002010
:10296800024B0146186810F02DBB00BF6814002008
:10297800014810F062BB00BFB80600202DE9F04105
:10298800324B187800285FD0FFF7E4FF0446002890
:1029980056D12F4B2F4C1B68002B12DD17F0C8FDAA
:1029A8000A220023FEF704FBD4E90032C01A40F2E1
:1029B800E93361EB0201984271F1000101D3FFF79D
:1029C8006FFFD4E9003213F57A7342F10002C4E9CB
:1029D8000032BDE8F041FFF7CBBF6B685B793BB1D4
:1029E80021784B0717D52B6821461B68284698473E
:1029F80010354545F1D32046FFF7B2FFBFF35B8F93
:102A0800154B53E8001F013943E80012002AF8D19A
:102A1800BFF35B8FBDE720462688C1F3C20700F0ED
:102A2800A7FAC6F382160246002EDCD00028DADBAD
:102A380001233946284600F095F9B042D8D3D2E7A9
:102A4800064DDFF81C80D4E7BDE8F081F01D0020BA
:102A580070140020780D00207414002054B8010868
:102A680064B8010870B50D4D297861B90120FFF7E8
:102A78007DFE0B4C0B4EB44206D3FFF77FFF0028B8
:102A8800FBD101232B7070BD63685B791BB1236890
:102A980020469B6898471034EDE700BFF11D0020E1
:102AA80054B8010864B8010800212DE9F047084628
:102AB800FFF75CFE044658B34FF4FA784FF000096C
:102AC80018F052F91B4B1C4A1B58136033B11B4BAF
:102AD8001B68092B02DD1A480DF072F9194FDFF84F
:102AE80060A0002544B12046FFF7DAFD044618B976
:102AF8004FF0FF384FF0FF39FFF740FF064628B97F
:102B0800B5B942464B4650460DF094F93546E9E7CB
:102B18004FF0FF384FF0FF39D2E72B689B691BB1A4
:102B280000221146284698471035BD42F5D3E8E7FC
:102B3800054DFAE7080000006C140020741400200A
:102B4800F007002064B8010854B8010813B5184804
:102B580010F038FB174B1B7873B1EFF31184102377
:102B680083F31288BFF36F8FFFF708FF84F3118890
:102B7800BFF36F8F02B010BD0F4B1B68002BF9D04D
:102B880050B900220023CDE900230C4842F210720C
:102B980000230EF08FFAEDE70928EBD1074817F06C
:102BA8001BFD074802B0BDE810400DF009B900BF91
:102BB80074140020F11D00206C140020800D0020EA
:102BC800F007002010B5064B1B68044698472146BD
:102BD800A060044810F083F9BDE81040FFF7B6BFC5
:102BE800BC000020B8060020044A054B9B1AB1EB34
:102BF800D30F34BF52F83100002070472CB70108BA
:102C080054B801080B480C4B30B51B1A0B4CDB08A9
:102C180000210430994200D130BD10F831202568D8
:102C280002F0070225F007052A4344F8042B013176
:102C3800F0E700BF2CB7010854B80108FC060020D3
:102C4800F8B50B4F0B4DED1B0646ED080024AC42C2
:102C580003D14FF0FF342046F8BD57F8340020B1B7
:102C68003146FEF7FFF90028F5D00134EFE700BF41
:102C78002CB7010854B8010800282DE9F047884608
:102C880015461F461DDADFF89890264E4FF0000AC9
:102C9800A6EB090636095446B24509F1100902D1D6
:102CA8002046BDE8F08759F80C0C3B4600792A46C7
:102CB8004146FFF7E1FF844238BF04460AF1010AA2
:102CC800EAE7194B194AD21AB5EBD20F26D203EB11
:102CD800C5031C79BC4228BF3C46154EC0B200EB68
:102CE800400056F825300722824023EA020304F008
:102CF8000702824013430021032223FA02F000F066
:102D08000700814202F1030238BF01461E2AF4D1AE
:102D180023F007030B4346F82530C1E70024DCE71E
:102D280054B8010864B801082CB7010854B8010860
:102D3800FC060020F8B5094D094BED1A06460F466A
:102D4800ED080024AC4200D3F8BD002122B23B4676
:102D58003046013410F05EFAA4B2F3E754B8010823
:102D68002CB7010870B14168097973B1002A17DBE3
:102D7800CBB20C4951F8220003EB4303D84000F0D2
:102D8800070070474FF0FF31EFE707490748401A3F
:102D9800B2EBD00F3ABF01EBC20108791846704771
:102DA80004207047FC0600202CB7010854B801081D
:102DB8002DE9F04F8FB004AFC1F34A28B8600D4633
:102DC80091467B600C0DB8F1000F67D0002607F123
:102DD80014034FF0040B4FF00A0AC7F80C80C7E938
:102DE80007667E620193CDF808B0CDF800A007F120
:102DF8001C03F96832464846FFF7D4F9B0F5006F6E
:102E0800034620D32A48036813F0060F17D06C46F0
:102E18008AB0D9F8041004AB264DC3E9055140F235
:102E2800FF71D9611A464FF400711984224B42F898
:102E3800103F4FF412513346FFF7BAFFA5462C371F
:102E4800BD46BDE8F08FC0F30A0804F11700184426
:102E580020F0070080083B60FFF774FD68F35325F6
:102E6800044690B13B68154AC7E9083600F11001DD
:102E780007F11403F961CDE900A3CDF808B0F968AA
:102E880007F11C034846FFF78DF968F353257B6863
:102E9800B9682A46204610F0F9F9D0E704F117007E
:102EA80020F007008008FFF74DFD0446EDE700BF5E
:102EB8005407002028D001080400000167320108E7
:102EC8002DE9F04F87B0DDE91279DDE9105A0446A3
:102ED800039193469846DFB1CDF800903B465246A1
:102EE80010210020CDF81490FEF78AFFB0F5006F8E
:102EF80006460ED31C48036813F0060F30D01B4A51
:102F080040F2FF73022107B0BDE8F04F10F017BA86
:102F18003E4605F11700304420F0070004F007048E
:102F28008008FFF70FFD0BF0070BE40044EA8B1451
:102F380044EA462444EA0554054640B13FB1CDF879
:102F480000903B46524631461030FEF759FF039930
:102F580043462246284607B0BDE8F04F10F096B920
:102F680007B0BDE8F08F00BF5407002067D0010804
:102F7800406820B1034BC01A40F38F0070474FF0F0
:102F8800FF307047FC0600200EB403B503AB0146C2
:102F980053F8042B0448019303F08CF902B05DF850
:102FA80004EB03B0704700BFA9330108CA0605D473
:102FB8008B064CBF02490349FFF7E6BF704700BFC5
:102FC80074D401089FD001082DE9F04F89B09B46C1
:102FD800149B06939DF84CA0159B0593169B179E72
:102FE800049304460D469046BAF1000F00F09D8008
:102FF80006F48073079310F00BF906F002090246F5
:1030080000283ED091492046FFF7BEFF0746B9F198
:10301800000F08D016F0440F35D18D492A462046B6
:10302800FFF7B2FF074406F0010353B1894B8A4901
:1030380053F82A20894B2046002A08BF1A46FFF772
:10304800A3FF06F48073002B49D006F00803002B79
:1030580063D1B8F1000F66D0814942462046FFF798
:1030680093FF0546069B3D44002B6DD1049B002B26
:1030780073D1F30700F1E48031462046FFF796FF4D
:10308800D8E00746C3E7774B18680028CAD0764BC4
:103098004FF47A791B68B5FBF3F54FF46163B5FB20
:1030A800F0F100FB115509FB05F54FF03C0CB1FBA5
:1030B800F3F203FB1211B5FBF0FEB1FBFCF300FBCE
:1030C8001E550CFB131109FB05F50091B5FBF0F536
:1030D8006649CDE901E52046FFF756FFA2E706F06D
:1030E8000803EBB1624B634953F82A202046FFF7E7
:1030F8004BFF0546B8F1000F05D059494246204616
:10310800FFF742FF0544BBF1000FABD05A495A46BE
:103118002046FFF739FF0544A4E74FF0000BE1E72D
:1031280006F00805E6E745469CE7BBF1010F069B5C
:1031380006D1002B64D1049B002B7BD000250CE02A
:10314800002BF8D04D485CE04D48069B4D4922467F
:103158000FF0BDFC049B002B68D0DFF82C81DFF852
:103168002C91049F3146102F204628BF1027FFF7C7
:103178001DFF4FF0000B5D4545DC059B49461A785D
:103188002046FFF701FF4FF0010B1BF0070F03D19B
:1031980041462046FFF7F8FE5F453BD9059B494667
:1031A80013F80B202046FFF7EFFE0BF1010BBBF1E4
:1031B800100FEAD1364920464FF0000BFFF7E4FE26
:1031C8005A46059B9A5CA2F120015F2928BF2E224E
:1031D80030492046FFF7D8FE0BF1010BBBF1100F69
:1031E8001DD01BF0070F03D141462046FFF7CCFE48
:1031F8005F455A46E5D841462046FFF7C5FEEBE74E
:103208001F485546A1E741462046FFF7BDFE0BF192
:10321800010BB0E720492046FFF7B6FEC5E7059B3E
:103228003B440593049BDB1B04939AD1BAF1000F2E
:103238007FF41FAF204609B0BDE8F04F10F0A3B8E7
:10324800064A05492046FFF79FFE15E7D9DC010825
:10325800A7D001083CBD010898D60108A2D00108F2
:10326800CCD00108801400207C140020B0D00108C4
:1032780050BD0108D0D00108D6D00108DF330108BD
:10328800A9330108BD620008E3D00108DBD00108BA
:10329800E5D00108BDDC0108E1D0010873B542F2B0
:1032A8000F738B4228BF0B4605680F4A0446052159
:1032B80068460EF003F863680C495B6806460B2203
:1032C800284610F052F863683246694628465B681B
:1032D80010F04BF8636806495B681B22284610F01B
:1032E80044F802B070BD00BF05F2010803D101081F
:1032F800E7D00108074A00210123904206D8064A70
:1033080001B901231360054B1860704740085B0042
:103318000121F2E740420F007C14002080140020B5
:10332800014B03600020704764BD010870B5104B65
:103338001C680D46B4B10F4B196800238B4202DBA1
:103348006FF0010070BD224612F8106B864202D061
:1033580001331446F2E7E06816F040FE28B12C600D
:103368000020EFE76FF00C00ECE76FF01200E9E7E0
:10337800C000002064BD010810B5044608F076FCC2
:1033880003490246204610F058FA002010BD00BF3D
:1033980046D1010837B5134600220192054601AA15
:1033A80058680A2101F09CFC019C4CB920EAE070A5
:1033B8000A2180FB010117F01CF8204603B030BD3C
:1033C80022460349284610F054FA019CF5E700BF4D
:1033D80072D1010808B5034A034910F02EFA0020FB
:1033E80008BD00BF5FD2010869D20108F7B51746CA
:1033F8000023054601AA0A21B868019301F070FC70
:103408001749C6B2284610F026FA019C44B1224654
:103418001449284610F02DFA019C204603B0F0BD4F
:10342800042E09D910493246284610F022FA2846B7
:1034380010F05BFA0124F0E77868FFF701FC021E40
:1034480007DA7A680949284610F013FA6FF015046C
:10345800E3E7334612B2214620460FF0DBFEDCE7F5
:1034680094D20108FAD2010821D3010838D30108FF
:1034780007B500230090694604488DF804300DF024
:1034880001FC9DF8040003B05DF804FBF934010861
:1034980010B5044608F0CCFB07490246204610F058
:1034A800CCF92046054910F0C8F9054821460DF029
:1034B80003FC002010BD00BF97D30108B6D3010854
:1034C800CD34000870B58EB004460D46D0F89C6027
:1034D80016F0CFFE034617F047FC214A2149105841
:1034E800214A002B18BF1A460092204A23468442DC
:1034F80018BF0A4628461E4910F09FF9D4E90A2346
:10350800CDE90023284694F90E30227B194910F0A2
:1035180094F906A9202220460CF00AFE636E16498B
:103528000246284610F089F905A9204616F0AFFE94
:10353800024628B11149284610F07FF90EB070BD37
:10354800059B6422F11A4A430091B2FBF6F20C493A
:10355800CDE901622846324610F06FF9EEE700BF68
:1035680008000000E3D00108C0D30108A9E601085B
:10357800C3D30108CFD30108FBD3010812D4010833
:103588003FD40108F0B5002591B00446294608AF9C
:103598001C2209A817F08FF9134E1A222021384649
:1035A80017F089F9214611480DF086FB07AA4FF458
:1035B8000061304616F05FFE079A0097C2F5006179
:1035C80064234B43DB0A05934FF40063CDE90313EF
:1035D800CDE90132204606492B46A6F1400210F0FB
:1035E8002CF9284611B0F0BD40320020FD35000806
:1035F8008BD4010870B50446D0F89C6088B00D469D
:1036080007A916F044FE024628B10F49284610F0D3
:1036180014F908B070BD204616F02BFE079B0096E3
:10362800F11ACDE90131094B64224A43002818BF39
:103638000346B2FBF6F20649CDE903622846224664
:1036480010F0FBF8E5E700BF12D40108C0D3010869
:10365800D4D4010838B5134605461022586800210D
:103668000DF0F0FE0446FFF703FF38B90E49224675
:10367800284610F0FEF86FF0150038BD17F074FBFF
:103688000A4B1B589C4204D10949284610F0F1F80E
:10369800F1E720460CF020FF28460649224610F0A4
:1036A800CCF80020E9E700BF38D501080800000081
:1036B80053D501087BD5010838B5134605461022B5
:1036C800586800210DF0BEFE0446FFF7D1FE38B958
:1036D8000E492246284610F0CCF86FF0150038BD88
:1036E80017F042FB0A4B1B589C4204D10949284653
:1036F80010F0BFF8F1E720460DF00CF8284606490F
:10370800224610F09AF80020E9E700BF38D50108F2
:1037180008000000BAD50108E0D5010838B51346FD
:1037280005461022586800210DF08CFE0446FFF76C
:103738009FFE38B90E492246284610F09AF86FF0D5
:10374800150038BD17F010FB0A4B1B589C4204D1DA
:103758000949284610F08DF8F1E7204602F00CFBE5
:1037680028460649224610F068F80020E9E700BF1D
:1037780038D50108080000001BD6010840D601080A
:103788002DE9F04F87B0044668460CF01FF8009FFB
:10379800284ADFF8A4A0DFF8A4B0242303FB0077AD
:1037A8000821204610F03CF8009DBD4203D30020BC
:1037B80007B0BDE8F08F2B680BB11A7832B92B46E9
:1037C8001F4A142101A80DF079FD01AB52460821CA
:1037D800204610F025F8284616F000FC194B1A4A26
:1037E800002808BF5B460821204610F019F82B6A0C
:1037F800A3B11E6896B1336883B1144A08212046E4
:1038080010F00EF8B1464FF000083368104A4345EF
:1038180006D8104A0821204610F002F82435C4E7DB
:1038280059F8043F082120460FF0FAFF08F1010873
:10383800EBE700BF87D6010896D601087ED60108B7
:1038480091D6010878D6010827DD01089BD6010822
:1038580097D6010874D401082DE9F041144688462A
:1038680007461022606800210DF0ECFDB8F1020F48
:10387800064607D8254A2023082138460FF0D0FFEE
:10388800336816E00A220021A0680DF0DBFDC5B2FE
:103898001E4A2B46082138460FF0C2FFB8F1030F25
:1038A8001AD1102D0CD0202DEAD0082D0BD1337849
:1038B800DBB2174A082138460FF0B2FF002009E0B2
:1038C80033889BB2F5E73846124A08210FF0A8FF63
:1038D8006FF01500BDE8F081E068102200210DF0BE
:1038E800B1FD0D4A03460446082138460FF098FFFB
:1038F800102D06D0202D07D0082DE4D1E4B2347065
:10390800DCE7A4B23480D9E73460D7E7DCD6010815
:1039180007D70108F1D6010818D701082DE9F04F9B
:1039280087B000230193524BDFF848A1914601224A
:10393800074688461A6002F037FD4FF0FF3520260B
:103948002C4649465246404602F052FD411C06D1DB
:103958006A1C41D1484938460FF08BFF17E073289D
:103968001AD0772828D0612811D1DFF810B101AA20
:10397800DBF80000102101F0B3F9019B0546002B8C
:10398800DFD0DBF800203E4938460FF072FF6FF0B9
:10399800150007B0BDE8F08FDFF8E0B001AADBF84A
:1039A8000000002101F09CF9019B0446002BC8D0BF
:1039B800DBF800203349E7E7DFF8C0B001AADBF8FD
:1039C8000000002101F08CF9019B0646002BB8D0BD
:1039D800DBF800202C49D7E7631C01D12B49BAE753
:1039E8005FFA86F8C6F3C406002C3FD002AB29461E
:1039F8001A46A6EB050C0CE0B8F1100F1DD0B8F173
:103A0800200F20D0B8F1080F2AD108781870314457
:103A18003344A64203D80CEB01001028ECD9102C33
:103A2800A14628BF4FF0100929464B46384601F0F9
:103A38002FF81035A4EB0904D6E7088880B218706F
:103A4800000A5870E3E7086818704FEA102E83F8E8
:103A580001E04FEA104E000E83F802E0D870D6E776
:103A68000B4A082138460FF0DBFE90E7204690E726
:103A78003401002066D701086DD701083C180020E2
:103A88002CD701083FD7010852D701088AD7010867
:103A9800F1D6010870B50F4E044633780D4671B162
:103AA80023B1BDE870400C490FF0E3BE0123337029
:103AB8000A4920460FF0C1FE0123337004E083F069
:103AC80001033370002BF3D129462046BDE870402E
:103AD8000FF029BFF21D0020A4D70108DFD7010885
:103AE80070B504463B480378182B02D10B78112B8C
:103AF80031D0013A0B468D18AB4225D18B5C0A7840
:103B08000370A2F13003092B334C04D922F02003AF
:103B1800413B052B04D823683049CA54013323603C
:103B28002368022B33D110222C4800210DF08AFC87
:103B38002B4A136803F8010B13602A4A13680133F0
:103B480013600023236022E013F8016B182ED3D1F1
:103B58001E78112ED0D1234D23492A6820460FF014
:103B68006CFE20460021FFF795FF204B187870B9AE
:103B78001F4A2B681168042B0ADC08B111602B60FE
:103B880013F003010BD1126813681BBA136070BDE0
:103B9800086800BA41F8040B043B0120EBE75B42DC
:103BA80003F0030358BF5942022904D1126813884D
:103BB8005BBA9BB2EAE70329E9D1106802681104ED
:103BC800C2F3074301F47F010B4302F47F4213431E
:103BD8000360DCE7F31D002084140020F51D00209D
:103BE800901400208814002009D80108F41D002032
:103BF8008C1400202DE9F84F0C462B49DFF8AC80D7
:103C0800DFF8AC90DFF8ACB000230B602A4988F8E5
:103C1800003006460B601546012C2F4655F804AFB8
:103C28001ED902224946504616F07BFE80B99AF802
:103C38000220003A18BF012292442049022250462D
:103C480016F06FFE30B9012388F80030013CE3E735
:103C58000022F1E749465046FDF704FAA8B90437AF
:103C68000022114678680DF0EDFB154B0022114635
:103C7800186078680DF0E6FB124B1349186030465F
:103C8800FFF708FF0020BDE8F88F9AF800202D2ADA
:103C9800E6D19AF80120002AE2D052465946304629
:103CA8000FF0CBFDD2E700BF84140020F41D0020E4
:103CB80023D8010829D801088814002026D801082B
:103CC800901400208C140020E93A000807B50A482F
:103CD80016F084F960B1094A0749126808480423B4
:103CE8000093012300F03AFF002003B05DF804FBC5
:103CF8006FF01200F9E700BF88B0010890BE010814
:103D080064B8010810B54468C4E90012A3604268A9
:103D18001346402153F8404B53625163002302F18C
:103D28003801C2E90413C2E90A33C2E9063308219B
:103D380013631162C2F8B830A36823B19B6C13B146
:103D4800044920469847A3689B6A0BB120469847C8
:103D5800002010BD613D00082DE9F34705460C46DB
:103D680083685B6C03B19847AB685B6B73BB4FF0C0
:103D7800000904F1240704F12808218E238D626BC1
:103D88005B1A9BB2D31A934228BF1346414601AA35
:103D980038460FF06BF98246002844D0AB68019989
:103DA8009B69002B33D0024628469847064688B3BD
:103DB8003246414638460FF08FF956454FF0010913
:103DC800DBD0D4E901310020984703E02846984722
:103DD8000028CCD1AB685B6A002B37D1628BE38AB1
:103DE8009B1A226A9BB2934204F1100704F11A0845
:103DF80028BF1346414601AA38460FF037F9064650
:103E080058BB28460FF08AFBC4F8B86031E06FF061
:103E18005706CDE70246414638460FF05DF9B9F13D
:103E2800000FD7D0CDE71748036813F0060F03D06B
:103E3800154A02210FF07AFAAB689B69002BEED085
:103E480001220DF1030128469847E8E728469847DC
:103E58000028C3D102B0BDE8F087AB6801995B695F
:103E680063B10246284698470246414638460FF055
:103E780033F9D4E9013101209847EBE76FF0570295
:103E8800F3E700BF7007002090D9010810B58168DA
:103E98000446183101F0B6F9A168034A20461831E2
:103EA800BDE8104001F046B9D2D9010838B5836899
:103EB800D3F87832DB0704461DD4C06910F058FAED
:103EC800606803685B689847054620B9E06810F0A9
:103ED8001DFCA3681D75A3685B6C13B129462046B9
:103EE8009847A36816F040FF0022C3F82023034B2D
:103EF800185801F041FF6FF00F05ECE708000000CB
:103F080001490FF0A9BB00BF74D40108F7B50446F6
:103F18008068D0F878325A070D4605D500210FF091
:103F2800C3FBE06810F0C4FBE368DB6873B9002DDD
:103F38003BD0A66806F1560738460FF09AFB0028D2
:103F480035D0394606F5AB70FDF796F8A268E068FB
:103F58000DF106035632294610F0ADFB58B9A0689A
:103F680000F5AB715630FDF787F8A06856300FF0B2
:103F780080FBADF8060020460FF0C8FFA368D3F811
:103F880074329B0603D50B4960690FF065FB204628
:103F980000F00CFFA268BDF80630A2F85230A26803
:103FA8002046A2F850300FF016FF03B0F0BD86F897
:103FB8005601CBE7F0B901082DE9F04FA7B0044648
:103FC8005422002111A816F076FC0023CDE9053310
:103FD800A3682046563302930FF09FFF20460FF048
:103FE800E3FE10B96069FFF78BFFA0681422002177
:103FF800183016F060FC20460FF07CFEA168E068DF
:10400800B1F850205631002610F08CFB204610F0F5
:104018001BFC4FF0FF37B24603960DF14408B34638
:104028003546B146DDE90532012A6DD0132B6ED82D
:104038005FBBBBF1000F0AD0204610F026FCA26837
:104048001423563211A90DEB03000FF0D2FCB9F17D
:10405800000F0CD099F81130FE2B08D1059B26AA29
:1040680002EB830252F8542C0AB101330593A0687D
:10407800059D436A002B40F0B680CEB1C3699E42CD
:104088002DD00D9600F1180524E0029A022341462E
:1040980006A80FF0AEFC0699D8F804200292034651
:1040A80031B101290AD148B16D4A20460FF0E7FF26
:1040B8006FF00705284627B0BDE8F08F059B002B59
:1040C80034D0D8F8000001F0CFF898B166B1A568EF
:1040D8000D9618350CAE0FCE0FC533682B602046F1
:1040E800FFF7D4FE0125E5E75E4A012120460FF0DF
:1040F800C6FFDDE7059BCBB1D8F80020294620464E
:1041080001F054FA022809D1059B132B91D9069B7B
:10411800022B8ED1544B554A0121C6E7032805D0FE
:10412800059B013305934FF0010B7BE7039B33B9E4
:10413800D8F8001007AA48460FF052FD054608F1C6
:104148000408013F9DB3EB68BBF1000F08D0F3B141
:1041580020460FF0E2FE20460FF03DFE444AC4E739
:10416800ABB1A368DDF814A0AE4603F1180CBEE8A5
:104178000F00ACE80F00DEF80030CCF80030AB6878
:104188002BB96B7CFE2B04BF2F7C07F1FF37D5F8CA
:1041980004C0BCF1000F08D0AE46BEE80F000CAE5C
:1041A8000FC6DEF8003033606646A94603E0059B7B
:1041B80053B101230393069B17B9022B7FF432AF47
:1041C800059B013305932DE7A368DB6A13B1DB6810
:1041D800002BEED1274B0093274A119B0121204643
:1041E8000FF04DFFE5E790F82830A5EB0A05BBB1C5
:1041F80090F829104FF6FF72FF2918BF0A469D4212
:1042080002D313449D420BD983691C4A01212046DD
:104218000FF035FF2046FFF739FE6FF0150549E727
:1042280001210FF036FAA06800F543700FF055FA37
:10423800A36811AA294602EB8A025B6A20469847BE
:104248000546A0684FF0FF324FF0FF3300F543708A
:104258000FF0EAF9A06800210FF01BFA2AE700BF67
:10426800E0D90108F4D9010855DA010853D3010847
:1042780012DA010841DA010854DD010879DA010887
:1042880010B5836802221A7583689B6C0446BBB913
:104298000FF0A1F98368D3F87832DB040BD503213A
:1042A800084B094A0FF0EBFEA0686FF4805100F547
:1042B8001E700FF0AAF92046BDE8104000F0FCBEC1
:1042C80010BD00BF94DA010898D601082DE9F04F17
:1042D80004468068B1B0012100F51E700FF086F920
:1042E800A3681B7D022B20D100230993A368606873
:1042F8009E6C03681D6909AB0EB310221BA9A84761
:10430800099B93B1A06801210FF0C3F9099A1BA971
:104318002046B047A06800210FF0BBF9A3689B6C4A
:10432800002BE3D12046FFF7ABFFA0686FF0010137
:1043380000F51E7031B0BDE8F04F0FF066B90122EC
:104348000DF12301A847099B002BEED09DF92320EE
:104358009DF82330A068002AC8DB427D032A00F2BA
:10436800F482DFE812F0040075028C02F2020D2BD1
:1043780067D00A2B43D0B0F87822092B6FF3CA0212
:10438800A0F8782272D029D8002B00F00381082BDE
:10439800A06800F0E9810246D2F87412890740F15A
:1043A800F980013B162B00F2F580DFE813F0B70225
:1043B800FA01FE01F601B1021002F300F300F30066
:1043C800F30014021802F3002D02F3003202F30086
:1043D800F300F300F3003402F30049021B2BA0683A
:1043E80041D07F2B00F0CC81A3F120015E29024649
:1043F800D2D801210FF058F99DF82310B8E0D0F871
:104408007822C2F3C7022AB1D0F87822C2F3C702D1
:104418000A2AC0D1B0F8782263F3CA02A0F8782239
:10442800A568B5F85010C1B928460FF03DF9E06805
:1044380010F03EF96069FFF763FD2046FFF720FFA3
:1044480054E7D0F87822C2F3C702002AE2D0D0F8A5
:104458007822C2F3C7020D2ADBE72046FFF7ACFD3E
:10446800C5F82403E9E70123437593E0A068D0F871
:1044780074329B0740F18E8001210FF015F9A06876
:10448800B0F85030FF2B00F08580B0F8522000F1D2
:10449800560100F5AB7016F0E6F9A368B3F85220A0
:1044A8001344002583F85651A2681BA9142302F56A
:1044B800AB720BA80FF09DFA0B9914296AD830AB90
:1044C80003EB810343F8545CA368B3F85220002A35
:1044D80052D0134493F85530202B02D0093B042BBB
:1044E8004AD800294BD100250A950A9B30AA02EB2D
:1044F8008303002653F854AC50460FF0BAF8B3467D
:104508008146B046374616AA3946284600F0AEFB23
:104518000346002842D1012E68D10A9B30AA02EB3B
:10452800830353F8540C0FF0A4F8A2680646183217
:104538004146284600F09AFB056828460FF099F88E
:10454800864205D0821B92B2A91920460FF0DEFDE3
:10455800A068B0F85230034493F85630202B34D07A
:10456800093B042B31D9D0F87432DF0732D420212B
:10457800204600F069FD0DE00129B4D90139002079
:104588000CAB009301900AAB1BAA0FF054FB054635
:104598000028AAD160690FF0CCF9A7E61B6803933D
:1045A8004A465146184616F0BCF960B9039B1846AE
:1045B800FCF76AFD584538BF58461FFA80FB002EA5
:1045C80008BFB846013601379DE7012120460FF0A4
:1045D80036FCDFE700210FF071F82021204600F0BB
:1045E80033FDA06801210FF069F8D3E70490D1D911
:1045F8000A9A30AB03EB8202C14652F8543C03934B
:1046080018460FF036F8A268049B0590A2F84030CF
:104618000496A26849461832284600F027FB039BF7
:10462800D0F800A009F101094BB1BAF1000F06D08A
:10463800059A1946504616F074F90028E9D1A16880
:10464800BAF1000F4ED1A1F840A0049B013B04939E
:10465800DFD16069FFF754FC204600F02DFD0A9B6E
:1046680030AA02EB830308F1010A53F8540C0FF047
:1046780000F8414611AA8146284600F0F7FA074695
:10468800A0683968FF2200F5AB7016F05CF93B684A
:1046980003934FF6FF77B84616AA514628460AF103
:1046A800010B00F0E3FA002852D0A168036801F278
:1046B8005511002211F801EF985C704503D110B133
:1046C80001324245F6D1B9F1000F01D04A4507DB66
:1046D800BA4206F1FF36A8BF3A46012E97B237D044
:1046E800DA46D9E79A4806910EF0C3FF0699079172
:1046F8004A8F00EB0B07BFB2121A504692FBF7F233
:1047080092B206920EF0B5FF0799069A3F1AB1F8D1
:10471800400000F1010CA1F840C0B0FBF2F102FB2F
:10472800110080B2BFB260B9894B8A4ACDF800A0A7
:10473800062120460FF0A3FC3946204600F020FB56
:1047480083E7854A5346062120460FF098FCF3E795
:10475800002F3FF41FAF0399A7EB090292B2494417
:1047680020460FF0D3FC15E7D0F874329E077FF58A
:1047780011AF01210EF098FF20460FF0E8FC09E781
:10478800D0F874329D077FF505AF01210EF08CFF3C
:10479800A368D3F874321807EED420460FF0B8FC9B
:1047A800F8E620460FF0C2FBF4E620460FF0B5FB12
:1047B80020460FF0F9FA10B96069FFF7A1FBA0686D
:1047C80001210EF071FF2046FFF75AFDE2E6204670
:1047D8000FF0B5FBDEE620460FF0BCFBDAE6D2F8B8
:1047E80074329F0603D55D4960690EF035FFA368F2
:1047F800D3F874329E0603D5594960690EF02CFF30
:10480800204600F059FCC5E600212046FFF77EFB54
:10481800C0E60121F9E720460FF078FB20460EF0AC
:10482800DAFE0121A0680EF03FFFA368D3F87432C6
:104838009D067FF5AFAE4B4960690EF00DFFA9E606
:10484800204600F02DFBA06801210EF02DFFA1E607
:104858005B2B01D1022307E6D0F87422900706D516
:10486800622B08D14FF0FF3120460FF011FBA368EF
:1048780000225A758EE6662BF9D10121F4E7002251
:104888004275A268D2F8741289077FF52FAD313BC3
:104898001B2B3FF67FAE01A151F823F021490008F8
:1048A8002D49000841490008154900089D450008A0
:1048B8009D4500089D4500089D4500089D45000848
:1048C8009D4500089D4500089D4500089D45000838
:1048D8009D4500089D4500089D4500081B480008A7
:1048E80011480008D7470008AB4700089D45000855
:1048F800194900089D450008254900089D450008FC
:104908009D4500089D45000831490008032353755B
:1049180020460FF002FB3DE60323537520460FF0B7
:10492800F5FA37E603235375A068D0F8741201F03E
:10493800010181F0010156E603235375A368D3F8FA
:1049480074329B077FF526AE27E700238CE500BF6E
:10495800E2D00108D8DA010898D60108F5B90108AB
:10496800FAB90108F0B901082DE9F0410446806858
:10497800154600F51E70002937D04FF480410EF01F
:1049880035FEA368DD646068036800219B6898476A
:10499800002851D120460EF0C6FE00284CD1274EE3
:1049A800274FDFF8A080A06800F52F704FF0FF3286
:1049B8004FF0FF3303210CF0E5FB0546A068CDB1AD
:1049C80041F28832002300F543700EF02DFE98BBAB
:1049D80020462B461C4A01210FF051FBA068BDE878
:1049E800F04100F543700EF078BE6FF480410EF090
:1049F8000CFEC6E74FF0FF334FF0FF3200F543706F
:104A08000EF012FE3246022120460EF00FFE3A4604
:104A1800294620460EF00AFE2046424601210EF0A5
:104A280005FE606803685B6903B19847A06800F5F4
:104A380043700EF052FEB6E7BDE8F081B53E0008BF
:104A4800D5420008E7360108DEDA010810B50B493F
:104A580004460EF0F2FE204609490EF0EEFE20460E
:104A680008490EF0EAFE204607490EF0E6FE204609
:104A7800064A002100F05EFB002010BDF5DA0108AF
:104A880033DB010892DB0108E6DB010880DC010862
:104A9800F8B517461E460A46294904460EF0CDFECB
:104AA8003EB33A78274920460EF0C7FE01256A072B
:104AB80003D1254920460EF0C0FEAE421ED97A5DCC
:104AC800204920460EF0B9FE0135102DEFD11F49BF
:104AD80020460EF0B2FEB6B91B4920460EF0ADFED8
:104AE8000125AE422B4610D8174920460EF0A5FEE8
:104AF80015E0174920460EF0A0FE0125144920466E
:104B08000EF09BFEE0E700252B46FA5C1149A2F166
:104B180020035F2B28BF2E2220460EF08EFE013583
:104B2800102D06D06B07DCD1074920460EF085FE14
:104B3800D7E720460849BDE8F8400EF07EBE00BF22
:104B480096DC0108DBD00108E3D00108E5D00108B4
:104B5800E1D00108BDDC01089DDC01082DE9F04326
:104B6800044680688846D0F8201389B015461F4649
:104B7800002960D14FF44A7215F09DFEE0680FF0ED
:104B880049FEA06800F5437015F021FB4FF42F791A
:104B98004FF41F76A068304415F058FEA068002234
:104BA800831901214844103615F022FEB6F52F7FEF
:104BB80009F11409EED1A36900261E60A06802213C
:104BC80000F51E700EF012FDA36850225A87A368E4
:104BD80018221A87216820460EF059FEA368174A42
:104BE80066F38205C3F874526068036841461D681D
:104BF8002346A8470546D0B9A36801221A75D4E907
:104C08000A0100220023CDE906230E230393109BFB
:104C18000495CDE901730094094B4FF400620BF041
:104C280045FBA368C3F82003616A0BF071FA2846B4
:104C380009B0BDE8F0836FF07705F8E7873601081B
:104C48007149000810B5044613460A46014606484D
:104C580001F030FB23691B7923B12046BDE81040E1
:104C68000EF067BE10BD00BF5339010838B50B46BA
:104C7800154648B91449154A521AB3EB920F05D292
:104C880051F82350284638BD84680CB90025F9E747
:104C98000F4A94420AD30F4A944207D21846226810
:104CA800294690472B68002BECD1EFE70A4A94423B
:104CB80002D30A4A944205D3246814225343E518C0
:104CC800E358F0E70133F8E794B80108C4B80108DD
:104CD800DCB90108DCB90108C4B80108DCB901086D
:104CE800F7B503782D2B0446164605D16FF015034A
:104CF8003360002003B0F0BD16F036F80B4F0023E8
:104D08000546C3510A46204601A90CF09BFBEB5906
:104D1800222B02D16FF02103EAE7002BE6D1019B99
:104D2800A342E3D01B78002BE4D0DFE70C0000009F
:104D38008368D3F874329B0603D5024940690FF0A3
:104D480014B8704700BA010801490FF00EB800BF47
:104D580074D401080A1E0DDC0ED042238168D1F8F4
:104D68007412890608D5002A04494069B8BF52421E
:104D78000EF0FBBF4123F1E7704700BFB9DC010823
:104D88000A1E0DDC0ED044238168D1F874128906FE
:104D980008D5002A04494069B8BF52420EF0E5BF61
:104DA8004323F1E7704700BFB9DC01082DE9F0475C
:104DB8008568DFF86890044605F15600FCF764F949
:104DC800002395F83C7086B29846A268558FED1B73
:104DD800B54209DB002E1FDD563360691049BDE876
:104DE800F0471A440EF0C1BF1D442A44563392F8C6
:104DF80056A082F85680A26860691A4449460EF0A7
:104E0800B4FFA3682B4483F856A0A3685B8FDB1B11
:104E1800F61A00272B46D8E7BDE8F08753D30108D8
:104E280098D6010808290A4617D8836893F83E10CF
:104E3800914212D083F83E208368082AD3F874324E
:104E480005D0990609D5054940690EF08EBF9B0625
:104E580003D5034940690EF088BF7047C0DC0108DC
:104E680005BA010838B50D4609780446FFF7DAFF98
:104E78006A78072A11D8A36893F83F1091420CD09A
:104E880083F83F20A368D3F874329B0605D5606980
:104E98000249BDE838400EF068BF38BDC9DC0108DA
:104EA800F8B58368B3F850200446002A55D0B3F803
:104EB8005210002951D0553103F156050B441846BC
:104EC800A84206D3014611F80169202E3CD0A84219
:104ED8003CD286B29DB2AB1B9BB2591C471CD21A5E
:104EE8000144384615F0CDFCA268B2F85030711B69
:104EF80013FA81F3A2F85030A368B3F85020134492
:104F0800002283F8562009B220460EF098FFA368C5
:104F1800D3F874329A0603D5104960690EF025FF5C
:104F28003B460F4A082120460FF0A9F82046FFF714
:104F3800FFFEA368D3F874329B060ED56069094951
:104F4800BDE8F8400EF011BF0846B9E7014611F870
:104F58000169202EBDD00846B9E7F8BD0ABA010894
:104F680098D601080EBA01082DE9F84F04460F46F5
:104F780090460AB1FFF7DCFEA668D6F87432B6F898
:104F880052505B0724D505F156003044FCF77CF8F5
:104F98002A4E0546B5B9A368B3F85020A3F85220A5
:104FA800A0680EF0EFFE30B1B8F1000F00D017B1D5
:104FB8006069FFF7C9FE7942204609B2BDE8F84F9B
:104FC8000EF03DBF606931460EF0CFFE013DE1E7CE
:104FD8003046FCF759F8B6F85090738F19FA80F9F3
:104FE80015FA80F0B0FBF3F2B9FBF3F39A42AA4644
:104FF8001BD0134DA3684845CDDA5A8FB0FBF2F3A6
:1050080002FB1303461C13B96069FFF79DFEA368F2
:105018005344204693F856300AF1010B2A460821DA
:105028000FF02DF8DA463046E4E75635054A73198D
:10503800082120460FF023F8ADE700BFA9E60108D4
:10504800BDDC010898D6010813B583688DF80710F0
:10505800D3F874220446D00725D5B3F85210B3F814
:1050680050208A421FD0481CA3F852000B449DF8D8
:10507800072083F85620A368D3F87412890710D53F
:10508800D3F8743260690B4913F0040F18BF2A2251
:105098000EF06BFE20460EF087FE10B16069FFF738
:1050A80053FE02B010BD01220DF1070120460EF09B
:1050B800F3FFF6E7BDDC010810B504468368094A2A
:1050C80002210EF0DCFFA368D3F874329B0707D5E2
:1050D8002046FFF76BFE2046BDE810400EF08ABE62
:1050E80010BD00BF98D6010801490FF0B7B900BF3D
:1050F80074D40108F8B50F465168044615461E4693
:1051080011B11A460FF0B7F9AB6883B131462046A2
:10511800FFF736FE2046064A3B4608210EF0AFFF51
:10512800A968F21D2046BDE8F8400FF0A4B9F8BD03
:10513800D2DC01082DE9F04F0F46002189B0044662
:1051480016460D4603AA384601F10108FFF78EFD01
:10515800A8B98DB126B13246082120460EF08FFF3E
:10516800DFF89090DFF890B0002103AA384601F1EB
:10517800010AFFF77BFD60B909B0BDE8F08F006850
:1051880010B1FBF781FF80B2854238BF0546414622
:10519800D8E7D0F80080B8F1000F0FD098F80030A9
:1051A80063B14668154ACDE900584B4608212046A8
:1051B8000EF065FF26B96069FFF796FF5146D4E700
:1051C8004B465A46082120460EF059FFAB1DB20740
:1051D8009BB209D131680A4A914205D1324641460B
:1051E8002046FFF787FFE9E71A46314620460FF0C9
:1051F80042F9E3E7F2DC0108D6D00108DDDC01085A
:10520800C40BD286F7B50F6805460E46EFB138468F
:10521800FBF73AFF84B2114B009308213B46104A32
:1052280028460EF02CFF7168E31C9BB279B18A07FF
:105238000DD108680B4A904209D10A4631682846C0
:1052480003B0BDE8F040FFF755BF3C46E3E71A4618
:10525800284603B0BDE8F0400FF00DB9EEDC0108B8
:10526800D9DA0108C40BD28610B507490446FBF702
:10527800F9FE38B105492046FBF7F4FEB0FA80F094
:10528800400910BD0120FCE7E4DC0108E7DC010867
:1052980010B58368D3F874329B06044603D50649D3
:1052A80040690FF058F9A36850225A87A36818225A
:1052B8001A87002010BD00BF12BA010808B583691B
:1052C80002491A680EF0B9FA002008BDF5DC010899
:1052D8002DE9F3410D490E4C0E4EDFF83C80054692
:1052E8000EF0ABFA0022B44202F1010703D300200A
:1052F80002B0BDE8F081636A0093A36892B24146A8
:1053080028460EF09AFA30343A46ECE705DD0108F3
:1053180064B8010894B801081DDD010808B5024900
:105328000EF0B5FA002008BD75D4010873B50E4E0D
:1053380004460025A268E0680DF1060302F5AB7289
:1053480001210FF0B8F9BDF80600A36840B12A465C
:1053580003F5AB73314620460EF06FFA0135E9E7E5
:1053680083F8560102B070BD2EDD010810B5044661
:105378000EF0D1FA0349024620460EF05EFA0020EC
:1053880010BD00BF1FD80108022907B50BD153680B
:10539800009312680B4B0C490EF06BFA6FF0150076
:1053A80003B05DF804FB8368084AD3F874320849EF
:1053B80013F0020F074B18BF1A460EF03EFA0020F2
:1053C800EEE700BF3CDD010851DD010838DD0108CA
:1053D8005ADD010881D2010810B58368D3F8743208
:1053E8009A06044603D5074940690FF0B4F8A36844
:1053F800D3F874329B0603D5034960690FF0ABF804
:10540800002010BD19BA01081EBA0108F0B501291B
:1054180085B004460AD05368009312685D4B5E4914
:105428000EF027FA6FF0150005B0F0BD8368D3F8C9
:105438007432990603D5594940690FF08CF86FF01A
:10544800F9012046FFF786FCFA212046FFF798FC71
:10545800A06800254FF48072294600F5AB708DF8DE
:105468000B5015F028FA4E4960690FF074F860691E
:105478000EF05FFA4FF47A766068036801221F69BC
:105488000DF10B0103ABB847039BEBB9013E4FF499
:105498007A70B6B214F093FD002EEDD1A368D3F85C
:1054A80074329B0603D53F4960690FF054F8A3682E
:1054B8003D4950225A87A368182220461A870EF0C1
:1054C800CAF96FF00700AFE79DF80B20A3681B2A05
:1054D80053D093F856111B29CED1522A4DD15A19BF
:1054E800002382F85631A66896F857215B2A2BD1FB
:1054F80006F25710022510F8011F2A463B2905F12C
:105508000105ADB223D1FF2AC8D002F5AB7216FA55
:1055180082F1002211F8010F18BB86F85601FA2A09
:10552800A16828BFFA224A87FA2BA26828BFFA2363
:105538001387A368D3F874329A0603D519496069AA
:105548000FF009F800206FE786F85631A6E703EB5D
:105558008303303901EB4301B5F5807F8BB2CAD1A3
:105568009CE7013502EB8202ADB2303800EB420015
:10557800B5F5807F82B2CDD190E72B440135ADB22D
:10558800092D83F856217FF677AFA368002283F8A8
:10559800562183E73CDD010851DD010824BA0108E2
:1055A800A5DD010828BA01086BDD01082DE9F04FD7
:1055B800074689B01546894621B110460FF030F9E3
:1055C80000285BD1032455E05C463CE029460AF5F7
:1055D800AB7015F0FAF90646002854D0FBF754FDD5
:1055E80082B2601C01323146304415F04AF9224635
:1055F8005946304615F037F94FF020033355BAF8BD
:10560800543001331C44AAF8544008F1010800241E
:1056180001994B1C03AA48460193FFF727FB06464E
:10562800E8B13168002228460FF0D1FA0028EFD1FE
:10563800D6F800B0D7F808A0BBF1000FC4D0584680
:10564800FBF722FD84B2BAF854302344FF2BBDDDAA
:105658000E4A2B46032138460EF011FD0124B8F1FD
:10566800000F07D0B8682A4600F1540100F5AB7066
:105678000EF08FFA204609B0BDE8F08F4FF0000811
:1056880041460224C5E70224E9E700BF6DE20108AC
:105698002DE9F843054600AF0C46002948D0DFF84D
:1056A800B890D9F800305A0742D06E468AB0D1E98E
:1056B8000001A3686A46DFF8A4C04FF00508C2E9F4
:1056C80005C0C2E9071342F8108F00234FF4215197
:1056D8004846FDF76DFBD9F800305B07B54627D083
:1056E8008AB0D4E9030163696A46DFF874C0C2E985
:1056F8000713C2E905C042F8108F002348464FF44B
:105708002151FDF755FBD9F800305807B5460FD0A1
:10571800E3690121134A48460DF011FED9F800301B
:10572800590705D0A369104A012148460DF007FE24
:10573800012D0AD1EFF3058307480268520704D008
:105748000A4A103B29460DF0FAFD214628460AF080
:105758005DF8BD46BDE8F88364070020BFE2010894
:10576800EEE201081DE301082CE301085AE30108F1
:1057780030BFFFF7FDBF00BF2DE9F0410B4EDFF84A
:10578800308006EB0807CC1B0546324609492046FF
:1057980015F069F8A01942460021083C15F08BF86D
:1057A800C5F8A84007F10800BDE8F0810000000036
:1057B80008000000DCB90108054B5A699B689A4249
:1057C8001FBF044A536843F080535360704700BFBB
:1057D8009C1D002000ED00E0F8B5374C23685B07FE
:1057E80006460D4603D0354920460FF07DF8344B68
:1057F8009B6ADF0451D52368580703D031492E48E6
:105808000FF072F817202E4B9B6A190507D52368ED
:105818005A0703D02C4928480FF066F81820284F5B
:10582800BB6A9B0519D52368580703D02749224826
:105838000FF05AF8BB6BBA6A11040DD522685207EB
:1058480004D0234A1C4801210DF079FD26B11C4AD9
:10585800936A23F4004393621920194B9B6A5B05F2
:1058680007D523685F0703D01A4913480FF03CF89F
:105878001A20134B9A6AD60511D52368590703D005
:1058880015490D480FF030F81B200D4A936A43F470
:105898007F43936200232B70F8BD1620B3E79B6A01
:1058A8009A04F2D523685B0703D00C4902480FF02D
:1058B8001BF81C20E9E700BF640700206DE301081E
:1058C80000ED00E083E3010894E30108A7E3010881
:1058D800C0E30108D5E30108F0E3010808E4010882
:1058E80010B52D4C23685A0703D02C4920460EF0DA
:1058F800FBFF2B4B9B6A9B014BD52368580703D0B2
:10590800284925480EF0F0FF1E20254B9B6AD90137
:1059180007D523685A0703D023491F480EF0E4FF30
:105928001F201F4B9B6A1B0307D52368580703D00A
:105938001E4919480EF0D8FF2120194B9B6A5903BC
:1059480007D523685A0703D0194913480EF0CCFF2E
:105958002220134B9B6A9B0307D52368590703D062
:1059680014490D480EF0C0FF23200D4B9B6ADA0343
:1059780007D523685B0703D00F4907480EF0B4FF2B
:105988002420074A936A6FEA03436FEA134393623A
:1059980010BD1D20B9E700BF6407002037E40108E7
:1059A80000ED00E04FE4010862E401087CE401082E
:1059B8009AE40108BFE40108D9E401082DE9F04799
:1059C800454D2B68894659078046174603D04349F9
:1059D80028460EF089FF424B9B6ADA0639D52B68B8
:1059E8005B0703D03F493C480EF07EFF11243C4B37
:1059F8009B6A1E0707D52B68580703D03A493648D3
:105A08000EF072FF1224DFF8D8A0DAF828309907D0
:105A180021D52B685A0703D034492F480EF064FF6C
:105A2800DAF83460DAF828301B0651D52B685C07A1
:105A380005D02F4A2848334601210DF080FCB9F1E2
:105A4800000F04D0264A936A23F08003936213243C
:105A580003E01024CBE76FF01506214B9B6AD807AB
:105A680007D52B68590703D022491B480EF03CFF85
:105A780014241B4B9B6A9A0607D52B685B0703D037
:105A88001D4915480EF030FF1524154B9A6AD506A6
:105A980002D49A6A90070AD55B68190507D541466A
:105AA800304600F02FFA10B180F3098802240C4B1D
:105AB8009A6A920642BF5A6A22F400525A629A6A55
:105AC80042F0FF029A6200233B702046BDE8F0874F
